{
  "_format": "hh-sol-artifact-1",
  "contractName": "NFTMarketPlace",
  "sourceName": "contracts/NFTMarketPlace.sol",
  "abi": [
    {
      "inputs": [
        {
          "internalType": "address",
          "name": "tokenAddr",
          "type": "address"
        }
      ],
      "stateMutability": "nonpayable",
      "type": "constructor"
    },
    {
      "inputs": [
        {
          "internalType": "address",
          "name": "nftAddress",
          "type": "address"
        },
        {
          "internalType": "uint256",
          "name": "tokenId",
          "type": "uint256"
        }
      ],
      "name": "HasListed",
      "type": "error"
    },
    {
      "inputs": [
        {
          "internalType": "address",
          "name": "buyer",
          "type": "address"
        },
        {
          "internalType": "uint256",
          "name": "allowance",
          "type": "uint256"
        }
      ],
      "name": "InsufficientApproveLimit",
      "type": "error"
    },
    {
      "inputs": [
        {
          "internalType": "address",
          "name": "buyer",
          "type": "address"
        },
        {
          "internalType": "uint256",
          "name": "balance",
          "type": "uint256"
        },
        {
          "internalType": "uint256",
          "name": "price",
          "type": "uint256"
        }
      ],
      "name": "InsufficientBalance",
      "type": "error"
    },
    {
      "inputs": [
        {
          "internalType": "bytes32",
          "name": "requestId",
          "type": "bytes32"
        }
      ],
      "name": "InvalidRequest",
      "type": "error"
    },
    {
      "inputs": [],
      "name": "MessengerNotSet",
      "type": "error"
    },
    {
      "inputs": [
        {
          "internalType": "address",
          "name": "nftAddress",
          "type": "address"
        },
        {
          "internalType": "uint256",
          "name": "tokenId",
          "type": "uint256"
        }
      ],
      "name": "NotApproved",
      "type": "error"
    },
    {
      "anonymous": false,
      "inputs": [
        {
          "indexed": true,
          "internalType": "address",
          "name": "account",
          "type": "address"
        }
      ],
      "name": "AddWhitelist",
      "type": "event"
    },
    {
      "anonymous": false,
      "inputs": [
        {
          "indexed": true,
          "internalType": "address",
          "name": "buyer",
          "type": "address"
        },
        {
          "indexed": true,
          "internalType": "address",
          "name": "nftAddress",
          "type": "address"
        },
        {
          "indexed": true,
          "internalType": "uint256",
          "name": "tokenId",
          "type": "uint256"
        },
        {
          "indexed": false,
          "internalType": "uint256",
          "name": "price",
          "type": "uint256"
        }
      ],
      "name": "BuyItem",
      "type": "event"
    },
    {
      "anonymous": false,
      "inputs": [
        {
          "indexed": true,
          "internalType": "address",
          "name": "seller",
          "type": "address"
        },
        {
          "indexed": true,
          "internalType": "address",
          "name": "nftAddress",
          "type": "address"
        },
        {
          "indexed": true,
          "internalType": "uint256",
          "name": "tokenId",
          "type": "uint256"
        }
      ],
      "name": "CancelListing",
      "type": "event"
    },
    {
      "anonymous": false,
      "inputs": [
        {
          "indexed": true,
          "internalType": "address",
          "name": "seller",
          "type": "address"
        },
        {
          "indexed": true,
          "internalType": "address",
          "name": "nftAddress",
          "type": "address"
        },
        {
          "indexed": true,
          "internalType": "uint256",
          "name": "tokenId",
          "type": "uint256"
        },
        {
          "indexed": false,
          "internalType": "uint256",
          "name": "price",
          "type": "uint256"
        },
        {
          "indexed": false,
          "internalType": "uint256",
          "name": "timestamp",
          "type": "uint256"
        },
        {
          "indexed": false,
          "internalType": "uint256",
          "name": "chainId",
          "type": "uint256"
        }
      ],
      "name": "ItemListed",
      "type": "event"
    },
    {
      "anonymous": false,
      "inputs": [
        {
          "indexed": true,
          "internalType": "address",
          "name": "nftAddress",
          "type": "address"
        },
        {
          "indexed": false,
          "internalType": "string",
          "name": "name",
          "type": "string"
        },
        {
          "indexed": false,
          "internalType": "string",
          "name": "symbol",
          "type": "string"
        }
      ],
      "name": "NewNFTContractCreated",
      "type": "event"
    },
    {
      "anonymous": false,
      "inputs": [
        {
          "indexed": true,
          "internalType": "address",
          "name": "account",
          "type": "address"
        }
      ],
      "name": "RemoveWhitelist",
      "type": "event"
    },
    {
      "anonymous": false,
      "inputs": [
        {
          "indexed": true,
          "internalType": "address",
          "name": "seller",
          "type": "address"
        },
        {
          "indexed": true,
          "internalType": "address",
          "name": "nftAddress",
          "type": "address"
        },
        {
          "indexed": true,
          "internalType": "uint256",
          "name": "tokenId",
          "type": "uint256"
        },
        {
          "indexed": false,
          "internalType": "uint256",
          "name": "price",
          "type": "uint256"
        }
      ],
      "name": "UpdateItem",
      "type": "event"
    },
    {
      "anonymous": false,
      "inputs": [
        {
          "indexed": true,
          "internalType": "address",
          "name": "oldMessengerAddr",
          "type": "address"
        },
        {
          "indexed": false,
          "internalType": "address",
          "name": "newMessengerAddr",
          "type": "address"
        }
      ],
      "name": "changeMessenger",
      "type": "event"
    },
    {
      "inputs": [
        {
          "internalType": "address",
          "name": "_address",
          "type": "address"
        }
      ],
      "name": "addAddressToWhitelist",
      "outputs": [],
      "stateMutability": "nonpayable",
      "type": "function"
    },
    {
      "inputs": [],
      "name": "assetNexusToken",
      "outputs": [
        {
          "internalType": "contract AssetNexusToken",
          "name": "",
          "type": "address"
        }
      ],
      "stateMutability": "view",
      "type": "function"
    },
    {
      "inputs": [
        {
          "internalType": "address",
          "name": "nftAddr",
          "type": "address"
        },
        {
          "internalType": "uint256",
          "name": "tokenId",
          "type": "uint256"
        },
        {
          "internalType": "uint64",
          "name": "destinationChainSelector",
          "type": "uint64"
        },
        {
          "internalType": "address",
          "name": "receiver",
          "type": "address"
        },
        {
          "internalType": "bool",
          "name": "isCrossChain",
          "type": "bool"
        }
      ],
      "name": "buyItem",
      "outputs": [],
      "stateMutability": "nonpayable",
      "type": "function"
    },
    {
      "inputs": [
        {
          "internalType": "address",
          "name": "nftAddr",
          "type": "address"
        },
        {
          "internalType": "uint256",
          "name": "tokenId",
          "type": "uint256"
        }
      ],
      "name": "cancelListing",
      "outputs": [],
      "stateMutability": "nonpayable",
      "type": "function"
    },
    {
      "inputs": [
        {
          "internalType": "string",
          "name": "name",
          "type": "string"
        },
        {
          "internalType": "string",
          "name": "symbol",
          "type": "string"
        }
      ],
      "name": "createAssetNexusNft",
      "outputs": [],
      "stateMutability": "nonpayable",
      "type": "function"
    },
    {
      "inputs": [],
      "name": "getAllListing",
      "outputs": [
        {
          "components": [
            {
              "internalType": "address",
              "name": "nftAddr",
              "type": "address"
            },
            {
              "internalType": "uint256",
              "name": "tokenId",
              "type": "uint256"
            },
            {
              "internalType": "uint256",
              "name": "price",
              "type": "uint256"
            },
            {
              "internalType": "address",
              "name": "seller",
              "type": "address"
            },
            {
              "internalType": "uint256",
              "name": "timestamp",
              "type": "uint256"
            },
            {
              "internalType": "uint256",
              "name": "chainId",
              "type": "uint256"
            }
          ],
          "internalType": "struct NFTMarketPlace.NFTSalesInformation[]",
          "name": "",
          "type": "tuple[]"
        }
      ],
      "stateMutability": "view",
      "type": "function"
    },
    {
      "inputs": [
        {
          "internalType": "address",
          "name": "_owner",
          "type": "address"
        }
      ],
      "name": "getMyListing",
      "outputs": [
        {
          "components": [
            {
              "internalType": "address",
              "name": "nftAddr",
              "type": "address"
            },
            {
              "internalType": "uint256",
              "name": "tokenId",
              "type": "uint256"
            },
            {
              "internalType": "uint256",
              "name": "price",
              "type": "uint256"
            },
            {
              "internalType": "address",
              "name": "seller",
              "type": "address"
            },
            {
              "internalType": "uint256",
              "name": "timestamp",
              "type": "uint256"
            },
            {
              "internalType": "uint256",
              "name": "chainId",
              "type": "uint256"
            }
          ],
          "internalType": "struct NFTMarketPlace.NFTSalesInformation[]",
          "name": "",
          "type": "tuple[]"
        }
      ],
      "stateMutability": "view",
      "type": "function"
    },
    {
      "inputs": [
        {
          "internalType": "address",
          "name": "nftAddr",
          "type": "address"
        },
        {
          "internalType": "uint256",
          "name": "tokenId",
          "type": "uint256"
        },
        {
          "internalType": "uint256",
          "name": "price",
          "type": "uint256"
        },
        {
          "internalType": "uint256",
          "name": "chainId",
          "type": "uint256"
        },
        {
          "internalType": "bool",
          "name": "isCrossChain",
          "type": "bool"
        }
      ],
      "name": "listItem",
      "outputs": [],
      "stateMutability": "nonpayable",
      "type": "function"
    },
    {
      "inputs": [],
      "name": "messengerAddr",
      "outputs": [
        {
          "internalType": "address",
          "name": "",
          "type": "address"
        }
      ],
      "stateMutability": "view",
      "type": "function"
    },
    {
      "inputs": [
        {
          "internalType": "address",
          "name": "",
          "type": "address"
        },
        {
          "internalType": "uint256",
          "name": "",
          "type": "uint256"
        }
      ],
      "name": "myListings",
      "outputs": [
        {
          "internalType": "address",
          "name": "nftAddr",
          "type": "address"
        },
        {
          "internalType": "uint256",
          "name": "tokenId",
          "type": "uint256"
        },
        {
          "internalType": "uint256",
          "name": "price",
          "type": "uint256"
        },
        {
          "internalType": "address",
          "name": "seller",
          "type": "address"
        },
        {
          "internalType": "uint256",
          "name": "timestamp",
          "type": "uint256"
        },
        {
          "internalType": "uint256",
          "name": "chainId",
          "type": "uint256"
        }
      ],
      "stateMutability": "view",
      "type": "function"
    },
    {
      "inputs": [
        {
          "internalType": "string",
          "name": "",
          "type": "string"
        }
      ],
      "name": "nftContractsByNames",
      "outputs": [
        {
          "internalType": "address",
          "name": "",
          "type": "address"
        }
      ],
      "stateMutability": "view",
      "type": "function"
    },
    {
      "inputs": [
        {
          "internalType": "address",
          "name": "",
          "type": "address"
        },
        {
          "internalType": "uint256",
          "name": "",
          "type": "uint256"
        }
      ],
      "name": "nftListings",
      "outputs": [
        {
          "internalType": "address",
          "name": "nftAddr",
          "type": "address"
        },
        {
          "internalType": "uint256",
          "name": "tokenId",
          "type": "uint256"
        },
        {
          "internalType": "uint256",
          "name": "price",
          "type": "uint256"
        },
        {
          "internalType": "address",
          "name": "seller",
          "type": "address"
        },
        {
          "internalType": "uint256",
          "name": "timestamp",
          "type": "uint256"
        },
        {
          "internalType": "uint256",
          "name": "chainId",
          "type": "uint256"
        }
      ],
      "stateMutability": "view",
      "type": "function"
    },
    {
      "inputs": [
        {
          "internalType": "uint256",
          "name": "",
          "type": "uint256"
        }
      ],
      "name": "nftSaleInfoList",
      "outputs": [
        {
          "internalType": "address",
          "name": "nftAddr",
          "type": "address"
        },
        {
          "internalType": "uint256",
          "name": "tokenId",
          "type": "uint256"
        },
        {
          "internalType": "uint256",
          "name": "price",
          "type": "uint256"
        },
        {
          "internalType": "address",
          "name": "seller",
          "type": "address"
        },
        {
          "internalType": "uint256",
          "name": "timestamp",
          "type": "uint256"
        },
        {
          "internalType": "uint256",
          "name": "chainId",
          "type": "uint256"
        }
      ],
      "stateMutability": "view",
      "type": "function"
    },
    {
      "inputs": [
        {
          "internalType": "address",
          "name": "",
          "type": "address"
        },
        {
          "internalType": "address",
          "name": "",
          "type": "address"
        },
        {
          "internalType": "uint256",
          "name": "",
          "type": "uint256"
        },
        {
          "internalType": "bytes",
          "name": "",
          "type": "bytes"
        }
      ],
      "name": "onERC721Received",
      "outputs": [
        {
          "internalType": "bytes4",
          "name": "",
          "type": "bytes4"
        }
      ],
      "stateMutability": "pure",
      "type": "function"
    },
    {
      "inputs": [
        {
          "internalType": "address",
          "name": "",
          "type": "address"
        }
      ],
      "name": "proceeds",
      "outputs": [
        {
          "internalType": "uint256",
          "name": "",
          "type": "uint256"
        }
      ],
      "stateMutability": "view",
      "type": "function"
    },
    {
      "inputs": [
        {
          "internalType": "address",
          "name": "_address",
          "type": "address"
        }
      ],
      "name": "removeAddressFromWhitelist",
      "outputs": [],
      "stateMutability": "nonpayable",
      "type": "function"
    },
    {
      "inputs": [
        {
          "internalType": "address",
          "name": "newMessengerAddr",
          "type": "address"
        }
      ],
      "name": "setNewMessenger",
      "outputs": [],
      "stateMutability": "nonpayable",
      "type": "function"
    },
    {
      "inputs": [
        {
          "internalType": "address",
          "name": "nftAddr",
          "type": "address"
        },
        {
          "internalType": "uint256",
          "name": "tokenId",
          "type": "uint256"
        },
        {
          "internalType": "uint256",
          "name": "newPrice",
          "type": "uint256"
        }
      ],
      "name": "updateListing",
      "outputs": [],
      "stateMutability": "nonpayable",
      "type": "function"
    },
    {
      "inputs": [
        {
          "internalType": "address",
          "name": "",
          "type": "address"
        }
      ],
      "name": "whitelist",
      "outputs": [
        {
          "internalType": "bool",
          "name": "",
          "type": "bool"
        }
      ],
      "stateMutability": "view",
      "type": "function"
    },
    {
      "inputs": [],
      "name": "withDrawProceeds",
      "outputs": [],
      "stateMutability": "nonpayable",
      "type": "function"
    }
  ],
  "bytecode": "0x60806040523480156200001157600080fd5b5060405162006126380380620061268339818101604052810190620000379190620000e8565b806000806101000a81548173ffffffffffffffffffffffffffffffffffffffff021916908373ffffffffffffffffffffffffffffffffffffffff160217905550506200011a565b600080fd5b600073ffffffffffffffffffffffffffffffffffffffff82169050919050565b6000620000b08262000083565b9050919050565b620000c281620000a3565b8114620000ce57600080fd5b50565b600081519050620000e281620000b7565b92915050565b6000602082840312156200010157620001006200007e565b5b60006200011184828501620000d1565b91505092915050565b615ffc806200012a6000396000f3fe60806040523480156200001157600080fd5b5060043610620001485760003560e01c8063485fcf1011620000bd578063c425a321116200007b578063c425a32114620003d5578063c5aa5a651462000410578063c6890de51462000432578063e7e1aa11146200043e578063f772adf1146200045e5762000148565b8063485fcf1014620003095780634904ffd014620003295780637b9417c8146200035f5780639b19251a146200037f578063b2ddee0614620003b55762000148565b8063286dd3f5116200010b578063286dd3f5146200023657806335adde5414620002565780633cac4547146200028c5780634309d59414620002ac578063467efe5a14620002e75762000148565b80630b1515e7146200014d578063150b7a02146200016f5780632145234314620001a5578063214867df14620001db57806322887bd614620001fb575b600080fd5b620001576200047e565b6040516200016691906200263d565b60405180910390f35b6200018d600480360381019062000187919062002748565b620004a4565b6040516200019c91906200281b565b60405180910390f35b620001c36004803603810190620001bd919062002838565b620004b9565b604051620001d29190620029d0565b60405180910390f35b620001f96004803603810190620001f3919062002838565b6200062d565b005b620002196004803603810190620002139190620029f4565b62000772565b6040516200022d9695949392919062002a37565b60405180910390f35b6200025460048036038101906200024e919062002838565b620007ff565b005b6200027460048036038101906200026e919062002838565b6200089d565b60405162000283919062002aa4565b60405180910390f35b620002aa6004803603810190620002a4919062002c1e565b620008b5565b005b620002ca6004803603810190620002c4919062002ca3565b62000a74565b604051620002de9695949392919062002a37565b60405180910390f35b620002f162000afd565b604051620003009190620029d0565b60405180910390f35b62000327600480360381019062000321919062002d27565b62000c32565b005b62000347600480360381019062000341919062002daf565b62001130565b6040516200035691906200263d565b60405180910390f35b6200037d600480360381019062000377919062002838565b62001179565b005b6200039d600480360381019062000397919062002838565b62001217565b604051620003ac919062002e11565b60405180910390f35b620003d36004803603810190620003cd919062002ca3565b62001237565b005b620003f36004803603810190620003ed919062002ca3565b620015a5565b604051620004079695949392919062002a37565b60405180910390f35b6200041a6200163f565b60405162000429919062002e99565b60405180910390f35b6200043c62001663565b005b6200045c600480360381019062000456919062002efb565b620017d7565b005b6200047c600480360381019062000476919062002f83565b62001f7b565b005b600160009054906101000a900473ffffffffffffffffffffffffffffffffffffffff1681565b600063150b7a0260e01b905095945050505050565b6060600460008373ffffffffffffffffffffffffffffffffffffffff1673ffffffffffffffffffffffffffffffffffffffff168152602001908152602001600020805480602002602001604051908101604052809291908181526020016000905b828210156200062257838290600052602060002090600602016040518060c00160405290816000820160009054906101000a900473ffffffffffffffffffffffffffffffffffffffff1673ffffffffffffffffffffffffffffffffffffffff1673ffffffffffffffffffffffffffffffffffffffff16815260200160018201548152602001600282015481526020016003820160009054906101000a900473ffffffffffffffffffffffffffffffffffffffff1673ffffffffffffffffffffffffffffffffffffffff1673ffffffffffffffffffffffffffffffffffffffff16815260200160048201548152602001600582015481525050815260200190600101906200051a565b505050509050919050565b600760003373ffffffffffffffffffffffffffffffffffffffff1673ffffffffffffffffffffffffffffffffffffffff16815260200190815260200160002060009054906101000a900460ff16620006bc576040517f08c379a0000000000000000000000000000000000000000000000000000000008152600401620006b39062003066565b60405180910390fd5b600160009054906101000a900473ffffffffffffffffffffffffffffffffffffffff1673ffffffffffffffffffffffffffffffffffffffff167ffc46979f70773a13175096147c0f9bcecdeb8e8fcb73b2ad42575f081bb8bee2826040516200072691906200263d565b60405180910390a280600160006101000a81548173ffffffffffffffffffffffffffffffffffffffff021916908373ffffffffffffffffffffffffffffffffffffffff16021790555050565b600281815481106200078357600080fd5b90600052602060002090600602016000915090508060000160009054906101000a900473ffffffffffffffffffffffffffffffffffffffff16908060010154908060020154908060030160009054906101000a900473ffffffffffffffffffffffffffffffffffffffff16908060040154908060050154905086565b6000600760008373ffffffffffffffffffffffffffffffffffffffff1673ffffffffffffffffffffffffffffffffffffffff16815260200190815260200160002060006101000a81548160ff0219169083151502179055508073ffffffffffffffffffffffffffffffffffffffff167fa6667e187c57c5b0fa4e1122a695ed0754287513bcb4901fa6c1f44ba22c018760405160405180910390a250565b60066020528060005260406000206000915090505481565b600760003373ffffffffffffffffffffffffffffffffffffffff1673ffffffffffffffffffffffffffffffffffffffff16815260200190815260200160002060009054906101000a900460ff1662000944576040517f08c379a00000000000000000000000000000000000000000000000000000000081526004016200093b9062003066565b60405180910390fd5b600082826040516020016200095b92919062003101565b60405160208183030381529060405280519060200120905060008184846040516200098690620025ea565b620009939291906200316a565b8190604051809103906000f5905080158015620009b4573d6000803e3d6000fd5b509050600081905080600586604051620009cf9190620031a5565b908152602001604051809103902060006101000a81548173ffffffffffffffffffffffffffffffffffffffff021916908373ffffffffffffffffffffffffffffffffffffffff1602179055508073ffffffffffffffffffffffffffffffffffffffff167f34222b7638939db0b8b07694798a0e33eb5c6cc50e7bafc23b83f9c6d6738fb1868660405162000a659291906200316a565b60405180910390a25050505050565b6003602052816000526040600020602052806000526040600020600091509150508060000160009054906101000a900473ffffffffffffffffffffffffffffffffffffffff16908060010154908060020154908060030160009054906101000a900473ffffffffffffffffffffffffffffffffffffffff16908060040154908060050154905086565b60606002805480602002602001604051908101604052809291908181526020016000905b8282101562000c2957838290600052602060002090600602016040518060c00160405290816000820160009054906101000a900473ffffffffffffffffffffffffffffffffffffffff1673ffffffffffffffffffffffffffffffffffffffff1673ffffffffffffffffffffffffffffffffffffffff16815260200160018201548152602001600282015481526020016003820160009054906101000a900473ffffffffffffffffffffffffffffffffffffffff1673ffffffffffffffffffffffffffffffffffffffff1673ffffffffffffffffffffffffffffffffffffffff168152602001600482015481526020016005820154815250508152602001906001019062000b21565b50505050905090565b60008590506000600360008873ffffffffffffffffffffffffffffffffffffffff1673ffffffffffffffffffffffffffffffffffffffff168152602001908152602001600020600087815260200190815260200160002060020154111562000cd55785856040517ff685412800000000000000000000000000000000000000000000000000000000815260040162000ccc929190620031be565b60405180910390fd5b8162000d4f578073ffffffffffffffffffffffffffffffffffffffff166342842e0e3330886040518463ffffffff1660e01b815260040162000d1a93929190620031eb565b600060405180830381600087803b15801562000d3557600080fd5b505af115801562000d4a573d6000803e3d6000fd5b505050505b60006040518060c001604052808873ffffffffffffffffffffffffffffffffffffffff1681526020018781526020018681526020013373ffffffffffffffffffffffffffffffffffffffff16815260200142815260200185815250905080600360008973ffffffffffffffffffffffffffffffffffffffff1673ffffffffffffffffffffffffffffffffffffffff168152602001908152602001600020600088815260200190815260200160002060008201518160000160006101000a81548173ffffffffffffffffffffffffffffffffffffffff021916908373ffffffffffffffffffffffffffffffffffffffff160217905550602082015181600101556040820151816002015560608201518160030160006101000a81548173ffffffffffffffffffffffffffffffffffffffff021916908373ffffffffffffffffffffffffffffffffffffffff1602179055506080820151816004015560a08201518160050155905050600460003373ffffffffffffffffffffffffffffffffffffffff1673ffffffffffffffffffffffffffffffffffffffff16815260200190815260200160002081908060018154018082558091505060019003906000526020600020906006020160009091909190915060008201518160000160006101000a81548173ffffffffffffffffffffffffffffffffffffffff021916908373ffffffffffffffffffffffffffffffffffffffff160217905550602082015181600101556040820151816002015560608201518160030160006101000a81548173ffffffffffffffffffffffffffffffffffffffff021916908373ffffffffffffffffffffffffffffffffffffffff1602179055506080820151816004015560a082015181600501555050600281908060018154018082558091505060019003906000526020600020906006020160009091909190915060008201518160000160006101000a81548173ffffffffffffffffffffffffffffffffffffffff021916908373ffffffffffffffffffffffffffffffffffffffff160217905550602082015181600101556040820151816002015560608201518160030160006101000a81548173ffffffffffffffffffffffffffffffffffffffff021916908373ffffffffffffffffffffffffffffffffffffffff1602179055506080820151816004015560a082015181600501555050858773ffffffffffffffffffffffffffffffffffffffff163373ffffffffffffffffffffffffffffffffffffffff167f66bd0bc88d76947965bc00f670f5c5b25aebab9fef6cb916d8c63a253ec392b78842896040516200111f9392919062003228565b60405180910390a450505050505050565b6005818051602081018201805184825260208301602085012081835280955050505050506000915054906101000a900473ffffffffffffffffffffffffffffffffffffffff1681565b6001600760008373ffffffffffffffffffffffffffffffffffffffff1673ffffffffffffffffffffffffffffffffffffffff16815260200190815260200160002060006101000a81548160ff0219169083151502179055508073ffffffffffffffffffffffffffffffffffffffff167fe463fa6bdecb16f96f58191d902152633214e760ea443684105a7eef1ad16b9d60405160405180910390a250565b60076020528060005260406000206000915054906101000a900460ff1681565b81816000600360008473ffffffffffffffffffffffffffffffffffffffff1673ffffffffffffffffffffffffffffffffffffffff16815260200190815260200160002060008381526020019081526020016000206040518060c00160405290816000820160009054906101000a900473ffffffffffffffffffffffffffffffffffffffff1673ffffffffffffffffffffffffffffffffffffffff1673ffffffffffffffffffffffffffffffffffffffff16815260200160018201548152602001600282015481526020016003820160009054906101000a900473ffffffffffffffffffffffffffffffffffffffff1673ffffffffffffffffffffffffffffffffffffffff1673ffffffffffffffffffffffffffffffffffffffff1681526020016004820154815260200160058201548152505090506000816040015111620013b6576040517f08c379a0000000000000000000000000000000000000000000000000000000008152600401620013ad90620032b5565b60405180910390fd5b600360008673ffffffffffffffffffffffffffffffffffffffff1673ffffffffffffffffffffffffffffffffffffffff1681526020019081526020016000206000858152602001908152602001600020600080820160006101000a81549073ffffffffffffffffffffffffffffffffffffffff0219169055600182016000905560028201600090556003820160006101000a81549073ffffffffffffffffffffffffffffffffffffffff0219169055600482016000905560058201600090555050620014c2600460003373ffffffffffffffffffffffffffffffffffffffff1673ffffffffffffffffffffffffffffffffffffffff16815260200190815260200160002086866200221d565b620014d0600286866200221d565b8473ffffffffffffffffffffffffffffffffffffffff166342842e0e3033876040518463ffffffff1660e01b81526004016200150f93929190620031eb565b600060405180830381600087803b1580156200152a57600080fd5b505af11580156200153f573d6000803e3d6000fd5b50505050838573ffffffffffffffffffffffffffffffffffffffff163373ffffffffffffffffffffffffffffffffffffffff167f061e64e10e5e57615a6fe38b48c81926f6999a2f5304d3e5e6b0d3cfac4865a560405160405180910390a45050505050565b60046020528160005260406000208181548110620015c257600080fd5b9060005260206000209060060201600091509150508060000160009054906101000a900473ffffffffffffffffffffffffffffffffffffffff16908060010154908060020154908060030160009054906101000a900473ffffffffffffffffffffffffffffffffffffffff16908060040154908060050154905086565b60008054906101000a900473ffffffffffffffffffffffffffffffffffffffff1681565b6000600660003373ffffffffffffffffffffffffffffffffffffffff1673ffffffffffffffffffffffffffffffffffffffff16815260200190815260200160002054905060008111620016ed576040517f08c379a0000000000000000000000000000000000000000000000000000000008152600401620016e49062003327565b60405180910390fd5b600660003373ffffffffffffffffffffffffffffffffffffffff1673ffffffffffffffffffffffffffffffffffffffff1681526020019081526020016000206000905560008054906101000a900473ffffffffffffffffffffffffffffffffffffffff1673ffffffffffffffffffffffffffffffffffffffff1663a9059cbb33836040518363ffffffff1660e01b81526004016200178d929190620031be565b6020604051808303816000875af1158015620017ad573d6000803e3d6000fd5b505050506040513d601f19601f82011682018060405250810190620017d3919062003360565b5050565b84846000600360008473ffffffffffffffffffffffffffffffffffffffff1673ffffffffffffffffffffffffffffffffffffffff16815260200190815260200160002060008381526020019081526020016000206040518060c00160405290816000820160009054906101000a900473ffffffffffffffffffffffffffffffffffffffff1673ffffffffffffffffffffffffffffffffffffffff1673ffffffffffffffffffffffffffffffffffffffff16815260200160018201548152602001600282015481526020016003820160009054906101000a900473ffffffffffffffffffffffffffffffffffffffff1673ffffffffffffffffffffffffffffffffffffffff1673ffffffffffffffffffffffffffffffffffffffff168152602001600482015481526020016005820154815250509050600081604001511162001956576040517f08c379a00000000000000000000000000000000000000000000000000000000081526004016200194d90620032b5565b60405180910390fd5b6000600360008a73ffffffffffffffffffffffffffffffffffffffff1673ffffffffffffffffffffffffffffffffffffffff16815260200190815260200160002060008981526020019081526020016000206040518060c00160405290816000820160009054906101000a900473ffffffffffffffffffffffffffffffffffffffff1673ffffffffffffffffffffffffffffffffffffffff1673ffffffffffffffffffffffffffffffffffffffff16815260200160018201548152602001600282015481526020016003820160009054906101000a900473ffffffffffffffffffffffffffffffffffffffff1673ffffffffffffffffffffffffffffffffffffffff1673ffffffffffffffffffffffffffffffffffffffff16815260200160048201548152602001600582015481525050905060008054906101000a900473ffffffffffffffffffffffffffffffffffffffff1673ffffffffffffffffffffffffffffffffffffffff166323b872dd333084604001516040518463ffffffff1660e01b815260040162001aec93929190620031eb565b6020604051808303816000875af115801562001b0c573d6000803e3d6000fd5b505050506040513d601f19601f8201168201806040525081019062001b32919062003360565b50806040015160066000836060015173ffffffffffffffffffffffffffffffffffffffff1673ffffffffffffffffffffffffffffffffffffffff168152602001908152602001600020600082825462001b8c9190620033c1565b92505081905550600360008a73ffffffffffffffffffffffffffffffffffffffff1673ffffffffffffffffffffffffffffffffffffffff1681526020019081526020016000206000898152602001908152602001600020600080820160006101000a81549073ffffffffffffffffffffffffffffffffffffffff0219169055600182016000905560028201600090556003820160006101000a81549073ffffffffffffffffffffffffffffffffffffffff0219169055600482016000905560058201600090555050841562001e3357600073ffffffffffffffffffffffffffffffffffffffff16600160009054906101000a900473ffffffffffffffffffffffffffffffffffffffff1673ffffffffffffffffffffffffffffffffffffffff160362001ce4576040517fd062892300000000000000000000000000000000000000000000000000000000815260040160405180910390fd5b6000816060015133836020015160405160240162001d0593929190620031eb565b6040516020818303038152906040527f23b872dd000000000000000000000000000000000000000000000000000000007bffffffffffffffffffffffffffffffffffffffffffffffffffffffff19166020820180517bffffffffffffffffffffffffffffffffffffffffffffffffffffffff83818316178352505050509050600160009054906101000a900473ffffffffffffffffffffffffffffffffffffffff1673ffffffffffffffffffffffffffffffffffffffff1663a30e37708989846040518463ffffffff1660e01b815260040162001de5939291906200346a565b6020604051808303816000875af115801562001e05573d6000803e3d6000fd5b505050506040513d601f19601f8201168201806040525081019062001e2b9190620034e9565b505062001ea7565b8873ffffffffffffffffffffffffffffffffffffffff166342842e0e30338b6040518463ffffffff1660e01b815260040162001e7293929190620031eb565b600060405180830381600087803b15801562001e8d57600080fd5b505af115801562001ea2573d6000803e3d6000fd5b505050505b62001eb560028a8a6200221d565b62001f0460046000836060015173ffffffffffffffffffffffffffffffffffffffff1673ffffffffffffffffffffffffffffffffffffffff1681526020019081526020016000208a8a6200221d565b878973ffffffffffffffffffffffffffffffffffffffff163373ffffffffffffffffffffffffffffffffffffffff167fc6d7a5e59f38ae48e0f1577ce4627ba9b270bfd4c2c0c7be609c429421bc3d68846040015160405162001f68919062002aa4565b60405180910390a4505050505050505050565b82826000600360008473ffffffffffffffffffffffffffffffffffffffff1673ffffffffffffffffffffffffffffffffffffffff16815260200190815260200160002060008381526020019081526020016000206040518060c00160405290816000820160009054906101000a900473ffffffffffffffffffffffffffffffffffffffff1673ffffffffffffffffffffffffffffffffffffffff1673ffffffffffffffffffffffffffffffffffffffff16815260200160018201548152602001600282015481526020016003820160009054906101000a900473ffffffffffffffffffffffffffffffffffffffff1673ffffffffffffffffffffffffffffffffffffffff1673ffffffffffffffffffffffffffffffffffffffff1681526020016004820154815260200160058201548152505090506000816040015111620020fa576040517f08c379a0000000000000000000000000000000000000000000000000000000008152600401620020f190620032b5565b60405180910390fd5b83600360008873ffffffffffffffffffffffffffffffffffffffff1673ffffffffffffffffffffffffffffffffffffffff1681526020019081526020016000206000878152602001908152602001600020600201819055506200219e600460003373ffffffffffffffffffffffffffffffffffffffff1673ffffffffffffffffffffffffffffffffffffffff168152602001908152602001600020878787620024e4565b620021ad6002878787620024e4565b848673ffffffffffffffffffffffffffffffffffffffff163373ffffffffffffffffffffffffffffffffffffffff167ff27d99858c492867d3a1e9dad2f0e80c4d41e8fcc070ed85eec4d2faaed9bd90876040516200220d919062002aa4565b60405180910390a4505050505050565b60005b8380549050811015620024de578273ffffffffffffffffffffffffffffffffffffffff168482815481106200225a57620022596200351b565b5b906000526020600020906006020160000160009054906101000a900473ffffffffffffffffffffffffffffffffffffffff1673ffffffffffffffffffffffffffffffffffffffff16148015620022d6575081848281548110620022c257620022c16200351b565b5b906000526020600020906006020160010154145b15620024d0578360018580549050620022f091906200354a565b815481106200230457620023036200351b565b5b90600052602060002090600602018482815481106200232857620023276200351b565b5b90600052602060002090600602016000820160009054906101000a900473ffffffffffffffffffffffffffffffffffffffff168160000160006101000a81548173ffffffffffffffffffffffffffffffffffffffff021916908373ffffffffffffffffffffffffffffffffffffffff16021790555060018201548160010155600282015481600201556003820160009054906101000a900473ffffffffffffffffffffffffffffffffffffffff168160030160006101000a81548173ffffffffffffffffffffffffffffffffffffffff021916908373ffffffffffffffffffffffffffffffffffffffff16021790555060048201548160040155600582015481600501559050508380548062002443576200244262003585565b5b6001900381819060005260206000209060060201600080820160006101000a81549073ffffffffffffffffffffffffffffffffffffffff0219169055600182016000905560028201600090556003820160006101000a81549073ffffffffffffffffffffffffffffffffffffffff02191690556004820160009055600582016000905550509055620024de565b808060010191505062002220565b50505050565b60005b8480549050811015620025e3578373ffffffffffffffffffffffffffffffffffffffff168582815481106200252157620025206200351b565b5b906000526020600020906006020160000160009054906101000a900473ffffffffffffffffffffffffffffffffffffffff1673ffffffffffffffffffffffffffffffffffffffff161480156200259d5750828582815481106200258957620025886200351b565b5b906000526020600020906006020160010154145b15620025d55781858281548110620025ba57620025b96200351b565b5b906000526020600020906006020160020181905550620025e3565b8080600101915050620024e7565b5050505050565b612a1280620035b583390190565b600073ffffffffffffffffffffffffffffffffffffffff82169050919050565b60006200262582620025f8565b9050919050565b620026378162002618565b82525050565b60006020820190506200265460008301846200262c565b92915050565b6000604051905090565b600080fd5b600080fd5b620026798162002618565b81146200268557600080fd5b50565b60008135905062002699816200266e565b92915050565b6000819050919050565b620026b4816200269f565b8114620026c057600080fd5b50565b600081359050620026d481620026a9565b92915050565b600080fd5b600080fd5b600080fd5b60008083601f840112620027025762002701620026da565b5b8235905067ffffffffffffffff811115620027225762002721620026df565b5b602083019150836001820283011115620027415762002740620026e4565b5b9250929050565b60008060008060006080868803121562002767576200276662002664565b5b6000620027778882890162002688565b95505060206200278a8882890162002688565b94505060406200279d88828901620026c3565b935050606086013567ffffffffffffffff811115620027c157620027c062002669565b5b620027cf88828901620026e9565b92509250509295509295909350565b60007fffffffff0000000000000000000000000000000000000000000000000000000082169050919050565b6200281581620027de565b82525050565b60006020820190506200283260008301846200280a565b92915050565b60006020828403121562002851576200285062002664565b5b6000620028618482850162002688565b91505092915050565b600081519050919050565b600082825260208201905092915050565b6000819050602082019050919050565b620028a18162002618565b82525050565b620028b2816200269f565b82525050565b60c082016000820151620028d0600085018262002896565b506020820151620028e56020850182620028a7565b506040820151620028fa6040850182620028a7565b5060608201516200290f606085018262002896565b506080820151620029246080850182620028a7565b5060a08201516200293960a0850182620028a7565b50505050565b60006200294d8383620028b8565b60c08301905092915050565b6000602082019050919050565b600062002973826200286a565b6200297f818562002875565b93506200298c8362002886565b8060005b83811015620029c3578151620029a788826200293f565b9750620029b48362002959565b92505060018101905062002990565b5085935050505092915050565b60006020820190508181036000830152620029ec818462002966565b905092915050565b60006020828403121562002a0d5762002a0c62002664565b5b600062002a1d84828501620026c3565b91505092915050565b62002a31816200269f565b82525050565b600060c08201905062002a4e60008301896200262c565b62002a5d602083018862002a26565b62002a6c604083018762002a26565b62002a7b60608301866200262c565b62002a8a608083018562002a26565b62002a9960a083018462002a26565b979650505050505050565b600060208201905062002abb600083018462002a26565b92915050565b600080fd5b6000601f19601f8301169050919050565b7f4e487b7100000000000000000000000000000000000000000000000000000000600052604160045260246000fd5b62002b118262002ac6565b810181811067ffffffffffffffff8211171562002b335762002b3262002ad7565b5b80604052505050565b600062002b486200265a565b905062002b56828262002b06565b919050565b600067ffffffffffffffff82111562002b795762002b7862002ad7565b5b62002b848262002ac6565b9050602081019050919050565b82818337600083830152505050565b600062002bb762002bb18462002b5b565b62002b3c565b90508281526020810184848401111562002bd65762002bd562002ac1565b5b62002be384828562002b91565b509392505050565b600082601f83011262002c035762002c02620026da565b5b813562002c1584826020860162002ba0565b91505092915050565b6000806040838503121562002c385762002c3762002664565b5b600083013567ffffffffffffffff81111562002c595762002c5862002669565b5b62002c678582860162002beb565b925050602083013567ffffffffffffffff81111562002c8b5762002c8a62002669565b5b62002c998582860162002beb565b9150509250929050565b6000806040838503121562002cbd5762002cbc62002664565b5b600062002ccd8582860162002688565b925050602062002ce085828601620026c3565b9150509250929050565b60008115159050919050565b62002d018162002cea565b811462002d0d57600080fd5b50565b60008135905062002d218162002cf6565b92915050565b600080600080600060a0868803121562002d465762002d4562002664565b5b600062002d568882890162002688565b955050602062002d6988828901620026c3565b945050604062002d7c88828901620026c3565b935050606062002d8f88828901620026c3565b925050608062002da28882890162002d10565b9150509295509295909350565b60006020828403121562002dc85762002dc762002664565b5b600082013567ffffffffffffffff81111562002de95762002de862002669565b5b62002df78482850162002beb565b91505092915050565b62002e0b8162002cea565b82525050565b600060208201905062002e28600083018462002e00565b92915050565b6000819050919050565b600062002e5962002e5362002e4d84620025f8565b62002e2e565b620025f8565b9050919050565b600062002e6d8262002e38565b9050919050565b600062002e818262002e60565b9050919050565b62002e938162002e74565b82525050565b600060208201905062002eb0600083018462002e88565b92915050565b600067ffffffffffffffff82169050919050565b62002ed58162002eb6565b811462002ee157600080fd5b50565b60008135905062002ef58162002eca565b92915050565b600080600080600060a0868803121562002f1a5762002f1962002664565b5b600062002f2a8882890162002688565b955050602062002f3d88828901620026c3565b945050604062002f508882890162002ee4565b935050606062002f638882890162002688565b925050608062002f768882890162002d10565b9150509295509295909350565b60008060006060848603121562002f9f5762002f9e62002664565b5b600062002faf8682870162002688565b935050602062002fc286828701620026c3565b925050604062002fd586828701620026c3565b9150509250925092565b600082825260208201905092915050565b7f4f6e6c792077686974656c6973746564206164647265737365732063616e206360008201527f616c6c20746869732066756e6374696f6e2e0000000000000000000000000000602082015250565b60006200304e60328362002fdf565b91506200305b8262002ff0565b604082019050919050565b6000602082019050818103600083015262003081816200303f565b9050919050565b600081519050919050565b600081905092915050565b60005b83811015620030be578082015181840152602081019050620030a1565b60008484015250505050565b6000620030d78262003088565b620030e3818562003093565b9350620030f58185602086016200309e565b80840191505092915050565b60006200310f8285620030ca565b91506200311d8284620030ca565b91508190509392505050565b6000620031368262003088565b62003142818562002fdf565b9350620031548185602086016200309e565b6200315f8162002ac6565b840191505092915050565b6000604082019050818103600083015262003186818562003129565b905081810360208301526200319c818462003129565b90509392505050565b6000620031b38284620030ca565b915081905092915050565b6000604082019050620031d560008301856200262c565b620031e4602083018462002a26565b9392505050565b60006060820190506200320260008301866200262c565b6200321160208301856200262c565b62003220604083018462002a26565b949350505050565b60006060820190506200323f600083018662002a26565b6200324e602083018562002a26565b6200325d604083018462002a26565b949350505050565b7f43757272656e74204e465420686173206e6f206c697374656421000000000000600082015250565b60006200329d601a8362002fdf565b9150620032aa8262003265565b602082019050919050565b60006020820190508181036000830152620032d0816200328e565b9050919050565b7f796f752068617665206e6f2070726f6365656473210000000000000000000000600082015250565b60006200330f60158362002fdf565b91506200331c82620032d7565b602082019050919050565b60006020820190508181036000830152620033428162003300565b9050919050565b6000815190506200335a8162002cf6565b92915050565b60006020828403121562003379576200337862002664565b5b6000620033898482850162003349565b91505092915050565b7f4e487b7100000000000000000000000000000000000000000000000000000000600052601160045260246000fd5b6000620033ce826200269f565b9150620033db836200269f565b9250828201905080821115620033f657620033f562003392565b5b92915050565b620034078162002eb6565b82525050565b600081519050919050565b600082825260208201905092915050565b600062003436826200340d565b62003442818562003418565b9350620034548185602086016200309e565b6200345f8162002ac6565b840191505092915050565b6000606082019050620034816000830186620033fc565b6200349060208301856200262c565b8181036040830152620034a4818462003429565b9050949350505050565b6000819050919050565b620034c381620034ae565b8114620034cf57600080fd5b50565b600081519050620034e381620034b8565b92915050565b60006020828403121562003502576200350162002664565b5b60006200351284828501620034d2565b91505092915050565b7f4e487b7100000000000000000000000000000000000000000000000000000000600052603260045260246000fd5b600062003557826200269f565b915062003564836200269f565b92508282039050818111156200357f576200357e62003392565b5b92915050565b7f4e487b7100000000000000000000000000000000000000000000000000000000600052603160045260246000fdfe60806040523480156200001157600080fd5b5060405162002a1238038062002a128339818101604052810190620000379190620001fa565b818181600090816200004a9190620004ca565b5080600190816200005c9190620004ca565b5050505050620005b1565b6000604051905090565b600080fd5b600080fd5b600080fd5b600080fd5b6000601f19601f8301169050919050565b7f4e487b7100000000000000000000000000000000000000000000000000000000600052604160045260246000fd5b620000d08262000085565b810181811067ffffffffffffffff82111715620000f257620000f162000096565b5b80604052505050565b60006200010762000067565b9050620001158282620000c5565b919050565b600067ffffffffffffffff82111562000138576200013762000096565b5b620001438262000085565b9050602081019050919050565b60005b838110156200017057808201518184015260208101905062000153565b60008484015250505050565b6000620001936200018d846200011a565b620000fb565b905082815260208101848484011115620001b257620001b162000080565b5b620001bf84828562000150565b509392505050565b600082601f830112620001df57620001de6200007b565b5b8151620001f18482602086016200017c565b91505092915050565b6000806040838503121562000214576200021362000071565b5b600083015167ffffffffffffffff81111562000235576200023462000076565b5b6200024385828601620001c7565b925050602083015167ffffffffffffffff81111562000267576200026662000076565b5b6200027585828601620001c7565b9150509250929050565b600081519050919050565b7f4e487b7100000000000000000000000000000000000000000000000000000000600052602260045260246000fd5b60006002820490506001821680620002d257607f821691505b602082108103620002e857620002e76200028a565b5b50919050565b60008190508160005260206000209050919050565b60006020601f8301049050919050565b600082821b905092915050565b600060088302620003527fffffffffffffffffffffffffffffffffffffffffffffffffffffffffffffffff8262000313565b6200035e868362000313565b95508019841693508086168417925050509392505050565b6000819050919050565b6000819050919050565b6000620003ab620003a56200039f8462000376565b62000380565b62000376565b9050919050565b6000819050919050565b620003c7836200038a565b620003df620003d682620003b2565b84845462000320565b825550505050565b600090565b620003f6620003e7565b62000403818484620003bc565b505050565b5b818110156200042b576200041f600082620003ec565b60018101905062000409565b5050565b601f8211156200047a576200044481620002ee565b6200044f8462000303565b810160208510156200045f578190505b620004776200046e8562000303565b83018262000408565b50505b505050565b600082821c905092915050565b60006200049f600019846008026200047f565b1980831691505092915050565b6000620004ba83836200048c565b9150826002028217905092915050565b620004d5826200027f565b67ffffffffffffffff811115620004f157620004f062000096565b5b620004fd8254620002b9565b6200050a8282856200042f565b600060209050601f8311600181146200054257600084156200052d578287015190505b620005398582620004ac565b865550620005a9565b601f1984166200055286620002ee565b60005b828110156200057c5784890151825560018201915060208501945060208101905062000555565b868310156200059c578489015162000598601f8916826200048c565b8355505b6001600288020188555050505b505050505050565b61245180620005c16000396000f3fe608060405234801561001057600080fd5b50600436106100f55760003560e01c806370a0823111610097578063c754584911610066578063c754584914610282578063c87b56dd146102b2578063d082e381146102e2578063e985e9c514610300576100f5565b806370a08231146101fc57806395d89b411461022c578063a22cb4651461024a578063b88d4fde14610266576100f5565b8063095ea7b3116100d3578063095ea7b31461017857806323b872dd1461019457806342842e0e146101b05780636352211e146101cc576100f5565b806301ffc9a7146100fa57806306fdde031461012a578063081812fc14610148575b600080fd5b610114600480360381019061010f919061187e565b610330565b60405161012191906118c6565b60405180910390f35b610132610391565b60405161013f9190611971565b60405180910390f35b610162600480360381019061015d91906119c9565b610423565b60405161016f9190611a37565b60405180910390f35b610192600480360381019061018d9190611a7e565b61043f565b005b6101ae60048036038101906101a99190611abe565b610455565b005b6101ca60048036038101906101c59190611abe565b610557565b005b6101e660048036038101906101e191906119c9565b610577565b6040516101f39190611a37565b60405180910390f35b61021660048036038101906102119190611b11565b610589565b6040516102239190611b4d565b60405180910390f35b610234610643565b6040516102419190611971565b60405180910390f35b610264600480360381019061025f9190611b94565b6106d5565b005b610280600480360381019061027b9190611d09565b6106eb565b005b61029c60048036038101906102979190611e2d565b610708565b6040516102a99190611b4d565b60405180910390f35b6102cc60048036038101906102c791906119c9565b61077d565b6040516102d99190611971565b60405180910390f35b6102ea610890565b6040516102f79190611b4d565b60405180910390f35b61031a60048036038101906103159190611e76565b610896565b60405161032791906118c6565b60405180910390f35b6000634906490660e01b7bffffffffffffffffffffffffffffffffffffffffffffffffffffffff1916827bffffffffffffffffffffffffffffffffffffffffffffffffffffffff1916148061038a57506103898261092a565b5b9050919050565b6060600080546103a090611ee5565b80601f01602080910402602001604051908101604052809291908181526020018280546103cc90611ee5565b80156104195780601f106103ee57610100808354040283529160200191610419565b820191906000526020600020905b8154815290600101906020018083116103fc57829003601f168201915b5050505050905090565b600061042e82610a0c565b5061043882610a94565b9050919050565b610451828261044c610ad1565b610ad9565b5050565b600073ffffffffffffffffffffffffffffffffffffffff168273ffffffffffffffffffffffffffffffffffffffff16036104c75760006040517f64a0ae920000000000000000000000000000000000000000000000000000000081526004016104be9190611a37565b60405180910390fd5b60006104db83836104d6610ad1565b610aeb565b90508373ffffffffffffffffffffffffffffffffffffffff168173ffffffffffffffffffffffffffffffffffffffff1614610551578382826040517f64283d7b00000000000000000000000000000000000000000000000000000000815260040161054893929190611f16565b60405180910390fd5b50505050565b610572838383604051806020016040528060008152506106eb565b505050565b600061058282610a0c565b9050919050565b60008073ffffffffffffffffffffffffffffffffffffffff168273ffffffffffffffffffffffffffffffffffffffff16036105fc5760006040517f89c62b640000000000000000000000000000000000000000000000000000000081526004016105f39190611a37565b60405180910390fd5b600360008373ffffffffffffffffffffffffffffffffffffffff1673ffffffffffffffffffffffffffffffffffffffff168152602001908152602001600020549050919050565b60606001805461065290611ee5565b80601f016020809104026020016040519081016040528092919081815260200182805461067e90611ee5565b80156106cb5780601f106106a0576101008083540402835291602001916106cb565b820191906000526020600020905b8154815290600101906020018083116106ae57829003601f168201915b5050505050905090565b6106e76106e0610ad1565b8383610d05565b5050565b6106f6848484610455565b61070284848484610e74565b50505050565b60006107163360075461102b565b61072260075483611124565b7f899b99f6c26ce7a463fc72a3a36ae78b414dae9cfa6e88e8580ec708e70f30b0336007548460405161075793929190611f4d565b60405180910390a16007600081548092919061077290611fba565b919050559050919050565b606061078882610a0c565b5060006006600084815260200190815260200160002080546107a990611ee5565b80601f01602080910402602001604051908101604052809291908181526020018280546107d590611ee5565b80156108225780601f106107f757610100808354040283529160200191610822565b820191906000526020600020905b81548152906001019060200180831161080557829003601f168201915b505050505090506000610833611180565b9050600081510361084857819250505061088b565b60008251111561087d57808260405160200161086592919061203e565b6040516020818303038152906040529250505061088b565b61088684611197565b925050505b919050565b60075481565b6000600560008473ffffffffffffffffffffffffffffffffffffffff1673ffffffffffffffffffffffffffffffffffffffff16815260200190815260200160002060008373ffffffffffffffffffffffffffffffffffffffff1673ffffffffffffffffffffffffffffffffffffffff16815260200190815260200160002060009054906101000a900460ff16905092915050565b60007f80ac58cd000000000000000000000000000000000000000000000000000000007bffffffffffffffffffffffffffffffffffffffffffffffffffffffff1916827bffffffffffffffffffffffffffffffffffffffffffffffffffffffff191614806109f557507f5b5e139f000000000000000000000000000000000000000000000000000000007bffffffffffffffffffffffffffffffffffffffffffffffffffffffff1916827bffffffffffffffffffffffffffffffffffffffffffffffffffffffff1916145b80610a055750610a0482611200565b5b9050919050565b600080610a188361126a565b9050600073ffffffffffffffffffffffffffffffffffffffff168173ffffffffffffffffffffffffffffffffffffffff1603610a8b57826040517f7e273289000000000000000000000000000000000000000000000000000000008152600401610a829190611b4d565b60405180910390fd5b80915050919050565b60006004600083815260200190815260200160002060009054906101000a900473ffffffffffffffffffffffffffffffffffffffff169050919050565b600033905090565b610ae683838360016112a7565b505050565b600080610af78461126a565b9050600073ffffffffffffffffffffffffffffffffffffffff168373ffffffffffffffffffffffffffffffffffffffff1614610b3957610b3881848661146c565b5b600073ffffffffffffffffffffffffffffffffffffffff168173ffffffffffffffffffffffffffffffffffffffff1614610bca57610b7b6000856000806112a7565b6001600360008373ffffffffffffffffffffffffffffffffffffffff1673ffffffffffffffffffffffffffffffffffffffff168152602001908152602001600020600082825403925050819055505b600073ffffffffffffffffffffffffffffffffffffffff168573ffffffffffffffffffffffffffffffffffffffff1614610c4d576001600360008773ffffffffffffffffffffffffffffffffffffffff1673ffffffffffffffffffffffffffffffffffffffff168152602001908152602001600020600082825401925050819055505b846002600086815260200190815260200160002060006101000a81548173ffffffffffffffffffffffffffffffffffffffff021916908373ffffffffffffffffffffffffffffffffffffffff160217905550838573ffffffffffffffffffffffffffffffffffffffff168273ffffffffffffffffffffffffffffffffffffffff167fddf252ad1be2c89b69c2b068fc378daa952ba7f163c4a11628f55a4df523b3ef60405160405180910390a4809150509392505050565b600073ffffffffffffffffffffffffffffffffffffffff168273ffffffffffffffffffffffffffffffffffffffff1603610d7657816040517f5b08ba18000000000000000000000000000000000000000000000000000000008152600401610d6d9190611a37565b60405180910390fd5b80600560008573ffffffffffffffffffffffffffffffffffffffff1673ffffffffffffffffffffffffffffffffffffffff16815260200190815260200160002060008473ffffffffffffffffffffffffffffffffffffffff1673ffffffffffffffffffffffffffffffffffffffff16815260200190815260200160002060006101000a81548160ff0219169083151502179055508173ffffffffffffffffffffffffffffffffffffffff168373ffffffffffffffffffffffffffffffffffffffff167f17307eab39ab6107e8899845ad3d59bd9653f200f220920489ca2b5937696c3183604051610e6791906118c6565b60405180910390a3505050565b60008373ffffffffffffffffffffffffffffffffffffffff163b1115611025578273ffffffffffffffffffffffffffffffffffffffff1663150b7a02610eb8610ad1565b8685856040518563ffffffff1660e01b8152600401610eda94939291906120b7565b6020604051808303816000875af1925050508015610f1657506040513d601f19601f82011682018060405250810190610f139190612118565b60015b610f9a573d8060008114610f46576040519150601f19603f3d011682016040523d82523d6000602084013e610f4b565b606091505b506000815103610f9257836040517f64a0ae92000000000000000000000000000000000000000000000000000000008152600401610f899190611a37565b60405180910390fd5b805181602001fd5b63150b7a0260e01b7bffffffffffffffffffffffffffffffffffffffffffffffffffffffff1916817bffffffffffffffffffffffffffffffffffffffffffffffffffffffff19161461102357836040517f64a0ae9200000000000000000000000000000000000000000000000000000000815260040161101a9190611a37565b60405180910390fd5b505b50505050565b600073ffffffffffffffffffffffffffffffffffffffff168273ffffffffffffffffffffffffffffffffffffffff160361109d5760006040517f64a0ae920000000000000000000000000000000000000000000000000000000081526004016110949190611a37565b60405180910390fd5b60006110ab83836000610aeb565b9050600073ffffffffffffffffffffffffffffffffffffffff168173ffffffffffffffffffffffffffffffffffffffff161461111f5760006040517f73c6ac6e0000000000000000000000000000000000000000000000000000000081526004016111169190611a37565b60405180910390fd5b505050565b8060066000848152602001908152602001600020908161114491906122f1565b507ff8e1a15aba9398e019f0b49df1a4fde98ee17ae345cb5f6b5e2c27f5033e8ce7826040516111749190611b4d565b60405180910390a15050565b606060405180602001604052806000815250905090565b60606111a282610a0c565b5060006111ad611180565b905060008151116111cd57604051806020016040528060008152506111f8565b806111d784611530565b6040516020016111e892919061203e565b6040516020818303038152906040525b915050919050565b60007f01ffc9a7000000000000000000000000000000000000000000000000000000007bffffffffffffffffffffffffffffffffffffffffffffffffffffffff1916827bffffffffffffffffffffffffffffffffffffffffffffffffffffffff1916149050919050565b60006002600083815260200190815260200160002060009054906101000a900473ffffffffffffffffffffffffffffffffffffffff169050919050565b80806112e05750600073ffffffffffffffffffffffffffffffffffffffff168273ffffffffffffffffffffffffffffffffffffffff1614155b156114145760006112f084610a0c565b9050600073ffffffffffffffffffffffffffffffffffffffff168373ffffffffffffffffffffffffffffffffffffffff161415801561135b57508273ffffffffffffffffffffffffffffffffffffffff168173ffffffffffffffffffffffffffffffffffffffff1614155b801561136e575061136c8184610896565b155b156113b057826040517fa9fbf51f0000000000000000000000000000000000000000000000000000000081526004016113a79190611a37565b60405180910390fd5b811561141257838573ffffffffffffffffffffffffffffffffffffffff168273ffffffffffffffffffffffffffffffffffffffff167f8c5be1e5ebec7d5bd14f71427d1e84f3dd0314c0f7b2291e5b200ac8c7c3b92560405160405180910390a45b505b836004600085815260200190815260200160002060006101000a81548173ffffffffffffffffffffffffffffffffffffffff021916908373ffffffffffffffffffffffffffffffffffffffff16021790555050505050565b6114778383836115fe565b61152b57600073ffffffffffffffffffffffffffffffffffffffff168373ffffffffffffffffffffffffffffffffffffffff16036114ec57806040517f7e2732890000000000000000000000000000000000000000000000000000000081526004016114e39190611b4d565b60405180910390fd5b81816040517f177e802f0000000000000000000000000000000000000000000000000000000081526004016115229291906123c3565b60405180910390fd5b505050565b60606000600161153f846116bf565b01905060008167ffffffffffffffff81111561155e5761155d611bde565b5b6040519080825280601f01601f1916602001820160405280156115905781602001600182028036833780820191505090505b509050600082602001820190505b6001156115f3578080600190039150507f3031323334353637383961626364656600000000000000000000000000000000600a86061a8153600a85816115e7576115e66123ec565b5b0494506000850361159e575b819350505050919050565b60008073ffffffffffffffffffffffffffffffffffffffff168373ffffffffffffffffffffffffffffffffffffffff16141580156116b657508273ffffffffffffffffffffffffffffffffffffffff168473ffffffffffffffffffffffffffffffffffffffff16148061167757506116768484610896565b5b806116b557508273ffffffffffffffffffffffffffffffffffffffff1661169d83610a94565b73ffffffffffffffffffffffffffffffffffffffff16145b5b90509392505050565b600080600090507a184f03e93ff9f4daa797ed6e38ed64bf6a1f010000000000000000831061171d577a184f03e93ff9f4daa797ed6e38ed64bf6a1f0100000000000000008381611713576117126123ec565b5b0492506040810190505b6d04ee2d6d415b85acef8100000000831061175a576d04ee2d6d415b85acef810000000083816117505761174f6123ec565b5b0492506020810190505b662386f26fc10000831061178957662386f26fc10000838161177f5761177e6123ec565b5b0492506010810190505b6305f5e10083106117b2576305f5e10083816117a8576117a76123ec565b5b0492506008810190505b61271083106117d75761271083816117cd576117cc6123ec565b5b0492506004810190505b606483106117fa57606483816117f0576117ef6123ec565b5b0492506002810190505b600a8310611809576001810190505b80915050919050565b6000604051905090565b600080fd5b600080fd5b60007fffffffff0000000000000000000000000000000000000000000000000000000082169050919050565b61185b81611826565b811461186657600080fd5b50565b60008135905061187881611852565b92915050565b6000602082840312156118945761189361181c565b5b60006118a284828501611869565b91505092915050565b60008115159050919050565b6118c0816118ab565b82525050565b60006020820190506118db60008301846118b7565b92915050565b600081519050919050565b600082825260208201905092915050565b60005b8381101561191b578082015181840152602081019050611900565b60008484015250505050565b6000601f19601f8301169050919050565b6000611943826118e1565b61194d81856118ec565b935061195d8185602086016118fd565b61196681611927565b840191505092915050565b6000602082019050818103600083015261198b8184611938565b905092915050565b6000819050919050565b6119a681611993565b81146119b157600080fd5b50565b6000813590506119c38161199d565b92915050565b6000602082840312156119df576119de61181c565b5b60006119ed848285016119b4565b91505092915050565b600073ffffffffffffffffffffffffffffffffffffffff82169050919050565b6000611a21826119f6565b9050919050565b611a3181611a16565b82525050565b6000602082019050611a4c6000830184611a28565b92915050565b611a5b81611a16565b8114611a6657600080fd5b50565b600081359050611a7881611a52565b92915050565b60008060408385031215611a9557611a9461181c565b5b6000611aa385828601611a69565b9250506020611ab4858286016119b4565b9150509250929050565b600080600060608486031215611ad757611ad661181c565b5b6000611ae586828701611a69565b9350506020611af686828701611a69565b9250506040611b07868287016119b4565b9150509250925092565b600060208284031215611b2757611b2661181c565b5b6000611b3584828501611a69565b91505092915050565b611b4781611993565b82525050565b6000602082019050611b626000830184611b3e565b92915050565b611b71816118ab565b8114611b7c57600080fd5b50565b600081359050611b8e81611b68565b92915050565b60008060408385031215611bab57611baa61181c565b5b6000611bb985828601611a69565b9250506020611bca85828601611b7f565b9150509250929050565b600080fd5b600080fd5b7f4e487b7100000000000000000000000000000000000000000000000000000000600052604160045260246000fd5b611c1682611927565b810181811067ffffffffffffffff82111715611c3557611c34611bde565b5b80604052505050565b6000611c48611812565b9050611c548282611c0d565b919050565b600067ffffffffffffffff821115611c7457611c73611bde565b5b611c7d82611927565b9050602081019050919050565b82818337600083830152505050565b6000611cac611ca784611c59565b611c3e565b905082815260208101848484011115611cc857611cc7611bd9565b5b611cd3848285611c8a565b509392505050565b600082601f830112611cf057611cef611bd4565b5b8135611d00848260208601611c99565b91505092915050565b60008060008060808587031215611d2357611d2261181c565b5b6000611d3187828801611a69565b9450506020611d4287828801611a69565b9350506040611d53878288016119b4565b925050606085013567ffffffffffffffff811115611d7457611d73611821565b5b611d8087828801611cdb565b91505092959194509250565b600067ffffffffffffffff821115611da757611da6611bde565b5b611db082611927565b9050602081019050919050565b6000611dd0611dcb84611d8c565b611c3e565b905082815260208101848484011115611dec57611deb611bd9565b5b611df7848285611c8a565b509392505050565b600082601f830112611e1457611e13611bd4565b5b8135611e24848260208601611dbd565b91505092915050565b600060208284031215611e4357611e4261181c565b5b600082013567ffffffffffffffff811115611e6157611e60611821565b5b611e6d84828501611dff565b91505092915050565b60008060408385031215611e8d57611e8c61181c565b5b6000611e9b85828601611a69565b9250506020611eac85828601611a69565b9150509250929050565b7f4e487b7100000000000000000000000000000000000000000000000000000000600052602260045260246000fd5b60006002820490506001821680611efd57607f821691505b602082108103611f1057611f0f611eb6565b5b50919050565b6000606082019050611f2b6000830186611a28565b611f386020830185611b3e565b611f456040830184611a28565b949350505050565b6000606082019050611f626000830186611a28565b611f6f6020830185611b3e565b8181036040830152611f818184611938565b9050949350505050565b7f4e487b7100000000000000000000000000000000000000000000000000000000600052601160045260246000fd5b6000611fc582611993565b91507fffffffffffffffffffffffffffffffffffffffffffffffffffffffffffffffff8203611ff757611ff6611f8b565b5b600182019050919050565b600081905092915050565b6000612018826118e1565b6120228185612002565b93506120328185602086016118fd565b80840191505092915050565b600061204a828561200d565b9150612056828461200d565b91508190509392505050565b600081519050919050565b600082825260208201905092915050565b600061208982612062565b612093818561206d565b93506120a38185602086016118fd565b6120ac81611927565b840191505092915050565b60006080820190506120cc6000830187611a28565b6120d96020830186611a28565b6120e66040830185611b3e565b81810360608301526120f8818461207e565b905095945050505050565b60008151905061211281611852565b92915050565b60006020828403121561212e5761212d61181c565b5b600061213c84828501612103565b91505092915050565b60008190508160005260206000209050919050565b60006020601f8301049050919050565b600082821b905092915050565b6000600883026121a77fffffffffffffffffffffffffffffffffffffffffffffffffffffffffffffffff8261216a565b6121b1868361216a565b95508019841693508086168417925050509392505050565b6000819050919050565b60006121ee6121e96121e484611993565b6121c9565b611993565b9050919050565b6000819050919050565b612208836121d3565b61221c612214826121f5565b848454612177565b825550505050565b600090565b612231612224565b61223c8184846121ff565b505050565b5b8181101561226057612255600082612229565b600181019050612242565b5050565b601f8211156122a55761227681612145565b61227f8461215a565b8101602085101561228e578190505b6122a261229a8561215a565b830182612241565b50505b505050565b600082821c905092915050565b60006122c8600019846008026122aa565b1980831691505092915050565b60006122e183836122b7565b9150826002028217905092915050565b6122fa826118e1565b67ffffffffffffffff81111561231357612312611bde565b5b61231d8254611ee5565b612328828285612264565b600060209050601f83116001811461235b5760008415612349578287015190505b61235385826122d5565b8655506123bb565b601f19841661236986612145565b60005b828110156123915784890151825560018201915060208501945060208101905061236c565b868310156123ae57848901516123aa601f8916826122b7565b8355505b6001600288020188555050505b505050505050565b60006040820190506123d86000830185611a28565b6123e56020830184611b3e565b9392505050565b7f4e487b7100000000000000000000000000000000000000000000000000000000600052601260045260246000fdfea2646970667358221220bb15ed3814fb175734b33a35af36d5238a6f09e2af22d93abf9086dae51e3b8d64736f6c63430008180033a2646970667358221220b578bf6eee273a0c78cf2d188274d378a944c4d415427da5987c61fdab6170bf64736f6c63430008180033",
  "linkReferences": {},
  "deployedLinkReferences": {}
}