{
  "_format": "hh-sol-artifact-1",
  "contractName": "NFTMarketPlace",
  "sourceName": "contracts/NFTMarketPlace.sol",
  "abi": [
    {
      "inputs": [
        {
          "internalType": "address",
          "name": "tokenAddr",
          "type": "address"
        },
        {
          "internalType": "address payable",
          "name": "messengerAddr",
          "type": "address"
        }
      ],
      "stateMutability": "nonpayable",
      "type": "constructor"
    },
    {
      "inputs": [
        {
          "internalType": "address",
          "name": "nftAddress",
          "type": "address"
        },
        {
          "internalType": "uint256",
          "name": "tokenId",
          "type": "uint256"
        }
      ],
      "name": "HasListed",
      "type": "error"
    },
    {
      "inputs": [
        {
          "internalType": "address",
          "name": "buyer",
          "type": "address"
        },
        {
          "internalType": "uint256",
          "name": "allowance",
          "type": "uint256"
        }
      ],
      "name": "InsufficientApproveLimit",
      "type": "error"
    },
    {
      "inputs": [
        {
          "internalType": "address",
          "name": "buyer",
          "type": "address"
        },
        {
          "internalType": "uint256",
          "name": "balance",
          "type": "uint256"
        },
        {
          "internalType": "uint256",
          "name": "price",
          "type": "uint256"
        }
      ],
      "name": "InsufficientBalance",
      "type": "error"
    },
    {
      "inputs": [
        {
          "internalType": "bytes32",
          "name": "requestId",
          "type": "bytes32"
        }
      ],
      "name": "InvalidRequest",
      "type": "error"
    },
    {
      "inputs": [
        {
          "internalType": "address",
          "name": "nftAddress",
          "type": "address"
        },
        {
          "internalType": "uint256",
          "name": "tokenId",
          "type": "uint256"
        }
      ],
      "name": "NotApproved",
      "type": "error"
    },
    {
      "anonymous": false,
      "inputs": [
        {
          "indexed": true,
          "internalType": "address",
          "name": "buyer",
          "type": "address"
        },
        {
          "indexed": true,
          "internalType": "address",
          "name": "nftAddress",
          "type": "address"
        },
        {
          "indexed": true,
          "internalType": "uint256",
          "name": "tokenId",
          "type": "uint256"
        },
        {
          "indexed": false,
          "internalType": "uint256",
          "name": "price",
          "type": "uint256"
        }
      ],
      "name": "BuyItem",
      "type": "event"
    },
    {
      "anonymous": false,
      "inputs": [
        {
          "indexed": true,
          "internalType": "address",
          "name": "seller",
          "type": "address"
        },
        {
          "indexed": true,
          "internalType": "address",
          "name": "nftAddress",
          "type": "address"
        },
        {
          "indexed": true,
          "internalType": "uint256",
          "name": "tokenId",
          "type": "uint256"
        }
      ],
      "name": "CancelListing",
      "type": "event"
    },
    {
      "anonymous": false,
      "inputs": [
        {
          "indexed": true,
          "internalType": "address",
          "name": "seller",
          "type": "address"
        },
        {
          "indexed": true,
          "internalType": "address",
          "name": "nftAddress",
          "type": "address"
        },
        {
          "indexed": true,
          "internalType": "uint256",
          "name": "tokenId",
          "type": "uint256"
        },
        {
          "indexed": false,
          "internalType": "uint256",
          "name": "price",
          "type": "uint256"
        },
        {
          "indexed": false,
          "internalType": "uint256",
          "name": "timestamp",
          "type": "uint256"
        },
        {
          "indexed": false,
          "internalType": "uint256",
          "name": "chainId",
          "type": "uint256"
        }
      ],
      "name": "ItemListed",
      "type": "event"
    },
    {
      "anonymous": false,
      "inputs": [
        {
          "indexed": true,
          "internalType": "address",
          "name": "nftAddress",
          "type": "address"
        },
        {
          "indexed": false,
          "internalType": "string",
          "name": "name",
          "type": "string"
        },
        {
          "indexed": false,
          "internalType": "string",
          "name": "symbol",
          "type": "string"
        }
      ],
      "name": "NewNFTContractCreated",
      "type": "event"
    },
    {
      "anonymous": false,
      "inputs": [
        {
          "indexed": true,
          "internalType": "address",
          "name": "seller",
          "type": "address"
        },
        {
          "indexed": true,
          "internalType": "address",
          "name": "nftAddress",
          "type": "address"
        },
        {
          "indexed": true,
          "internalType": "uint256",
          "name": "tokenId",
          "type": "uint256"
        },
        {
          "indexed": false,
          "internalType": "uint256",
          "name": "price",
          "type": "uint256"
        }
      ],
      "name": "UpdateItem",
      "type": "event"
    },
    {
      "inputs": [
        {
          "internalType": "address",
          "name": "_address",
          "type": "address"
        }
      ],
      "name": "addAddressToWhitelist",
      "outputs": [],
      "stateMutability": "nonpayable",
      "type": "function"
    },
    {
      "inputs": [],
      "name": "assetNexusToken",
      "outputs": [
        {
          "internalType": "contract AssetNexusToken",
          "name": "",
          "type": "address"
        }
      ],
      "stateMutability": "view",
      "type": "function"
    },
    {
      "inputs": [
        {
          "internalType": "address",
          "name": "nftAddr",
          "type": "address"
        },
        {
          "internalType": "uint256",
          "name": "tokenId",
          "type": "uint256"
        },
        {
          "internalType": "uint64",
          "name": "destinationChainSelector",
          "type": "uint64"
        },
        {
          "internalType": "address",
          "name": "receiver",
          "type": "address"
        },
        {
          "internalType": "bool",
          "name": "isCrossChain",
          "type": "bool"
        }
      ],
      "name": "buyItem",
      "outputs": [],
      "stateMutability": "nonpayable",
      "type": "function"
    },
    {
      "inputs": [
        {
          "internalType": "address",
          "name": "nftAddr",
          "type": "address"
        },
        {
          "internalType": "uint256",
          "name": "tokenId",
          "type": "uint256"
        }
      ],
      "name": "cancelListing",
      "outputs": [],
      "stateMutability": "nonpayable",
      "type": "function"
    },
    {
      "inputs": [
        {
          "internalType": "string",
          "name": "name",
          "type": "string"
        },
        {
          "internalType": "string",
          "name": "symbol",
          "type": "string"
        }
      ],
      "name": "createAssetNexusNft",
      "outputs": [],
      "stateMutability": "nonpayable",
      "type": "function"
    },
    {
      "inputs": [],
      "name": "getAllListing",
      "outputs": [
        {
          "components": [
            {
              "internalType": "address",
              "name": "nftAddr",
              "type": "address"
            },
            {
              "internalType": "uint256",
              "name": "tokenId",
              "type": "uint256"
            },
            {
              "internalType": "uint256",
              "name": "price",
              "type": "uint256"
            },
            {
              "internalType": "address",
              "name": "seller",
              "type": "address"
            },
            {
              "internalType": "uint256",
              "name": "timestamp",
              "type": "uint256"
            },
            {
              "internalType": "uint256",
              "name": "chainId",
              "type": "uint256"
            }
          ],
          "internalType": "struct NFTMarketPlace.NFTSalesInformation[]",
          "name": "",
          "type": "tuple[]"
        }
      ],
      "stateMutability": "view",
      "type": "function"
    },
    {
      "inputs": [
        {
          "internalType": "address",
          "name": "_owner",
          "type": "address"
        }
      ],
      "name": "getMyListing",
      "outputs": [
        {
          "components": [
            {
              "internalType": "address",
              "name": "nftAddr",
              "type": "address"
            },
            {
              "internalType": "uint256",
              "name": "tokenId",
              "type": "uint256"
            },
            {
              "internalType": "uint256",
              "name": "price",
              "type": "uint256"
            },
            {
              "internalType": "address",
              "name": "seller",
              "type": "address"
            },
            {
              "internalType": "uint256",
              "name": "timestamp",
              "type": "uint256"
            },
            {
              "internalType": "uint256",
              "name": "chainId",
              "type": "uint256"
            }
          ],
          "internalType": "struct NFTMarketPlace.NFTSalesInformation[]",
          "name": "",
          "type": "tuple[]"
        }
      ],
      "stateMutability": "view",
      "type": "function"
    },
    {
      "inputs": [
        {
          "internalType": "address",
          "name": "nftAddr",
          "type": "address"
        },
        {
          "internalType": "uint256",
          "name": "tokenId",
          "type": "uint256"
        },
        {
          "internalType": "uint256",
          "name": "price",
          "type": "uint256"
        },
        {
          "internalType": "uint256",
          "name": "chainId",
          "type": "uint256"
        },
        {
          "internalType": "bool",
          "name": "isCrossChain",
          "type": "bool"
        }
      ],
      "name": "listItem",
      "outputs": [],
      "stateMutability": "nonpayable",
      "type": "function"
    },
    {
      "inputs": [],
      "name": "messenger",
      "outputs": [
        {
          "internalType": "contract Messenger",
          "name": "",
          "type": "address"
        }
      ],
      "stateMutability": "view",
      "type": "function"
    },
    {
      "inputs": [
        {
          "internalType": "address",
          "name": "",
          "type": "address"
        },
        {
          "internalType": "uint256",
          "name": "",
          "type": "uint256"
        }
      ],
      "name": "myListings",
      "outputs": [
        {
          "internalType": "address",
          "name": "nftAddr",
          "type": "address"
        },
        {
          "internalType": "uint256",
          "name": "tokenId",
          "type": "uint256"
        },
        {
          "internalType": "uint256",
          "name": "price",
          "type": "uint256"
        },
        {
          "internalType": "address",
          "name": "seller",
          "type": "address"
        },
        {
          "internalType": "uint256",
          "name": "timestamp",
          "type": "uint256"
        },
        {
          "internalType": "uint256",
          "name": "chainId",
          "type": "uint256"
        }
      ],
      "stateMutability": "view",
      "type": "function"
    },
    {
      "inputs": [
        {
          "internalType": "string",
          "name": "",
          "type": "string"
        }
      ],
      "name": "nftContractsByNames",
      "outputs": [
        {
          "internalType": "address",
          "name": "",
          "type": "address"
        }
      ],
      "stateMutability": "view",
      "type": "function"
    },
    {
      "inputs": [
        {
          "internalType": "address",
          "name": "",
          "type": "address"
        },
        {
          "internalType": "uint256",
          "name": "",
          "type": "uint256"
        }
      ],
      "name": "nftListings",
      "outputs": [
        {
          "internalType": "address",
          "name": "nftAddr",
          "type": "address"
        },
        {
          "internalType": "uint256",
          "name": "tokenId",
          "type": "uint256"
        },
        {
          "internalType": "uint256",
          "name": "price",
          "type": "uint256"
        },
        {
          "internalType": "address",
          "name": "seller",
          "type": "address"
        },
        {
          "internalType": "uint256",
          "name": "timestamp",
          "type": "uint256"
        },
        {
          "internalType": "uint256",
          "name": "chainId",
          "type": "uint256"
        }
      ],
      "stateMutability": "view",
      "type": "function"
    },
    {
      "inputs": [
        {
          "internalType": "uint256",
          "name": "",
          "type": "uint256"
        }
      ],
      "name": "nftSaleInfoList",
      "outputs": [
        {
          "internalType": "address",
          "name": "nftAddr",
          "type": "address"
        },
        {
          "internalType": "uint256",
          "name": "tokenId",
          "type": "uint256"
        },
        {
          "internalType": "uint256",
          "name": "price",
          "type": "uint256"
        },
        {
          "internalType": "address",
          "name": "seller",
          "type": "address"
        },
        {
          "internalType": "uint256",
          "name": "timestamp",
          "type": "uint256"
        },
        {
          "internalType": "uint256",
          "name": "chainId",
          "type": "uint256"
        }
      ],
      "stateMutability": "view",
      "type": "function"
    },
    {
      "inputs": [
        {
          "internalType": "address",
          "name": "",
          "type": "address"
        },
        {
          "internalType": "address",
          "name": "",
          "type": "address"
        },
        {
          "internalType": "uint256",
          "name": "",
          "type": "uint256"
        },
        {
          "internalType": "bytes",
          "name": "",
          "type": "bytes"
        }
      ],
      "name": "onERC721Received",
      "outputs": [
        {
          "internalType": "bytes4",
          "name": "",
          "type": "bytes4"
        }
      ],
      "stateMutability": "pure",
      "type": "function"
    },
    {
      "inputs": [
        {
          "internalType": "address",
          "name": "",
          "type": "address"
        }
      ],
      "name": "proceeds",
      "outputs": [
        {
          "internalType": "uint256",
          "name": "",
          "type": "uint256"
        }
      ],
      "stateMutability": "view",
      "type": "function"
    },
    {
      "inputs": [
        {
          "internalType": "address",
          "name": "_address",
          "type": "address"
        }
      ],
      "name": "removeAddressFromWhitelist",
      "outputs": [],
      "stateMutability": "nonpayable",
      "type": "function"
    },
    {
      "inputs": [
        {
          "internalType": "address",
          "name": "nftAddr",
          "type": "address"
        },
        {
          "internalType": "uint256",
          "name": "tokenId",
          "type": "uint256"
        },
        {
          "internalType": "uint256",
          "name": "newPrice",
          "type": "uint256"
        }
      ],
      "name": "updateListing",
      "outputs": [],
      "stateMutability": "nonpayable",
      "type": "function"
    },
    {
      "inputs": [
        {
          "internalType": "address",
          "name": "",
          "type": "address"
        }
      ],
      "name": "whitelist",
      "outputs": [
        {
          "internalType": "bool",
          "name": "",
          "type": "bool"
        }
      ],
      "stateMutability": "view",
      "type": "function"
    },
    {
      "inputs": [],
      "name": "withDrawProceeds",
      "outputs": [],
      "stateMutability": "nonpayable",
      "type": "function"
    }
  ],
  "bytecode": "0x60806040523480156200001157600080fd5b5060405162005f9738038062005f9783398181016040528101906200003791906200016f565b816000806101000a81548173ffffffffffffffffffffffffffffffffffffffff021916908373ffffffffffffffffffffffffffffffffffffffff16021790555080600160006101000a81548173ffffffffffffffffffffffffffffffffffffffff021916908373ffffffffffffffffffffffffffffffffffffffff1602179055505050620001b6565b600080fd5b600073ffffffffffffffffffffffffffffffffffffffff82169050919050565b6000620000f282620000c5565b9050919050565b6200010481620000e5565b81146200011057600080fd5b50565b6000815190506200012481620000f9565b92915050565b60006200013782620000c5565b9050919050565b62000149816200012a565b81146200015557600080fd5b50565b60008151905062000169816200013e565b92915050565b60008060408385031215620001895762000188620000c0565b5b6000620001998582860162000113565b9250506020620001ac8582860162000158565b9150509250929050565b615dd180620001c66000396000f3fe60806040523480156200001157600080fd5b50600436106200013c5760003560e01c8063485fcf1011620000bd578063c425a321116200007b578063c425a32114620003a9578063c5aa5a6514620003e4578063c6890de51462000406578063e7e1aa111462000412578063f772adf11462000432576200013c565b8063485fcf1014620002dd5780634904ffd014620002fd5780637b9417c814620003335780639b19251a1462000353578063b2ddee061462000389576200013c565b806335adde54116200010b57806335adde5414620002085780633cac4547146200023e5780633cb747bf146200025e5780634309d5941462000280578063467efe5a14620002bb576200013c565b8063150b7a02146200014157806321452343146200017757806322887bd614620001ad578063286dd3f514620001e8575b600080fd5b6200015f600480360381019062000159919062002499565b62000452565b6040516200016e91906200256c565b60405180910390f35b6200019560048036038101906200018f919062002589565b62000467565b604051620001a4919062002721565b60405180910390f35b620001cb6004803603810190620001c5919062002745565b620005db565b604051620001df9695949392919062002799565b60405180910390f35b62000206600480360381019062000200919062002589565b62000668565b005b62000226600480360381019062000220919062002589565b620006c3565b60405162000235919062002806565b60405180910390f35b6200025c600480360381019062000256919062002980565b620006db565b005b620002686200089a565b60405162000277919062002a70565b60405180910390f35b6200029e600480360381019062000298919062002a8d565b620008c0565b604051620002b29695949392919062002799565b60405180910390f35b620002c562000949565b604051620002d4919062002721565b60405180910390f35b620002fb6004803603810190620002f5919062002b11565b62000a7e565b005b6200031b600480360381019062000315919062002b99565b62000f7c565b6040516200032a919062002bea565b60405180910390f35b6200035160048036038101906200034b919062002589565b62000fc5565b005b6200037160048036038101906200036b919062002589565b62001020565b60405162000380919062002c18565b60405180910390f35b620003a76004803603810190620003a1919062002a8d565b62001040565b005b620003c76004803603810190620003c1919062002a8d565b620013ae565b604051620003db9695949392919062002799565b60405180910390f35b620003ee62001448565b604051620003fd919062002c6e565b60405180910390f35b620004106200146c565b005b6200043060048036038101906200042a919062002cd0565b620015e0565b005b6200045060048036038101906200044a919062002d58565b62001cfa565b005b600063150b7a0260e01b905095945050505050565b6060600460008373ffffffffffffffffffffffffffffffffffffffff1673ffffffffffffffffffffffffffffffffffffffff168152602001908152602001600020805480602002602001604051908101604052809291908181526020016000905b82821015620005d057838290600052602060002090600602016040518060c00160405290816000820160009054906101000a900473ffffffffffffffffffffffffffffffffffffffff1673ffffffffffffffffffffffffffffffffffffffff1673ffffffffffffffffffffffffffffffffffffffff16815260200160018201548152602001600282015481526020016003820160009054906101000a900473ffffffffffffffffffffffffffffffffffffffff1673ffffffffffffffffffffffffffffffffffffffff1673ffffffffffffffffffffffffffffffffffffffff1681526020016004820154815260200160058201548152505081526020019060010190620004c8565b505050509050919050565b60028181548110620005ec57600080fd5b90600052602060002090600602016000915090508060000160009054906101000a900473ffffffffffffffffffffffffffffffffffffffff16908060010154908060020154908060030160009054906101000a900473ffffffffffffffffffffffffffffffffffffffff16908060040154908060050154905086565b6000600760008373ffffffffffffffffffffffffffffffffffffffff1673ffffffffffffffffffffffffffffffffffffffff16815260200190815260200160002060006101000a81548160ff02191690831515021790555050565b60066020528060005260406000206000915090505481565b600760003373ffffffffffffffffffffffffffffffffffffffff1673ffffffffffffffffffffffffffffffffffffffff16815260200190815260200160002060009054906101000a900460ff166200076a576040517f08c379a0000000000000000000000000000000000000000000000000000000008152600401620007619062002e3b565b60405180910390fd5b600082826040516020016200078192919062002ed6565b6040516020818303038152906040528051906020012090506000818484604051620007ac9062002369565b620007b992919062002f3f565b8190604051809103906000f5905080158015620007da573d6000803e3d6000fd5b509050600081905080600586604051620007f5919062002f7a565b908152602001604051809103902060006101000a81548173ffffffffffffffffffffffffffffffffffffffff021916908373ffffffffffffffffffffffffffffffffffffffff1602179055508073ffffffffffffffffffffffffffffffffffffffff167f34222b7638939db0b8b07694798a0e33eb5c6cc50e7bafc23b83f9c6d6738fb186866040516200088b92919062002f3f565b60405180910390a25050505050565b600160009054906101000a900473ffffffffffffffffffffffffffffffffffffffff1681565b6003602052816000526040600020602052806000526040600020600091509150508060000160009054906101000a900473ffffffffffffffffffffffffffffffffffffffff16908060010154908060020154908060030160009054906101000a900473ffffffffffffffffffffffffffffffffffffffff16908060040154908060050154905086565b60606002805480602002602001604051908101604052809291908181526020016000905b8282101562000a7557838290600052602060002090600602016040518060c00160405290816000820160009054906101000a900473ffffffffffffffffffffffffffffffffffffffff1673ffffffffffffffffffffffffffffffffffffffff1673ffffffffffffffffffffffffffffffffffffffff16815260200160018201548152602001600282015481526020016003820160009054906101000a900473ffffffffffffffffffffffffffffffffffffffff1673ffffffffffffffffffffffffffffffffffffffff1673ffffffffffffffffffffffffffffffffffffffff16815260200160048201548152602001600582015481525050815260200190600101906200096d565b50505050905090565b60008590506000600360008873ffffffffffffffffffffffffffffffffffffffff1673ffffffffffffffffffffffffffffffffffffffff168152602001908152602001600020600087815260200190815260200160002060020154111562000b215785856040517ff685412800000000000000000000000000000000000000000000000000000000815260040162000b1892919062002f93565b60405180910390fd5b8162000b9b578073ffffffffffffffffffffffffffffffffffffffff166342842e0e3330886040518463ffffffff1660e01b815260040162000b669392919062002fc0565b600060405180830381600087803b15801562000b8157600080fd5b505af115801562000b96573d6000803e3d6000fd5b505050505b60006040518060c001604052808873ffffffffffffffffffffffffffffffffffffffff1681526020018781526020018681526020013373ffffffffffffffffffffffffffffffffffffffff16815260200142815260200185815250905080600360008973ffffffffffffffffffffffffffffffffffffffff1673ffffffffffffffffffffffffffffffffffffffff168152602001908152602001600020600088815260200190815260200160002060008201518160000160006101000a81548173ffffffffffffffffffffffffffffffffffffffff021916908373ffffffffffffffffffffffffffffffffffffffff160217905550602082015181600101556040820151816002015560608201518160030160006101000a81548173ffffffffffffffffffffffffffffffffffffffff021916908373ffffffffffffffffffffffffffffffffffffffff1602179055506080820151816004015560a08201518160050155905050600460003373ffffffffffffffffffffffffffffffffffffffff1673ffffffffffffffffffffffffffffffffffffffff16815260200190815260200160002081908060018154018082558091505060019003906000526020600020906006020160009091909190915060008201518160000160006101000a81548173ffffffffffffffffffffffffffffffffffffffff021916908373ffffffffffffffffffffffffffffffffffffffff160217905550602082015181600101556040820151816002015560608201518160030160006101000a81548173ffffffffffffffffffffffffffffffffffffffff021916908373ffffffffffffffffffffffffffffffffffffffff1602179055506080820151816004015560a082015181600501555050600281908060018154018082558091505060019003906000526020600020906006020160009091909190915060008201518160000160006101000a81548173ffffffffffffffffffffffffffffffffffffffff021916908373ffffffffffffffffffffffffffffffffffffffff160217905550602082015181600101556040820151816002015560608201518160030160006101000a81548173ffffffffffffffffffffffffffffffffffffffff021916908373ffffffffffffffffffffffffffffffffffffffff1602179055506080820151816004015560a082015181600501555050858773ffffffffffffffffffffffffffffffffffffffff163373ffffffffffffffffffffffffffffffffffffffff167f66bd0bc88d76947965bc00f670f5c5b25aebab9fef6cb916d8c63a253ec392b788428960405162000f6b9392919062002ffd565b60405180910390a450505050505050565b6005818051602081018201805184825260208301602085012081835280955050505050506000915054906101000a900473ffffffffffffffffffffffffffffffffffffffff1681565b6001600760008373ffffffffffffffffffffffffffffffffffffffff1673ffffffffffffffffffffffffffffffffffffffff16815260200190815260200160002060006101000a81548160ff02191690831515021790555050565b60076020528060005260406000206000915054906101000a900460ff1681565b81816000600360008473ffffffffffffffffffffffffffffffffffffffff1673ffffffffffffffffffffffffffffffffffffffff16815260200190815260200160002060008381526020019081526020016000206040518060c00160405290816000820160009054906101000a900473ffffffffffffffffffffffffffffffffffffffff1673ffffffffffffffffffffffffffffffffffffffff1673ffffffffffffffffffffffffffffffffffffffff16815260200160018201548152602001600282015481526020016003820160009054906101000a900473ffffffffffffffffffffffffffffffffffffffff1673ffffffffffffffffffffffffffffffffffffffff1673ffffffffffffffffffffffffffffffffffffffff1681526020016004820154815260200160058201548152505090506000816040015111620011bf576040517f08c379a0000000000000000000000000000000000000000000000000000000008152600401620011b6906200308a565b60405180910390fd5b600360008673ffffffffffffffffffffffffffffffffffffffff1673ffffffffffffffffffffffffffffffffffffffff1681526020019081526020016000206000858152602001908152602001600020600080820160006101000a81549073ffffffffffffffffffffffffffffffffffffffff0219169055600182016000905560028201600090556003820160006101000a81549073ffffffffffffffffffffffffffffffffffffffff0219169055600482016000905560058201600090555050620012cb600460003373ffffffffffffffffffffffffffffffffffffffff1673ffffffffffffffffffffffffffffffffffffffff168152602001908152602001600020868662001f9c565b620012d96002868662001f9c565b8473ffffffffffffffffffffffffffffffffffffffff166342842e0e3033876040518463ffffffff1660e01b8152600401620013189392919062002fc0565b600060405180830381600087803b1580156200133357600080fd5b505af115801562001348573d6000803e3d6000fd5b50505050838573ffffffffffffffffffffffffffffffffffffffff163373ffffffffffffffffffffffffffffffffffffffff167f061e64e10e5e57615a6fe38b48c81926f6999a2f5304d3e5e6b0d3cfac4865a560405160405180910390a45050505050565b60046020528160005260406000208181548110620013cb57600080fd5b9060005260206000209060060201600091509150508060000160009054906101000a900473ffffffffffffffffffffffffffffffffffffffff16908060010154908060020154908060030160009054906101000a900473ffffffffffffffffffffffffffffffffffffffff16908060040154908060050154905086565b60008054906101000a900473ffffffffffffffffffffffffffffffffffffffff1681565b6000600660003373ffffffffffffffffffffffffffffffffffffffff1673ffffffffffffffffffffffffffffffffffffffff16815260200190815260200160002054905060008111620014f6576040517f08c379a0000000000000000000000000000000000000000000000000000000008152600401620014ed90620030fc565b60405180910390fd5b600660003373ffffffffffffffffffffffffffffffffffffffff1673ffffffffffffffffffffffffffffffffffffffff1681526020019081526020016000206000905560008054906101000a900473ffffffffffffffffffffffffffffffffffffffff1673ffffffffffffffffffffffffffffffffffffffff1663a9059cbb33836040518363ffffffff1660e01b81526004016200159692919062002f93565b6020604051808303816000875af1158015620015b6573d6000803e3d6000fd5b505050506040513d601f19601f82011682018060405250810190620015dc919062003135565b5050565b84846000600360008473ffffffffffffffffffffffffffffffffffffffff1673ffffffffffffffffffffffffffffffffffffffff16815260200190815260200160002060008381526020019081526020016000206040518060c00160405290816000820160009054906101000a900473ffffffffffffffffffffffffffffffffffffffff1673ffffffffffffffffffffffffffffffffffffffff1673ffffffffffffffffffffffffffffffffffffffff16815260200160018201548152602001600282015481526020016003820160009054906101000a900473ffffffffffffffffffffffffffffffffffffffff1673ffffffffffffffffffffffffffffffffffffffff1673ffffffffffffffffffffffffffffffffffffffff16815260200160048201548152602001600582015481525050905060008160400151116200175f576040517f08c379a000000000000000000000000000000000000000000000000000000000815260040162001756906200308a565b60405180910390fd5b6000600360008a73ffffffffffffffffffffffffffffffffffffffff1673ffffffffffffffffffffffffffffffffffffffff16815260200190815260200160002060008981526020019081526020016000206040518060c00160405290816000820160009054906101000a900473ffffffffffffffffffffffffffffffffffffffff1673ffffffffffffffffffffffffffffffffffffffff1673ffffffffffffffffffffffffffffffffffffffff16815260200160018201548152602001600282015481526020016003820160009054906101000a900473ffffffffffffffffffffffffffffffffffffffff1673ffffffffffffffffffffffffffffffffffffffff1673ffffffffffffffffffffffffffffffffffffffff16815260200160048201548152602001600582015481525050905060008054906101000a900473ffffffffffffffffffffffffffffffffffffffff1673ffffffffffffffffffffffffffffffffffffffff166323b872dd333084604001516040518463ffffffff1660e01b8152600401620018f59392919062002fc0565b6020604051808303816000875af115801562001915573d6000803e3d6000fd5b505050506040513d601f19601f820116820180604052508101906200193b919062003135565b50806040015160066000836060015173ffffffffffffffffffffffffffffffffffffffff1673ffffffffffffffffffffffffffffffffffffffff168152602001908152602001600020600082825462001995919062003196565b92505081905550600360008a73ffffffffffffffffffffffffffffffffffffffff1673ffffffffffffffffffffffffffffffffffffffff1681526020019081526020016000206000898152602001908152602001600020600080820160006101000a81549073ffffffffffffffffffffffffffffffffffffffff0219169055600182016000905560028201600090556003820160006101000a81549073ffffffffffffffffffffffffffffffffffffffff02191690556004820160009055600582016000905550508462001adc578873ffffffffffffffffffffffffffffffffffffffff166342842e0e30338b6040518463ffffffff1660e01b815260040162001aa29392919062002fc0565b600060405180830381600087803b15801562001abd57600080fd5b505af115801562001ad2573d6000803e3d6000fd5b5050505062001c26565b6000816060015133836020015160405160240162001afd9392919062002fc0565b6040516020818303038152906040527f23b872dd000000000000000000000000000000000000000000000000000000007bffffffffffffffffffffffffffffffffffffffffffffffffffffffff19166020820180517bffffffffffffffffffffffffffffffffffffffffffffffffffffffff83818316178352505050509050600160009054906101000a900473ffffffffffffffffffffffffffffffffffffffff1673ffffffffffffffffffffffffffffffffffffffff1663a30e37708989846040518463ffffffff1660e01b815260040162001bdd939291906200323f565b6020604051808303816000875af115801562001bfd573d6000803e3d6000fd5b505050506040513d601f19601f8201168201806040525081019062001c239190620032be565b50505b62001c3460028a8a62001f9c565b62001c8360046000836060015173ffffffffffffffffffffffffffffffffffffffff1673ffffffffffffffffffffffffffffffffffffffff1681526020019081526020016000208a8a62001f9c565b878973ffffffffffffffffffffffffffffffffffffffff163373ffffffffffffffffffffffffffffffffffffffff167fc6d7a5e59f38ae48e0f1577ce4627ba9b270bfd4c2c0c7be609c429421bc3d68846040015160405162001ce7919062002806565b60405180910390a4505050505050505050565b82826000600360008473ffffffffffffffffffffffffffffffffffffffff1673ffffffffffffffffffffffffffffffffffffffff16815260200190815260200160002060008381526020019081526020016000206040518060c00160405290816000820160009054906101000a900473ffffffffffffffffffffffffffffffffffffffff1673ffffffffffffffffffffffffffffffffffffffff1673ffffffffffffffffffffffffffffffffffffffff16815260200160018201548152602001600282015481526020016003820160009054906101000a900473ffffffffffffffffffffffffffffffffffffffff1673ffffffffffffffffffffffffffffffffffffffff1673ffffffffffffffffffffffffffffffffffffffff168152602001600482015481526020016005820154815250509050600081604001511162001e79576040517f08c379a000000000000000000000000000000000000000000000000000000000815260040162001e70906200308a565b60405180910390fd5b83600360008873ffffffffffffffffffffffffffffffffffffffff1673ffffffffffffffffffffffffffffffffffffffff16815260200190815260200160002060008781526020019081526020016000206002018190555062001f1d600460003373ffffffffffffffffffffffffffffffffffffffff1673ffffffffffffffffffffffffffffffffffffffff16815260200190815260200160002087878762002263565b62001f2c600287878762002263565b848673ffffffffffffffffffffffffffffffffffffffff163373ffffffffffffffffffffffffffffffffffffffff167ff27d99858c492867d3a1e9dad2f0e80c4d41e8fcc070ed85eec4d2faaed9bd908760405162001f8c919062002806565b60405180910390a4505050505050565b60005b83805490508110156200225d578273ffffffffffffffffffffffffffffffffffffffff1684828154811062001fd95762001fd8620032f0565b5b906000526020600020906006020160000160009054906101000a900473ffffffffffffffffffffffffffffffffffffffff1673ffffffffffffffffffffffffffffffffffffffff1614801562002055575081848281548110620020415762002040620032f0565b5b906000526020600020906006020160010154145b156200224f5783600185805490506200206f91906200331f565b81548110620020835762002082620032f0565b5b9060005260206000209060060201848281548110620020a757620020a6620032f0565b5b90600052602060002090600602016000820160009054906101000a900473ffffffffffffffffffffffffffffffffffffffff168160000160006101000a81548173ffffffffffffffffffffffffffffffffffffffff021916908373ffffffffffffffffffffffffffffffffffffffff16021790555060018201548160010155600282015481600201556003820160009054906101000a900473ffffffffffffffffffffffffffffffffffffffff168160030160006101000a81548173ffffffffffffffffffffffffffffffffffffffff021916908373ffffffffffffffffffffffffffffffffffffffff160217905550600482015481600401556005820154816005015590505083805480620021c257620021c16200335a565b5b6001900381819060005260206000209060060201600080820160006101000a81549073ffffffffffffffffffffffffffffffffffffffff0219169055600182016000905560028201600090556003820160006101000a81549073ffffffffffffffffffffffffffffffffffffffff021916905560048201600090556005820160009055505090556200225d565b808060010191505062001f9f565b50505050565b60005b848054905081101562002362578373ffffffffffffffffffffffffffffffffffffffff16858281548110620022a0576200229f620032f0565b5b906000526020600020906006020160000160009054906101000a900473ffffffffffffffffffffffffffffffffffffffff1673ffffffffffffffffffffffffffffffffffffffff161480156200231c575082858281548110620023085762002307620032f0565b5b906000526020600020906006020160010154145b15620023545781858281548110620023395762002338620032f0565b5b90600052602060002090600602016002018190555062002362565b808060010191505062002266565b5050505050565b612a12806200338a83390190565b6000604051905090565b600080fd5b600080fd5b600073ffffffffffffffffffffffffffffffffffffffff82169050919050565b6000620023b8826200238b565b9050919050565b620023ca81620023ab565b8114620023d657600080fd5b50565b600081359050620023ea81620023bf565b92915050565b6000819050919050565b6200240581620023f0565b81146200241157600080fd5b50565b6000813590506200242581620023fa565b92915050565b600080fd5b600080fd5b600080fd5b60008083601f8401126200245357620024526200242b565b5b8235905067ffffffffffffffff81111562002473576200247262002430565b5b60208301915083600182028301111562002492576200249162002435565b5b9250929050565b600080600080600060808688031215620024b857620024b762002381565b5b6000620024c888828901620023d9565b9550506020620024db88828901620023d9565b9450506040620024ee8882890162002414565b935050606086013567ffffffffffffffff81111562002512576200251162002386565b5b62002520888289016200243a565b92509250509295509295909350565b60007fffffffff0000000000000000000000000000000000000000000000000000000082169050919050565b62002566816200252f565b82525050565b60006020820190506200258360008301846200255b565b92915050565b600060208284031215620025a257620025a162002381565b5b6000620025b284828501620023d9565b91505092915050565b600081519050919050565b600082825260208201905092915050565b6000819050602082019050919050565b620025f281620023ab565b82525050565b6200260381620023f0565b82525050565b60c082016000820151620026216000850182620025e7565b506020820151620026366020850182620025f8565b5060408201516200264b6040850182620025f8565b506060820151620026606060850182620025e7565b506080820151620026756080850182620025f8565b5060a08201516200268a60a0850182620025f8565b50505050565b60006200269e838362002609565b60c08301905092915050565b6000602082019050919050565b6000620026c482620025bb565b620026d08185620025c6565b9350620026dd83620025d7565b8060005b8381101562002714578151620026f8888262002690565b97506200270583620026aa565b925050600181019050620026e1565b5085935050505092915050565b600060208201905081810360008301526200273d8184620026b7565b905092915050565b6000602082840312156200275e576200275d62002381565b5b60006200276e8482850162002414565b91505092915050565b6200278281620023ab565b82525050565b6200279381620023f0565b82525050565b600060c082019050620027b0600083018962002777565b620027bf602083018862002788565b620027ce604083018762002788565b620027dd606083018662002777565b620027ec608083018562002788565b620027fb60a083018462002788565b979650505050505050565b60006020820190506200281d600083018462002788565b92915050565b600080fd5b6000601f19601f8301169050919050565b7f4e487b7100000000000000000000000000000000000000000000000000000000600052604160045260246000fd5b620028738262002828565b810181811067ffffffffffffffff8211171562002895576200289462002839565b5b80604052505050565b6000620028aa62002377565b9050620028b8828262002868565b919050565b600067ffffffffffffffff821115620028db57620028da62002839565b5b620028e68262002828565b9050602081019050919050565b82818337600083830152505050565b6000620029196200291384620028bd565b6200289e565b90508281526020810184848401111562002938576200293762002823565b5b62002945848285620028f3565b509392505050565b600082601f8301126200296557620029646200242b565b5b81356200297784826020860162002902565b91505092915050565b600080604083850312156200299a576200299962002381565b5b600083013567ffffffffffffffff811115620029bb57620029ba62002386565b5b620029c9858286016200294d565b925050602083013567ffffffffffffffff811115620029ed57620029ec62002386565b5b620029fb858286016200294d565b9150509250929050565b6000819050919050565b600062002a3062002a2a62002a24846200238b565b62002a05565b6200238b565b9050919050565b600062002a448262002a0f565b9050919050565b600062002a588262002a37565b9050919050565b62002a6a8162002a4b565b82525050565b600060208201905062002a87600083018462002a5f565b92915050565b6000806040838503121562002aa75762002aa662002381565b5b600062002ab785828601620023d9565b925050602062002aca8582860162002414565b9150509250929050565b60008115159050919050565b62002aeb8162002ad4565b811462002af757600080fd5b50565b60008135905062002b0b8162002ae0565b92915050565b600080600080600060a0868803121562002b305762002b2f62002381565b5b600062002b4088828901620023d9565b955050602062002b538882890162002414565b945050604062002b668882890162002414565b935050606062002b798882890162002414565b925050608062002b8c8882890162002afa565b9150509295509295909350565b60006020828403121562002bb25762002bb162002381565b5b600082013567ffffffffffffffff81111562002bd35762002bd262002386565b5b62002be1848285016200294d565b91505092915050565b600060208201905062002c01600083018462002777565b92915050565b62002c128162002ad4565b82525050565b600060208201905062002c2f600083018462002c07565b92915050565b600062002c428262002a0f565b9050919050565b600062002c568262002c35565b9050919050565b62002c688162002c49565b82525050565b600060208201905062002c85600083018462002c5d565b92915050565b600067ffffffffffffffff82169050919050565b62002caa8162002c8b565b811462002cb657600080fd5b50565b60008135905062002cca8162002c9f565b92915050565b600080600080600060a0868803121562002cef5762002cee62002381565b5b600062002cff88828901620023d9565b955050602062002d128882890162002414565b945050604062002d258882890162002cb9565b935050606062002d3888828901620023d9565b925050608062002d4b8882890162002afa565b9150509295509295909350565b60008060006060848603121562002d745762002d7362002381565b5b600062002d8486828701620023d9565b935050602062002d978682870162002414565b925050604062002daa8682870162002414565b9150509250925092565b600082825260208201905092915050565b7f4f6e6c792077686974656c6973746564206164647265737365732063616e206360008201527f616c6c20746869732066756e6374696f6e2e0000000000000000000000000000602082015250565b600062002e2360328362002db4565b915062002e308262002dc5565b604082019050919050565b6000602082019050818103600083015262002e568162002e14565b9050919050565b600081519050919050565b600081905092915050565b60005b8381101562002e9357808201518184015260208101905062002e76565b60008484015250505050565b600062002eac8262002e5d565b62002eb8818562002e68565b935062002eca81856020860162002e73565b80840191505092915050565b600062002ee4828562002e9f565b915062002ef2828462002e9f565b91508190509392505050565b600062002f0b8262002e5d565b62002f17818562002db4565b935062002f2981856020860162002e73565b62002f348162002828565b840191505092915050565b6000604082019050818103600083015262002f5b818562002efe565b9050818103602083015262002f71818462002efe565b90509392505050565b600062002f88828462002e9f565b915081905092915050565b600060408201905062002faa600083018562002777565b62002fb9602083018462002788565b9392505050565b600060608201905062002fd7600083018662002777565b62002fe6602083018562002777565b62002ff5604083018462002788565b949350505050565b600060608201905062003014600083018662002788565b62003023602083018562002788565b62003032604083018462002788565b949350505050565b7f43757272656e74204e465420686173206e6f206c697374656421000000000000600082015250565b600062003072601a8362002db4565b91506200307f826200303a565b602082019050919050565b60006020820190508181036000830152620030a58162003063565b9050919050565b7f796f752068617665206e6f2070726f6365656473210000000000000000000000600082015250565b6000620030e460158362002db4565b9150620030f182620030ac565b602082019050919050565b600060208201905081810360008301526200311781620030d5565b9050919050565b6000815190506200312f8162002ae0565b92915050565b6000602082840312156200314e576200314d62002381565b5b60006200315e848285016200311e565b91505092915050565b7f4e487b7100000000000000000000000000000000000000000000000000000000600052601160045260246000fd5b6000620031a382620023f0565b9150620031b083620023f0565b9250828201905080821115620031cb57620031ca62003167565b5b92915050565b620031dc8162002c8b565b82525050565b600081519050919050565b600082825260208201905092915050565b60006200320b82620031e2565b620032178185620031ed565b93506200322981856020860162002e73565b620032348162002828565b840191505092915050565b6000606082019050620032566000830186620031d1565b62003265602083018562002777565b8181036040830152620032798184620031fe565b9050949350505050565b6000819050919050565b620032988162003283565b8114620032a457600080fd5b50565b600081519050620032b8816200328d565b92915050565b600060208284031215620032d757620032d662002381565b5b6000620032e784828501620032a7565b91505092915050565b7f4e487b7100000000000000000000000000000000000000000000000000000000600052603260045260246000fd5b60006200332c82620023f0565b91506200333983620023f0565b925082820390508181111562003354576200335362003167565b5b92915050565b7f4e487b7100000000000000000000000000000000000000000000000000000000600052603160045260246000fdfe60806040523480156200001157600080fd5b5060405162002a1238038062002a128339818101604052810190620000379190620001fa565b818181600090816200004a9190620004ca565b5080600190816200005c9190620004ca565b5050505050620005b1565b6000604051905090565b600080fd5b600080fd5b600080fd5b600080fd5b6000601f19601f8301169050919050565b7f4e487b7100000000000000000000000000000000000000000000000000000000600052604160045260246000fd5b620000d08262000085565b810181811067ffffffffffffffff82111715620000f257620000f162000096565b5b80604052505050565b60006200010762000067565b9050620001158282620000c5565b919050565b600067ffffffffffffffff82111562000138576200013762000096565b5b620001438262000085565b9050602081019050919050565b60005b838110156200017057808201518184015260208101905062000153565b60008484015250505050565b6000620001936200018d846200011a565b620000fb565b905082815260208101848484011115620001b257620001b162000080565b5b620001bf84828562000150565b509392505050565b600082601f830112620001df57620001de6200007b565b5b8151620001f18482602086016200017c565b91505092915050565b6000806040838503121562000214576200021362000071565b5b600083015167ffffffffffffffff81111562000235576200023462000076565b5b6200024385828601620001c7565b925050602083015167ffffffffffffffff81111562000267576200026662000076565b5b6200027585828601620001c7565b9150509250929050565b600081519050919050565b7f4e487b7100000000000000000000000000000000000000000000000000000000600052602260045260246000fd5b60006002820490506001821680620002d257607f821691505b602082108103620002e857620002e76200028a565b5b50919050565b60008190508160005260206000209050919050565b60006020601f8301049050919050565b600082821b905092915050565b600060088302620003527fffffffffffffffffffffffffffffffffffffffffffffffffffffffffffffffff8262000313565b6200035e868362000313565b95508019841693508086168417925050509392505050565b6000819050919050565b6000819050919050565b6000620003ab620003a56200039f8462000376565b62000380565b62000376565b9050919050565b6000819050919050565b620003c7836200038a565b620003df620003d682620003b2565b84845462000320565b825550505050565b600090565b620003f6620003e7565b62000403818484620003bc565b505050565b5b818110156200042b576200041f600082620003ec565b60018101905062000409565b5050565b601f8211156200047a576200044481620002ee565b6200044f8462000303565b810160208510156200045f578190505b620004776200046e8562000303565b83018262000408565b50505b505050565b600082821c905092915050565b60006200049f600019846008026200047f565b1980831691505092915050565b6000620004ba83836200048c565b9150826002028217905092915050565b620004d5826200027f565b67ffffffffffffffff811115620004f157620004f062000096565b5b620004fd8254620002b9565b6200050a8282856200042f565b600060209050601f8311600181146200054257600084156200052d578287015190505b620005398582620004ac565b865550620005a9565b601f1984166200055286620002ee565b60005b828110156200057c5784890151825560018201915060208501945060208101905062000555565b868310156200059c578489015162000598601f8916826200048c565b8355505b6001600288020188555050505b505050505050565b61245180620005c16000396000f3fe608060405234801561001057600080fd5b50600436106100f55760003560e01c806370a0823111610097578063c754584911610066578063c754584914610282578063c87b56dd146102b2578063d082e381146102e2578063e985e9c514610300576100f5565b806370a08231146101fc57806395d89b411461022c578063a22cb4651461024a578063b88d4fde14610266576100f5565b8063095ea7b3116100d3578063095ea7b31461017857806323b872dd1461019457806342842e0e146101b05780636352211e146101cc576100f5565b806301ffc9a7146100fa57806306fdde031461012a578063081812fc14610148575b600080fd5b610114600480360381019061010f919061187e565b610330565b60405161012191906118c6565b60405180910390f35b610132610391565b60405161013f9190611971565b60405180910390f35b610162600480360381019061015d91906119c9565b610423565b60405161016f9190611a37565b60405180910390f35b610192600480360381019061018d9190611a7e565b61043f565b005b6101ae60048036038101906101a99190611abe565b610455565b005b6101ca60048036038101906101c59190611abe565b610557565b005b6101e660048036038101906101e191906119c9565b610577565b6040516101f39190611a37565b60405180910390f35b61021660048036038101906102119190611b11565b610589565b6040516102239190611b4d565b60405180910390f35b610234610643565b6040516102419190611971565b60405180910390f35b610264600480360381019061025f9190611b94565b6106d5565b005b610280600480360381019061027b9190611d09565b6106eb565b005b61029c60048036038101906102979190611e2d565b610708565b6040516102a99190611b4d565b60405180910390f35b6102cc60048036038101906102c791906119c9565b61077d565b6040516102d99190611971565b60405180910390f35b6102ea610890565b6040516102f79190611b4d565b60405180910390f35b61031a60048036038101906103159190611e76565b610896565b60405161032791906118c6565b60405180910390f35b6000634906490660e01b7bffffffffffffffffffffffffffffffffffffffffffffffffffffffff1916827bffffffffffffffffffffffffffffffffffffffffffffffffffffffff1916148061038a57506103898261092a565b5b9050919050565b6060600080546103a090611ee5565b80601f01602080910402602001604051908101604052809291908181526020018280546103cc90611ee5565b80156104195780601f106103ee57610100808354040283529160200191610419565b820191906000526020600020905b8154815290600101906020018083116103fc57829003601f168201915b5050505050905090565b600061042e82610a0c565b5061043882610a94565b9050919050565b610451828261044c610ad1565b610ad9565b5050565b600073ffffffffffffffffffffffffffffffffffffffff168273ffffffffffffffffffffffffffffffffffffffff16036104c75760006040517f64a0ae920000000000000000000000000000000000000000000000000000000081526004016104be9190611a37565b60405180910390fd5b60006104db83836104d6610ad1565b610aeb565b90508373ffffffffffffffffffffffffffffffffffffffff168173ffffffffffffffffffffffffffffffffffffffff1614610551578382826040517f64283d7b00000000000000000000000000000000000000000000000000000000815260040161054893929190611f16565b60405180910390fd5b50505050565b610572838383604051806020016040528060008152506106eb565b505050565b600061058282610a0c565b9050919050565b60008073ffffffffffffffffffffffffffffffffffffffff168273ffffffffffffffffffffffffffffffffffffffff16036105fc5760006040517f89c62b640000000000000000000000000000000000000000000000000000000081526004016105f39190611a37565b60405180910390fd5b600360008373ffffffffffffffffffffffffffffffffffffffff1673ffffffffffffffffffffffffffffffffffffffff168152602001908152602001600020549050919050565b60606001805461065290611ee5565b80601f016020809104026020016040519081016040528092919081815260200182805461067e90611ee5565b80156106cb5780601f106106a0576101008083540402835291602001916106cb565b820191906000526020600020905b8154815290600101906020018083116106ae57829003601f168201915b5050505050905090565b6106e76106e0610ad1565b8383610d05565b5050565b6106f6848484610455565b61070284848484610e74565b50505050565b60006107163360075461102b565b61072260075483611124565b7f899b99f6c26ce7a463fc72a3a36ae78b414dae9cfa6e88e8580ec708e70f30b0336007548460405161075793929190611f4d565b60405180910390a16007600081548092919061077290611fba565b919050559050919050565b606061078882610a0c565b5060006006600084815260200190815260200160002080546107a990611ee5565b80601f01602080910402602001604051908101604052809291908181526020018280546107d590611ee5565b80156108225780601f106107f757610100808354040283529160200191610822565b820191906000526020600020905b81548152906001019060200180831161080557829003601f168201915b505050505090506000610833611180565b9050600081510361084857819250505061088b565b60008251111561087d57808260405160200161086592919061203e565b6040516020818303038152906040529250505061088b565b61088684611197565b925050505b919050565b60075481565b6000600560008473ffffffffffffffffffffffffffffffffffffffff1673ffffffffffffffffffffffffffffffffffffffff16815260200190815260200160002060008373ffffffffffffffffffffffffffffffffffffffff1673ffffffffffffffffffffffffffffffffffffffff16815260200190815260200160002060009054906101000a900460ff16905092915050565b60007f80ac58cd000000000000000000000000000000000000000000000000000000007bffffffffffffffffffffffffffffffffffffffffffffffffffffffff1916827bffffffffffffffffffffffffffffffffffffffffffffffffffffffff191614806109f557507f5b5e139f000000000000000000000000000000000000000000000000000000007bffffffffffffffffffffffffffffffffffffffffffffffffffffffff1916827bffffffffffffffffffffffffffffffffffffffffffffffffffffffff1916145b80610a055750610a0482611200565b5b9050919050565b600080610a188361126a565b9050600073ffffffffffffffffffffffffffffffffffffffff168173ffffffffffffffffffffffffffffffffffffffff1603610a8b57826040517f7e273289000000000000000000000000000000000000000000000000000000008152600401610a829190611b4d565b60405180910390fd5b80915050919050565b60006004600083815260200190815260200160002060009054906101000a900473ffffffffffffffffffffffffffffffffffffffff169050919050565b600033905090565b610ae683838360016112a7565b505050565b600080610af78461126a565b9050600073ffffffffffffffffffffffffffffffffffffffff168373ffffffffffffffffffffffffffffffffffffffff1614610b3957610b3881848661146c565b5b600073ffffffffffffffffffffffffffffffffffffffff168173ffffffffffffffffffffffffffffffffffffffff1614610bca57610b7b6000856000806112a7565b6001600360008373ffffffffffffffffffffffffffffffffffffffff1673ffffffffffffffffffffffffffffffffffffffff168152602001908152602001600020600082825403925050819055505b600073ffffffffffffffffffffffffffffffffffffffff168573ffffffffffffffffffffffffffffffffffffffff1614610c4d576001600360008773ffffffffffffffffffffffffffffffffffffffff1673ffffffffffffffffffffffffffffffffffffffff168152602001908152602001600020600082825401925050819055505b846002600086815260200190815260200160002060006101000a81548173ffffffffffffffffffffffffffffffffffffffff021916908373ffffffffffffffffffffffffffffffffffffffff160217905550838573ffffffffffffffffffffffffffffffffffffffff168273ffffffffffffffffffffffffffffffffffffffff167fddf252ad1be2c89b69c2b068fc378daa952ba7f163c4a11628f55a4df523b3ef60405160405180910390a4809150509392505050565b600073ffffffffffffffffffffffffffffffffffffffff168273ffffffffffffffffffffffffffffffffffffffff1603610d7657816040517f5b08ba18000000000000000000000000000000000000000000000000000000008152600401610d6d9190611a37565b60405180910390fd5b80600560008573ffffffffffffffffffffffffffffffffffffffff1673ffffffffffffffffffffffffffffffffffffffff16815260200190815260200160002060008473ffffffffffffffffffffffffffffffffffffffff1673ffffffffffffffffffffffffffffffffffffffff16815260200190815260200160002060006101000a81548160ff0219169083151502179055508173ffffffffffffffffffffffffffffffffffffffff168373ffffffffffffffffffffffffffffffffffffffff167f17307eab39ab6107e8899845ad3d59bd9653f200f220920489ca2b5937696c3183604051610e6791906118c6565b60405180910390a3505050565b60008373ffffffffffffffffffffffffffffffffffffffff163b1115611025578273ffffffffffffffffffffffffffffffffffffffff1663150b7a02610eb8610ad1565b8685856040518563ffffffff1660e01b8152600401610eda94939291906120b7565b6020604051808303816000875af1925050508015610f1657506040513d601f19601f82011682018060405250810190610f139190612118565b60015b610f9a573d8060008114610f46576040519150601f19603f3d011682016040523d82523d6000602084013e610f4b565b606091505b506000815103610f9257836040517f64a0ae92000000000000000000000000000000000000000000000000000000008152600401610f899190611a37565b60405180910390fd5b805181602001fd5b63150b7a0260e01b7bffffffffffffffffffffffffffffffffffffffffffffffffffffffff1916817bffffffffffffffffffffffffffffffffffffffffffffffffffffffff19161461102357836040517f64a0ae9200000000000000000000000000000000000000000000000000000000815260040161101a9190611a37565b60405180910390fd5b505b50505050565b600073ffffffffffffffffffffffffffffffffffffffff168273ffffffffffffffffffffffffffffffffffffffff160361109d5760006040517f64a0ae920000000000000000000000000000000000000000000000000000000081526004016110949190611a37565b60405180910390fd5b60006110ab83836000610aeb565b9050600073ffffffffffffffffffffffffffffffffffffffff168173ffffffffffffffffffffffffffffffffffffffff161461111f5760006040517f73c6ac6e0000000000000000000000000000000000000000000000000000000081526004016111169190611a37565b60405180910390fd5b505050565b8060066000848152602001908152602001600020908161114491906122f1565b507ff8e1a15aba9398e019f0b49df1a4fde98ee17ae345cb5f6b5e2c27f5033e8ce7826040516111749190611b4d565b60405180910390a15050565b606060405180602001604052806000815250905090565b60606111a282610a0c565b5060006111ad611180565b905060008151116111cd57604051806020016040528060008152506111f8565b806111d784611530565b6040516020016111e892919061203e565b6040516020818303038152906040525b915050919050565b60007f01ffc9a7000000000000000000000000000000000000000000000000000000007bffffffffffffffffffffffffffffffffffffffffffffffffffffffff1916827bffffffffffffffffffffffffffffffffffffffffffffffffffffffff1916149050919050565b60006002600083815260200190815260200160002060009054906101000a900473ffffffffffffffffffffffffffffffffffffffff169050919050565b80806112e05750600073ffffffffffffffffffffffffffffffffffffffff168273ffffffffffffffffffffffffffffffffffffffff1614155b156114145760006112f084610a0c565b9050600073ffffffffffffffffffffffffffffffffffffffff168373ffffffffffffffffffffffffffffffffffffffff161415801561135b57508273ffffffffffffffffffffffffffffffffffffffff168173ffffffffffffffffffffffffffffffffffffffff1614155b801561136e575061136c8184610896565b155b156113b057826040517fa9fbf51f0000000000000000000000000000000000000000000000000000000081526004016113a79190611a37565b60405180910390fd5b811561141257838573ffffffffffffffffffffffffffffffffffffffff168273ffffffffffffffffffffffffffffffffffffffff167f8c5be1e5ebec7d5bd14f71427d1e84f3dd0314c0f7b2291e5b200ac8c7c3b92560405160405180910390a45b505b836004600085815260200190815260200160002060006101000a81548173ffffffffffffffffffffffffffffffffffffffff021916908373ffffffffffffffffffffffffffffffffffffffff16021790555050505050565b6114778383836115fe565b61152b57600073ffffffffffffffffffffffffffffffffffffffff168373ffffffffffffffffffffffffffffffffffffffff16036114ec57806040517f7e2732890000000000000000000000000000000000000000000000000000000081526004016114e39190611b4d565b60405180910390fd5b81816040517f177e802f0000000000000000000000000000000000000000000000000000000081526004016115229291906123c3565b60405180910390fd5b505050565b60606000600161153f846116bf565b01905060008167ffffffffffffffff81111561155e5761155d611bde565b5b6040519080825280601f01601f1916602001820160405280156115905781602001600182028036833780820191505090505b509050600082602001820190505b6001156115f3578080600190039150507f3031323334353637383961626364656600000000000000000000000000000000600a86061a8153600a85816115e7576115e66123ec565b5b0494506000850361159e575b819350505050919050565b60008073ffffffffffffffffffffffffffffffffffffffff168373ffffffffffffffffffffffffffffffffffffffff16141580156116b657508273ffffffffffffffffffffffffffffffffffffffff168473ffffffffffffffffffffffffffffffffffffffff16148061167757506116768484610896565b5b806116b557508273ffffffffffffffffffffffffffffffffffffffff1661169d83610a94565b73ffffffffffffffffffffffffffffffffffffffff16145b5b90509392505050565b600080600090507a184f03e93ff9f4daa797ed6e38ed64bf6a1f010000000000000000831061171d577a184f03e93ff9f4daa797ed6e38ed64bf6a1f0100000000000000008381611713576117126123ec565b5b0492506040810190505b6d04ee2d6d415b85acef8100000000831061175a576d04ee2d6d415b85acef810000000083816117505761174f6123ec565b5b0492506020810190505b662386f26fc10000831061178957662386f26fc10000838161177f5761177e6123ec565b5b0492506010810190505b6305f5e10083106117b2576305f5e10083816117a8576117a76123ec565b5b0492506008810190505b61271083106117d75761271083816117cd576117cc6123ec565b5b0492506004810190505b606483106117fa57606483816117f0576117ef6123ec565b5b0492506002810190505b600a8310611809576001810190505b80915050919050565b6000604051905090565b600080fd5b600080fd5b60007fffffffff0000000000000000000000000000000000000000000000000000000082169050919050565b61185b81611826565b811461186657600080fd5b50565b60008135905061187881611852565b92915050565b6000602082840312156118945761189361181c565b5b60006118a284828501611869565b91505092915050565b60008115159050919050565b6118c0816118ab565b82525050565b60006020820190506118db60008301846118b7565b92915050565b600081519050919050565b600082825260208201905092915050565b60005b8381101561191b578082015181840152602081019050611900565b60008484015250505050565b6000601f19601f8301169050919050565b6000611943826118e1565b61194d81856118ec565b935061195d8185602086016118fd565b61196681611927565b840191505092915050565b6000602082019050818103600083015261198b8184611938565b905092915050565b6000819050919050565b6119a681611993565b81146119b157600080fd5b50565b6000813590506119c38161199d565b92915050565b6000602082840312156119df576119de61181c565b5b60006119ed848285016119b4565b91505092915050565b600073ffffffffffffffffffffffffffffffffffffffff82169050919050565b6000611a21826119f6565b9050919050565b611a3181611a16565b82525050565b6000602082019050611a4c6000830184611a28565b92915050565b611a5b81611a16565b8114611a6657600080fd5b50565b600081359050611a7881611a52565b92915050565b60008060408385031215611a9557611a9461181c565b5b6000611aa385828601611a69565b9250506020611ab4858286016119b4565b9150509250929050565b600080600060608486031215611ad757611ad661181c565b5b6000611ae586828701611a69565b9350506020611af686828701611a69565b9250506040611b07868287016119b4565b9150509250925092565b600060208284031215611b2757611b2661181c565b5b6000611b3584828501611a69565b91505092915050565b611b4781611993565b82525050565b6000602082019050611b626000830184611b3e565b92915050565b611b71816118ab565b8114611b7c57600080fd5b50565b600081359050611b8e81611b68565b92915050565b60008060408385031215611bab57611baa61181c565b5b6000611bb985828601611a69565b9250506020611bca85828601611b7f565b9150509250929050565b600080fd5b600080fd5b7f4e487b7100000000000000000000000000000000000000000000000000000000600052604160045260246000fd5b611c1682611927565b810181811067ffffffffffffffff82111715611c3557611c34611bde565b5b80604052505050565b6000611c48611812565b9050611c548282611c0d565b919050565b600067ffffffffffffffff821115611c7457611c73611bde565b5b611c7d82611927565b9050602081019050919050565b82818337600083830152505050565b6000611cac611ca784611c59565b611c3e565b905082815260208101848484011115611cc857611cc7611bd9565b5b611cd3848285611c8a565b509392505050565b600082601f830112611cf057611cef611bd4565b5b8135611d00848260208601611c99565b91505092915050565b60008060008060808587031215611d2357611d2261181c565b5b6000611d3187828801611a69565b9450506020611d4287828801611a69565b9350506040611d53878288016119b4565b925050606085013567ffffffffffffffff811115611d7457611d73611821565b5b611d8087828801611cdb565b91505092959194509250565b600067ffffffffffffffff821115611da757611da6611bde565b5b611db082611927565b9050602081019050919050565b6000611dd0611dcb84611d8c565b611c3e565b905082815260208101848484011115611dec57611deb611bd9565b5b611df7848285611c8a565b509392505050565b600082601f830112611e1457611e13611bd4565b5b8135611e24848260208601611dbd565b91505092915050565b600060208284031215611e4357611e4261181c565b5b600082013567ffffffffffffffff811115611e6157611e60611821565b5b611e6d84828501611dff565b91505092915050565b60008060408385031215611e8d57611e8c61181c565b5b6000611e9b85828601611a69565b9250506020611eac85828601611a69565b9150509250929050565b7f4e487b7100000000000000000000000000000000000000000000000000000000600052602260045260246000fd5b60006002820490506001821680611efd57607f821691505b602082108103611f1057611f0f611eb6565b5b50919050565b6000606082019050611f2b6000830186611a28565b611f386020830185611b3e565b611f456040830184611a28565b949350505050565b6000606082019050611f626000830186611a28565b611f6f6020830185611b3e565b8181036040830152611f818184611938565b9050949350505050565b7f4e487b7100000000000000000000000000000000000000000000000000000000600052601160045260246000fd5b6000611fc582611993565b91507fffffffffffffffffffffffffffffffffffffffffffffffffffffffffffffffff8203611ff757611ff6611f8b565b5b600182019050919050565b600081905092915050565b6000612018826118e1565b6120228185612002565b93506120328185602086016118fd565b80840191505092915050565b600061204a828561200d565b9150612056828461200d565b91508190509392505050565b600081519050919050565b600082825260208201905092915050565b600061208982612062565b612093818561206d565b93506120a38185602086016118fd565b6120ac81611927565b840191505092915050565b60006080820190506120cc6000830187611a28565b6120d96020830186611a28565b6120e66040830185611b3e565b81810360608301526120f8818461207e565b905095945050505050565b60008151905061211281611852565b92915050565b60006020828403121561212e5761212d61181c565b5b600061213c84828501612103565b91505092915050565b60008190508160005260206000209050919050565b60006020601f8301049050919050565b600082821b905092915050565b6000600883026121a77fffffffffffffffffffffffffffffffffffffffffffffffffffffffffffffffff8261216a565b6121b1868361216a565b95508019841693508086168417925050509392505050565b6000819050919050565b60006121ee6121e96121e484611993565b6121c9565b611993565b9050919050565b6000819050919050565b612208836121d3565b61221c612214826121f5565b848454612177565b825550505050565b600090565b612231612224565b61223c8184846121ff565b505050565b5b8181101561226057612255600082612229565b600181019050612242565b5050565b601f8211156122a55761227681612145565b61227f8461215a565b8101602085101561228e578190505b6122a261229a8561215a565b830182612241565b50505b505050565b600082821c905092915050565b60006122c8600019846008026122aa565b1980831691505092915050565b60006122e183836122b7565b9150826002028217905092915050565b6122fa826118e1565b67ffffffffffffffff81111561231357612312611bde565b5b61231d8254611ee5565b612328828285612264565b600060209050601f83116001811461235b5760008415612349578287015190505b61235385826122d5565b8655506123bb565b601f19841661236986612145565b60005b828110156123915784890151825560018201915060208501945060208101905061236c565b868310156123ae57848901516123aa601f8916826122b7565b8355505b6001600288020188555050505b505050505050565b60006040820190506123d86000830185611a28565b6123e56020830184611b3e565b9392505050565b7f4e487b7100000000000000000000000000000000000000000000000000000000600052601260045260246000fdfea2646970667358221220bb15ed3814fb175734b33a35af36d5238a6f09e2af22d93abf9086dae51e3b8d64736f6c63430008180033a26469706673582212209484f8e7d759d83622c73665f4457f05a6e0bda4bb205fb0d235072fc6c3860e64736f6c63430008180033",
  "linkReferences": {},
  "deployedLinkReferences": {}
}