{
  "_format": "hh-sol-artifact-1",
  "contractName": "NFTMarketPlace",
  "sourceName": "contracts/NFTMarketPlace.sol",
  "abi": [
    {
      "inputs": [
        {
          "internalType": "address",
          "name": "token",
          "type": "address"
        }
      ],
      "stateMutability": "nonpayable",
      "type": "constructor"
    },
    {
      "inputs": [
        {
          "internalType": "address",
          "name": "nftAddress",
          "type": "address"
        },
        {
          "internalType": "uint256",
          "name": "tokenId",
          "type": "uint256"
        }
      ],
      "name": "HasListed",
      "type": "error"
    },
    {
      "inputs": [
        {
          "internalType": "address",
          "name": "buyer",
          "type": "address"
        },
        {
          "internalType": "uint256",
          "name": "allowance",
          "type": "uint256"
        }
      ],
      "name": "InsufficientApproveLimit",
      "type": "error"
    },
    {
      "inputs": [
        {
          "internalType": "address",
          "name": "buyer",
          "type": "address"
        },
        {
          "internalType": "uint256",
          "name": "balance",
          "type": "uint256"
        },
        {
          "internalType": "uint256",
          "name": "price",
          "type": "uint256"
        }
      ],
      "name": "InsufficientBalance",
      "type": "error"
    },
    {
      "inputs": [
        {
          "internalType": "bytes32",
          "name": "requestId",
          "type": "bytes32"
        }
      ],
      "name": "InvalidRequest",
      "type": "error"
    },
    {
      "inputs": [
        {
          "internalType": "address",
          "name": "nftAddress",
          "type": "address"
        },
        {
          "internalType": "uint256",
          "name": "tokenId",
          "type": "uint256"
        }
      ],
      "name": "NotApproved",
      "type": "error"
    },
    {
      "anonymous": false,
      "inputs": [
        {
          "indexed": true,
          "internalType": "address",
          "name": "buyer",
          "type": "address"
        },
        {
          "indexed": true,
          "internalType": "address",
          "name": "nftAddress",
          "type": "address"
        },
        {
          "indexed": true,
          "internalType": "uint256",
          "name": "tokenId",
          "type": "uint256"
        },
        {
          "indexed": false,
          "internalType": "uint256",
          "name": "price",
          "type": "uint256"
        }
      ],
      "name": "BuyItem",
      "type": "event"
    },
    {
      "anonymous": false,
      "inputs": [
        {
          "indexed": true,
          "internalType": "address",
          "name": "seller",
          "type": "address"
        },
        {
          "indexed": true,
          "internalType": "address",
          "name": "nftAddress",
          "type": "address"
        },
        {
          "indexed": true,
          "internalType": "uint256",
          "name": "tokenId",
          "type": "uint256"
        }
      ],
      "name": "CancelListing",
      "type": "event"
    },
    {
      "anonymous": false,
      "inputs": [
        {
          "indexed": true,
          "internalType": "address",
          "name": "seller",
          "type": "address"
        },
        {
          "indexed": true,
          "internalType": "address",
          "name": "nftAddress",
          "type": "address"
        },
        {
          "indexed": true,
          "internalType": "uint256",
          "name": "tokenId",
          "type": "uint256"
        }
      ],
      "name": "ItemListed",
      "type": "event"
    },
    {
      "anonymous": false,
      "inputs": [
        {
          "indexed": true,
          "internalType": "address",
          "name": "nftAddress",
          "type": "address"
        },
        {
          "indexed": false,
          "internalType": "string",
          "name": "name",
          "type": "string"
        },
        {
          "indexed": false,
          "internalType": "string",
          "name": "symbol",
          "type": "string"
        }
      ],
      "name": "NewNFTContractCreated",
      "type": "event"
    },
    {
      "anonymous": false,
      "inputs": [
        {
          "indexed": true,
          "internalType": "bytes32",
          "name": "requestId",
          "type": "bytes32"
        },
        {
          "indexed": true,
          "internalType": "address",
          "name": "nftAddress",
          "type": "address"
        },
        {
          "indexed": true,
          "internalType": "uint256",
          "name": "tokenId",
          "type": "uint256"
        }
      ],
      "name": "RequestPriceBegin",
      "type": "event"
    },
    {
      "anonymous": false,
      "inputs": [
        {
          "indexed": true,
          "internalType": "bytes32",
          "name": "requestId",
          "type": "bytes32"
        },
        {
          "indexed": false,
          "internalType": "uint256",
          "name": "price",
          "type": "uint256"
        }
      ],
      "name": "RequestPriceReceive",
      "type": "event"
    },
    {
      "anonymous": false,
      "inputs": [
        {
          "indexed": true,
          "internalType": "address",
          "name": "seller",
          "type": "address"
        },
        {
          "indexed": true,
          "internalType": "address",
          "name": "nftAddress",
          "type": "address"
        },
        {
          "indexed": true,
          "internalType": "uint256",
          "name": "tokenId",
          "type": "uint256"
        },
        {
          "indexed": false,
          "internalType": "uint256",
          "name": "price",
          "type": "uint256"
        }
      ],
      "name": "UpdateItem",
      "type": "event"
    },
    {
      "inputs": [],
      "name": "ASSET_NEXUS_TOKEN",
      "outputs": [
        {
          "internalType": "address",
          "name": "",
          "type": "address"
        }
      ],
      "stateMutability": "view",
      "type": "function"
    },
    {
      "inputs": [
        {
          "internalType": "address",
          "name": "_address",
          "type": "address"
        }
      ],
      "name": "addAddressToWhitelist",
      "outputs": [],
      "stateMutability": "nonpayable",
      "type": "function"
    },
    {
      "inputs": [
        {
          "internalType": "address",
          "name": "nftAddr",
          "type": "address"
        },
        {
          "internalType": "uint256",
          "name": "tokenId",
          "type": "uint256"
        }
      ],
      "name": "buyItem",
      "outputs": [],
      "stateMutability": "nonpayable",
      "type": "function"
    },
    {
      "inputs": [
        {
          "internalType": "address",
          "name": "nftAddr",
          "type": "address"
        },
        {
          "internalType": "uint256",
          "name": "tokenId",
          "type": "uint256"
        }
      ],
      "name": "cancelListing",
      "outputs": [],
      "stateMutability": "nonpayable",
      "type": "function"
    },
    {
      "inputs": [
        {
          "internalType": "string",
          "name": "name",
          "type": "string"
        },
        {
          "internalType": "string",
          "name": "symbol",
          "type": "string"
        }
      ],
      "name": "createAssetNexusNft",
      "outputs": [],
      "stateMutability": "nonpayable",
      "type": "function"
    },
    {
      "inputs": [
        {
          "internalType": "address",
          "name": "_owner",
          "type": "address"
        }
      ],
      "name": "getMyListing",
      "outputs": [
        {
          "components": [
            {
              "internalType": "address",
              "name": "nftAddr",
              "type": "address"
            },
            {
              "internalType": "uint256",
              "name": "tokenId",
              "type": "uint256"
            },
            {
              "internalType": "uint256",
              "name": "price",
              "type": "uint256"
            }
          ],
          "internalType": "struct NFTMarketPlace.MyListing[]",
          "name": "",
          "type": "tuple[]"
        }
      ],
      "stateMutability": "view",
      "type": "function"
    },
    {
      "inputs": [
        {
          "internalType": "address",
          "name": "nftAddr",
          "type": "address"
        },
        {
          "internalType": "uint256",
          "name": "tokenId",
          "type": "uint256"
        },
        {
          "internalType": "uint256",
          "name": "price",
          "type": "uint256"
        }
      ],
      "name": "listItem",
      "outputs": [],
      "stateMutability": "nonpayable",
      "type": "function"
    },
    {
      "inputs": [
        {
          "internalType": "address",
          "name": "",
          "type": "address"
        },
        {
          "internalType": "uint256",
          "name": "",
          "type": "uint256"
        }
      ],
      "name": "myListings",
      "outputs": [
        {
          "internalType": "address",
          "name": "nftAddr",
          "type": "address"
        },
        {
          "internalType": "uint256",
          "name": "tokenId",
          "type": "uint256"
        },
        {
          "internalType": "uint256",
          "name": "price",
          "type": "uint256"
        }
      ],
      "stateMutability": "view",
      "type": "function"
    },
    {
      "inputs": [
        {
          "internalType": "string",
          "name": "",
          "type": "string"
        }
      ],
      "name": "nftContractsByNames",
      "outputs": [
        {
          "internalType": "address",
          "name": "",
          "type": "address"
        }
      ],
      "stateMutability": "view",
      "type": "function"
    },
    {
      "inputs": [
        {
          "internalType": "address",
          "name": "",
          "type": "address"
        },
        {
          "internalType": "uint256",
          "name": "",
          "type": "uint256"
        }
      ],
      "name": "nftListings",
      "outputs": [
        {
          "internalType": "uint256",
          "name": "price",
          "type": "uint256"
        },
        {
          "internalType": "address",
          "name": "seller",
          "type": "address"
        }
      ],
      "stateMutability": "view",
      "type": "function"
    },
    {
      "inputs": [
        {
          "internalType": "address",
          "name": "operator",
          "type": "address"
        },
        {
          "internalType": "address",
          "name": "from",
          "type": "address"
        },
        {
          "internalType": "uint256",
          "name": "tokenId",
          "type": "uint256"
        },
        {
          "internalType": "bytes",
          "name": "data",
          "type": "bytes"
        }
      ],
      "name": "onERC721Received",
      "outputs": [
        {
          "internalType": "bytes4",
          "name": "",
          "type": "bytes4"
        }
      ],
      "stateMutability": "pure",
      "type": "function"
    },
    {
      "inputs": [
        {
          "internalType": "address",
          "name": "",
          "type": "address"
        }
      ],
      "name": "proceeds",
      "outputs": [
        {
          "internalType": "uint256",
          "name": "",
          "type": "uint256"
        }
      ],
      "stateMutability": "view",
      "type": "function"
    },
    {
      "inputs": [
        {
          "internalType": "address",
          "name": "_address",
          "type": "address"
        }
      ],
      "name": "removeAddressFromWhitelist",
      "outputs": [],
      "stateMutability": "nonpayable",
      "type": "function"
    },
    {
      "inputs": [
        {
          "internalType": "address",
          "name": "nftAddr",
          "type": "address"
        },
        {
          "internalType": "uint256",
          "name": "tokenId",
          "type": "uint256"
        },
        {
          "internalType": "uint256",
          "name": "newPrice",
          "type": "uint256"
        }
      ],
      "name": "updateListing",
      "outputs": [],
      "stateMutability": "nonpayable",
      "type": "function"
    },
    {
      "inputs": [
        {
          "internalType": "address",
          "name": "",
          "type": "address"
        }
      ],
      "name": "whitelist",
      "outputs": [
        {
          "internalType": "bool",
          "name": "",
          "type": "bool"
        }
      ],
      "stateMutability": "view",
      "type": "function"
    },
    {
      "inputs": [],
      "name": "withDrawProceeds",
      "outputs": [],
      "stateMutability": "nonpayable",
      "type": "function"
    }
  ],
  "bytecode": "0x60a06040523480156200001157600080fd5b506040516200562f3803806200562f8339818101604052810190620000379190620000dc565b8073ffffffffffffffffffffffffffffffffffffffff1660808173ffffffffffffffffffffffffffffffffffffffff1681525050506200010e565b600080fd5b600073ffffffffffffffffffffffffffffffffffffffff82169050919050565b6000620000a48262000077565b9050919050565b620000b68162000097565b8114620000c257600080fd5b50565b600081519050620000d681620000ab565b92915050565b600060208284031215620000f557620000f462000072565b5b60006200010584828501620000c5565b91505092915050565b6080516154f7620001386000396000818161079501528181610f24015261177501526154f76000f3fe60806040523480156200001157600080fd5b5060043610620001185760003560e01c80637b9417c811620000a5578063b2ddee06116200006f578063b2ddee061462000324578063c425a3211462000344578063c6890de5146200037c578063f772adf114620003885762000118565b80637b9417c8146200028e57806389bfd38f14620002ae5780639b19251a14620002ce5780639f37092a14620003045762000118565b80633cac454711620000e75780633cac454714620001df5780634309d59414620001ff5780634904ffd0146200023657806368fbd092146200026c5762000118565b8063150b7a02146200011d578063214523431462000153578063286dd3f5146200018957806335adde5414620001a9575b600080fd5b6200013b600480360381019062000135919062001e82565b620003a8565b6040516200014a919062001f55565b60405180910390f35b6200017160048036038101906200016b919062001f72565b620003bd565b604051620001809190620020cb565b60405180910390f35b620001a76004803603810190620001a1919062001f72565b620004c7565b005b620001c76004803603810190620001c1919062001f72565b62000522565b604051620001d6919062002100565b60405180910390f35b620001fd6004803603810190620001f791906200227a565b6200053a565b005b6200021d6004803603810190620002179190620022ff565b620006f9565b6040516200022d92919062002357565b60405180910390f35b6200025460048036038101906200024e919062002384565b6200074a565b604051620002639190620023d5565b60405180910390f35b6200027662000793565b604051620002859190620023d5565b60405180910390f35b620002ac6004803603810190620002a6919062001f72565b620007b7565b005b620002cc6004803603810190620002c69190620023f2565b62000812565b005b620002ec6004803603810190620002e6919062001f72565b62000d38565b604051620002fb91906200246b565b60405180910390f35b6200032260048036038101906200031c9190620022ff565b62000d58565b005b6200034260048036038101906200033c9190620022ff565b62001393565b005b6200036260048036038101906200035c9190620022ff565b6200163e565b604051620003739392919062002488565b60405180910390f35b62000386620016a6565b005b620003a66004803603810190620003a09190620023f2565b6200181a565b005b600063150b7a0260e01b905095945050505050565b6060600160008373ffffffffffffffffffffffffffffffffffffffff1673ffffffffffffffffffffffffffffffffffffffff168152602001908152602001600020805480602002602001604051908101604052809291908181526020016000905b82821015620004bc57838290600052602060002090600302016040518060600160405290816000820160009054906101000a900473ffffffffffffffffffffffffffffffffffffffff1673ffffffffffffffffffffffffffffffffffffffff1673ffffffffffffffffffffffffffffffffffffffff16815260200160018201548152602001600282015481525050815260200190600101906200041e565b505050509050919050565b6000600460008373ffffffffffffffffffffffffffffffffffffffff1673ffffffffffffffffffffffffffffffffffffffff16815260200190815260200160002060006101000a81548160ff02191690831515021790555050565b60036020528060005260406000206000915090505481565b600460003373ffffffffffffffffffffffffffffffffffffffff1673ffffffffffffffffffffffffffffffffffffffff16815260200190815260200160002060009054906101000a900460ff16620005c9576040517f08c379a0000000000000000000000000000000000000000000000000000000008152600401620005c0906200254c565b60405180910390fd5b60008282604051602001620005e0929190620025e7565b60405160208183030381529060405280519060200120905060008184846040516200060b9062001d52565b6200061892919062002650565b8190604051809103906000f590508015801562000639573d6000803e3d6000fd5b5090506000819050806002866040516200065491906200268b565b908152602001604051809103902060006101000a81548173ffffffffffffffffffffffffffffffffffffffff021916908373ffffffffffffffffffffffffffffffffffffffff1602179055508073ffffffffffffffffffffffffffffffffffffffff167f34222b7638939db0b8b07694798a0e33eb5c6cc50e7bafc23b83f9c6d6738fb18686604051620006ea92919062002650565b60405180910390a25050505050565b6000602052816000526040600020602052806000526040600020600091509150508060000154908060010160009054906101000a900473ffffffffffffffffffffffffffffffffffffffff16905082565b6002818051602081018201805184825260208301602085012081835280955050505050506000915054906101000a900473ffffffffffffffffffffffffffffffffffffffff1681565b7f000000000000000000000000000000000000000000000000000000000000000081565b6001600460008373ffffffffffffffffffffffffffffffffffffffff1673ffffffffffffffffffffffffffffffffffffffff16815260200190815260200160002060006101000a81548160ff02191690831515021790555050565b828260008290503373ffffffffffffffffffffffffffffffffffffffff168173ffffffffffffffffffffffffffffffffffffffff16636352211e846040518263ffffffff1660e01b81526004016200086b919062002100565b602060405180830381865afa15801562000889573d6000803e3d6000fd5b505050506040513d601f19601f82011682018060405250810190620008af9190620026bb565b73ffffffffffffffffffffffffffffffffffffffff161462000908576040517f08c379a0000000000000000000000000000000000000000000000000000000008152600401620008ff9062002763565b60405180910390fd5b600086905060008060008973ffffffffffffffffffffffffffffffffffffffff1673ffffffffffffffffffffffffffffffffffffffff1681526020019081526020016000206000888152602001908152602001600020600001541115620009aa5786866040517ff6854128000000000000000000000000000000000000000000000000000000008152600401620009a192919062002785565b60405180910390fd5b3073ffffffffffffffffffffffffffffffffffffffff168173ffffffffffffffffffffffffffffffffffffffff1663081812fc886040518263ffffffff1660e01b8152600401620009fc919062002100565b602060405180830381865afa15801562000a1a573d6000803e3d6000fd5b505050506040513d601f19601f8201168201806040525081019062000a409190620026bb565b73ffffffffffffffffffffffffffffffffffffffff161462000a9d5786866040517fce99e4c200000000000000000000000000000000000000000000000000000000815260040162000a9492919062002785565b60405180910390fd5b8073ffffffffffffffffffffffffffffffffffffffff166342842e0e3330896040518463ffffffff1660e01b815260040162000adc93929190620027b2565b600060405180830381600087803b15801562000af757600080fd5b505af115801562000b0c573d6000803e3d6000fd5b5050505060405180604001604052808681526020013373ffffffffffffffffffffffffffffffffffffffff168152506000808973ffffffffffffffffffffffffffffffffffffffff1673ffffffffffffffffffffffffffffffffffffffff16815260200190815260200160002060008881526020019081526020016000206000820151816000015560208201518160010160006101000a81548173ffffffffffffffffffffffffffffffffffffffff021916908373ffffffffffffffffffffffffffffffffffffffff160217905550905050600160003373ffffffffffffffffffffffffffffffffffffffff1673ffffffffffffffffffffffffffffffffffffffff16815260200190815260200160002060405180606001604052808973ffffffffffffffffffffffffffffffffffffffff16815260200188815260200187815250908060018154018082558091505060019003906000526020600020906003020160009091909190915060008201518160000160006101000a81548173ffffffffffffffffffffffffffffffffffffffff021916908373ffffffffffffffffffffffffffffffffffffffff16021790555060208201518160010155604082015181600201555050858773ffffffffffffffffffffffffffffffffffffffff163373ffffffffffffffffffffffffffffffffffffffff167fe664fba7e620635adc11289eccf06ecb889c3875d377d16291a5d77292f6309160405160405180910390a450505050505050565b60046020528060005260406000206000915054906101000a900460ff1681565b818160008060008473ffffffffffffffffffffffffffffffffffffffff1673ffffffffffffffffffffffffffffffffffffffff1681526020019081526020016000206000838152602001908152602001600020604051806040016040529081600082015481526020016001820160009054906101000a900473ffffffffffffffffffffffffffffffffffffffff1673ffffffffffffffffffffffffffffffffffffffff1673ffffffffffffffffffffffffffffffffffffffff16815250509050600081600001511162000e62576040517f08c379a000000000000000000000000000000000000000000000000000000000815260040162000e59906200283f565b60405180910390fd5b60008060008773ffffffffffffffffffffffffffffffffffffffff1673ffffffffffffffffffffffffffffffffffffffff1681526020019081526020016000206000868152602001908152602001600020604051806040016040529081600082015481526020016001820160009054906101000a900473ffffffffffffffffffffffffffffffffffffffff1673ffffffffffffffffffffffffffffffffffffffff1673ffffffffffffffffffffffffffffffffffffffff1681525050905060007f0000000000000000000000000000000000000000000000000000000000000000905060008173ffffffffffffffffffffffffffffffffffffffff1663dd62ed3e33306040518363ffffffff1660e01b815260040162000f8492919062002861565b602060405180830381865afa15801562000fa2573d6000803e3d6000fd5b505050506040513d601f19601f8201168201806040525081019062000fc89190620028a5565b905060008273ffffffffffffffffffffffffffffffffffffffff166370a08231336040518263ffffffff1660e01b8152600401620010079190620023d5565b602060405180830381865afa15801562001025573d6000803e3d6000fd5b505050506040513d601f19601f820116820180604052508101906200104b9190620028a5565b905083600001518210156200109b5733826040517ff58c4ebe0000000000000000000000000000000000000000000000000000000081526004016200109292919062002785565b60405180910390fd5b8360000151811015620010ef57338185600001516040517fdb42144d000000000000000000000000000000000000000000000000000000008152600401620010e69392919062002488565b60405180910390fd5b8273ffffffffffffffffffffffffffffffffffffffff166323b872dd333087600001516040518463ffffffff1660e01b81526004016200113293929190620027b2565b6020604051808303816000875af115801562001152573d6000803e3d6000fd5b505050506040513d601f19601f8201168201806040525081019062001178919062002908565b50836000015160036000866020015173ffffffffffffffffffffffffffffffffffffffff1673ffffffffffffffffffffffffffffffffffffffff1681526020019081526020016000206000828254620011d2919062002969565b925050819055506000808a73ffffffffffffffffffffffffffffffffffffffff1673ffffffffffffffffffffffffffffffffffffffff16815260200190815260200160002060008981526020019081526020016000206000808201600090556001820160006101000a81549073ffffffffffffffffffffffffffffffffffffffff02191690555050620012a960016000866020015173ffffffffffffffffffffffffffffffffffffffff1673ffffffffffffffffffffffffffffffffffffffff1681526020019081526020016000208a8a62001a37565b8873ffffffffffffffffffffffffffffffffffffffff166342842e0e30338b6040518463ffffffff1660e01b8152600401620012e893929190620027b2565b600060405180830381600087803b1580156200130357600080fd5b505af115801562001318573d6000803e3d6000fd5b50505050878973ffffffffffffffffffffffffffffffffffffffff163373ffffffffffffffffffffffffffffffffffffffff167fc6d7a5e59f38ae48e0f1577ce4627ba9b270bfd4c2c0c7be609c429421bc3d68876000015160405162001380919062002100565b60405180910390a4505050505050505050565b818160008060008473ffffffffffffffffffffffffffffffffffffffff1673ffffffffffffffffffffffffffffffffffffffff1681526020019081526020016000206000838152602001908152602001600020604051806040016040529081600082015481526020016001820160009054906101000a900473ffffffffffffffffffffffffffffffffffffffff1673ffffffffffffffffffffffffffffffffffffffff1673ffffffffffffffffffffffffffffffffffffffff1681525050905060008160000151116200149d576040517f08c379a000000000000000000000000000000000000000000000000000000000815260040162001494906200283f565b60405180910390fd5b6000808673ffffffffffffffffffffffffffffffffffffffff1673ffffffffffffffffffffffffffffffffffffffff16815260200190815260200160002060008581526020019081526020016000206000808201600090556001820160006101000a81549073ffffffffffffffffffffffffffffffffffffffff0219169055505062001569600160003373ffffffffffffffffffffffffffffffffffffffff1673ffffffffffffffffffffffffffffffffffffffff168152602001908152602001600020868662001a37565b8473ffffffffffffffffffffffffffffffffffffffff166342842e0e3033876040518463ffffffff1660e01b8152600401620015a893929190620027b2565b600060405180830381600087803b158015620015c357600080fd5b505af1158015620015d8573d6000803e3d6000fd5b50505050838573ffffffffffffffffffffffffffffffffffffffff163373ffffffffffffffffffffffffffffffffffffffff167f061e64e10e5e57615a6fe38b48c81926f6999a2f5304d3e5e6b0d3cfac4865a560405160405180910390a45050505050565b600160205281600052604060002081815481106200165b57600080fd5b9060005260206000209060030201600091509150508060000160009054906101000a900473ffffffffffffffffffffffffffffffffffffffff16908060010154908060020154905083565b6000600360003373ffffffffffffffffffffffffffffffffffffffff1673ffffffffffffffffffffffffffffffffffffffff1681526020019081526020016000205490506000811162001730576040517f08c379a00000000000000000000000000000000000000000000000000000000081526004016200172790620029f4565b60405180910390fd5b600360003373ffffffffffffffffffffffffffffffffffffffff1673ffffffffffffffffffffffffffffffffffffffff168152602001908152602001600020600090557f000000000000000000000000000000000000000000000000000000000000000073ffffffffffffffffffffffffffffffffffffffff1663a9059cbb33836040518363ffffffff1660e01b8152600401620017d092919062002785565b6020604051808303816000875af1158015620017f0573d6000803e3d6000fd5b505050506040513d601f19601f8201168201806040525081019062001816919062002908565b5050565b828260008060008473ffffffffffffffffffffffffffffffffffffffff1673ffffffffffffffffffffffffffffffffffffffff1681526020019081526020016000206000838152602001908152602001600020604051806040016040529081600082015481526020016001820160009054906101000a900473ffffffffffffffffffffffffffffffffffffffff1673ffffffffffffffffffffffffffffffffffffffff1673ffffffffffffffffffffffffffffffffffffffff16815250509050600081600001511162001924576040517f08c379a00000000000000000000000000000000000000000000000000000000081526004016200191b906200283f565b60405180910390fd5b836000808873ffffffffffffffffffffffffffffffffffffffff1673ffffffffffffffffffffffffffffffffffffffff168152602001908152602001600020600087815260200190815260200160002060000181905550620019c7600160003373ffffffffffffffffffffffffffffffffffffffff1673ffffffffffffffffffffffffffffffffffffffff16815260200190815260200160002087878762001c4c565b848673ffffffffffffffffffffffffffffffffffffffff163373ffffffffffffffffffffffffffffffffffffffff167ff27d99858c492867d3a1e9dad2f0e80c4d41e8fcc070ed85eec4d2faaed9bd908760405162001a27919062002100565b60405180910390a4505050505050565b60005b838054905081101562001c46578273ffffffffffffffffffffffffffffffffffffffff1684828154811062001a745762001a7362002a16565b5b906000526020600020906003020160000160009054906101000a900473ffffffffffffffffffffffffffffffffffffffff1673ffffffffffffffffffffffffffffffffffffffff1614801562001af057508184828154811062001adc5762001adb62002a16565b5b906000526020600020906003020160010154145b1562001c3857836001858054905062001b0a919062002a45565b8154811062001b1e5762001b1d62002a16565b5b906000526020600020906003020184828154811062001b425762001b4162002a16565b5b90600052602060002090600302016000820160009054906101000a900473ffffffffffffffffffffffffffffffffffffffff168160000160006101000a81548173ffffffffffffffffffffffffffffffffffffffff021916908373ffffffffffffffffffffffffffffffffffffffff16021790555060018201548160010155600282015481600201559050508380548062001be25762001be162002a80565b5b6001900381819060005260206000209060030201600080820160006101000a81549073ffffffffffffffffffffffffffffffffffffffff0219169055600182016000905560028201600090555050905562001c46565b808060010191505062001a3a565b50505050565b60005b848054905081101562001d4b578373ffffffffffffffffffffffffffffffffffffffff1685828154811062001c895762001c8862002a16565b5b906000526020600020906003020160000160009054906101000a900473ffffffffffffffffffffffffffffffffffffffff1673ffffffffffffffffffffffffffffffffffffffff1614801562001d0557508285828154811062001cf15762001cf062002a16565b5b906000526020600020906003020160010154145b1562001d3d578185828154811062001d225762001d2162002a16565b5b90600052602060002090600302016002018190555062001d4b565b808060010191505062001c4f565b5050505050565b612a128062002ab083390190565b6000604051905090565b600080fd5b600080fd5b600073ffffffffffffffffffffffffffffffffffffffff82169050919050565b600062001da18262001d74565b9050919050565b62001db38162001d94565b811462001dbf57600080fd5b50565b60008135905062001dd38162001da8565b92915050565b6000819050919050565b62001dee8162001dd9565b811462001dfa57600080fd5b50565b60008135905062001e0e8162001de3565b92915050565b600080fd5b600080fd5b600080fd5b60008083601f84011262001e3c5762001e3b62001e14565b5b8235905067ffffffffffffffff81111562001e5c5762001e5b62001e19565b5b60208301915083600182028301111562001e7b5762001e7a62001e1e565b5b9250929050565b60008060008060006080868803121562001ea15762001ea062001d6a565b5b600062001eb18882890162001dc2565b955050602062001ec48882890162001dc2565b945050604062001ed78882890162001dfd565b935050606086013567ffffffffffffffff81111562001efb5762001efa62001d6f565b5b62001f098882890162001e23565b92509250509295509295909350565b60007fffffffff0000000000000000000000000000000000000000000000000000000082169050919050565b62001f4f8162001f18565b82525050565b600060208201905062001f6c600083018462001f44565b92915050565b60006020828403121562001f8b5762001f8a62001d6a565b5b600062001f9b8482850162001dc2565b91505092915050565b600081519050919050565b600082825260208201905092915050565b6000819050602082019050919050565b62001fdb8162001d94565b82525050565b62001fec8162001dd9565b82525050565b6060820160008201516200200a600085018262001fd0565b5060208201516200201f602085018262001fe1565b50604082015162002034604085018262001fe1565b50505050565b600062002048838362001ff2565b60608301905092915050565b6000602082019050919050565b60006200206e8262001fa4565b6200207a818562001faf565b9350620020878362001fc0565b8060005b83811015620020be578151620020a288826200203a565b9750620020af8362002054565b9250506001810190506200208b565b5085935050505092915050565b60006020820190508181036000830152620020e7818462002061565b905092915050565b620020fa8162001dd9565b82525050565b6000602082019050620021176000830184620020ef565b92915050565b600080fd5b6000601f19601f8301169050919050565b7f4e487b7100000000000000000000000000000000000000000000000000000000600052604160045260246000fd5b6200216d8262002122565b810181811067ffffffffffffffff821117156200218f576200218e62002133565b5b80604052505050565b6000620021a462001d60565b9050620021b2828262002162565b919050565b600067ffffffffffffffff821115620021d557620021d462002133565b5b620021e08262002122565b9050602081019050919050565b82818337600083830152505050565b6000620022136200220d84620021b7565b62002198565b9050828152602081018484840111156200223257620022316200211d565b5b6200223f848285620021ed565b509392505050565b600082601f8301126200225f576200225e62001e14565b5b813562002271848260208601620021fc565b91505092915050565b6000806040838503121562002294576200229362001d6a565b5b600083013567ffffffffffffffff811115620022b557620022b462001d6f565b5b620022c38582860162002247565b925050602083013567ffffffffffffffff811115620022e757620022e662001d6f565b5b620022f58582860162002247565b9150509250929050565b6000806040838503121562002319576200231862001d6a565b5b6000620023298582860162001dc2565b92505060206200233c8582860162001dfd565b9150509250929050565b620023518162001d94565b82525050565b60006040820190506200236e6000830185620020ef565b6200237d602083018462002346565b9392505050565b6000602082840312156200239d576200239c62001d6a565b5b600082013567ffffffffffffffff811115620023be57620023bd62001d6f565b5b620023cc8482850162002247565b91505092915050565b6000602082019050620023ec600083018462002346565b92915050565b6000806000606084860312156200240e576200240d62001d6a565b5b60006200241e8682870162001dc2565b9350506020620024318682870162001dfd565b9250506040620024448682870162001dfd565b9150509250925092565b60008115159050919050565b62002465816200244e565b82525050565b60006020820190506200248260008301846200245a565b92915050565b60006060820190506200249f600083018662002346565b620024ae6020830185620020ef565b620024bd6040830184620020ef565b949350505050565b600082825260208201905092915050565b7f4f6e6c792077686974656c6973746564206164647265737365732063616e206360008201527f616c6c20746869732066756e6374696f6e2e0000000000000000000000000000602082015250565b600062002534603283620024c5565b91506200254182620024d6565b604082019050919050565b60006020820190508181036000830152620025678162002525565b9050919050565b600081519050919050565b600081905092915050565b60005b83811015620025a457808201518184015260208101905062002587565b60008484015250505050565b6000620025bd826200256e565b620025c9818562002579565b9350620025db81856020860162002584565b80840191505092915050565b6000620025f58285620025b0565b9150620026038284620025b0565b91508190509392505050565b60006200261c826200256e565b620026288185620024c5565b93506200263a81856020860162002584565b620026458162002122565b840191505092915050565b600060408201905081810360008301526200266c81856200260f565b905081810360208301526200268281846200260f565b90509392505050565b6000620026998284620025b0565b915081905092915050565b600081519050620026b58162001da8565b92915050565b600060208284031215620026d457620026d362001d6a565b5b6000620026e484828501620026a4565b91505092915050565b7f54686973204e4654206973206e6f742062656c6f6e6720746f2063757272656e60008201527f7420616464726573732100000000000000000000000000000000000000000000602082015250565b60006200274b602a83620024c5565b91506200275882620026ed565b604082019050919050565b600060208201905081810360008301526200277e816200273c565b9050919050565b60006040820190506200279c600083018562002346565b620027ab6020830184620020ef565b9392505050565b6000606082019050620027c9600083018662002346565b620027d8602083018562002346565b620027e76040830184620020ef565b949350505050565b7f43757272656e74204e465420686173206e6f206c697374656421000000000000600082015250565b600062002827601a83620024c5565b91506200283482620027ef565b602082019050919050565b600060208201905081810360008301526200285a8162002818565b9050919050565b600060408201905062002878600083018562002346565b62002887602083018462002346565b9392505050565b6000815190506200289f8162001de3565b92915050565b600060208284031215620028be57620028bd62001d6a565b5b6000620028ce848285016200288e565b91505092915050565b620028e2816200244e565b8114620028ee57600080fd5b50565b6000815190506200290281620028d7565b92915050565b60006020828403121562002921576200292062001d6a565b5b60006200293184828501620028f1565b91505092915050565b7f4e487b7100000000000000000000000000000000000000000000000000000000600052601160045260246000fd5b6000620029768262001dd9565b9150620029838362001dd9565b92508282019050808211156200299e576200299d6200293a565b5b92915050565b7f796f752068617665206e6f2070726f6365656473210000000000000000000000600082015250565b6000620029dc601583620024c5565b9150620029e982620029a4565b602082019050919050565b6000602082019050818103600083015262002a0f81620029cd565b9050919050565b7f4e487b7100000000000000000000000000000000000000000000000000000000600052603260045260246000fd5b600062002a528262001dd9565b915062002a5f8362001dd9565b925082820390508181111562002a7a5762002a796200293a565b5b92915050565b7f4e487b7100000000000000000000000000000000000000000000000000000000600052603160045260246000fdfe60806040523480156200001157600080fd5b5060405162002a1238038062002a128339818101604052810190620000379190620001fa565b818181600090816200004a9190620004ca565b5080600190816200005c9190620004ca565b5050505050620005b1565b6000604051905090565b600080fd5b600080fd5b600080fd5b600080fd5b6000601f19601f8301169050919050565b7f4e487b7100000000000000000000000000000000000000000000000000000000600052604160045260246000fd5b620000d08262000085565b810181811067ffffffffffffffff82111715620000f257620000f162000096565b5b80604052505050565b60006200010762000067565b9050620001158282620000c5565b919050565b600067ffffffffffffffff82111562000138576200013762000096565b5b620001438262000085565b9050602081019050919050565b60005b838110156200017057808201518184015260208101905062000153565b60008484015250505050565b6000620001936200018d846200011a565b620000fb565b905082815260208101848484011115620001b257620001b162000080565b5b620001bf84828562000150565b509392505050565b600082601f830112620001df57620001de6200007b565b5b8151620001f18482602086016200017c565b91505092915050565b6000806040838503121562000214576200021362000071565b5b600083015167ffffffffffffffff81111562000235576200023462000076565b5b6200024385828601620001c7565b925050602083015167ffffffffffffffff81111562000267576200026662000076565b5b6200027585828601620001c7565b9150509250929050565b600081519050919050565b7f4e487b7100000000000000000000000000000000000000000000000000000000600052602260045260246000fd5b60006002820490506001821680620002d257607f821691505b602082108103620002e857620002e76200028a565b5b50919050565b60008190508160005260206000209050919050565b60006020601f8301049050919050565b600082821b905092915050565b600060088302620003527fffffffffffffffffffffffffffffffffffffffffffffffffffffffffffffffff8262000313565b6200035e868362000313565b95508019841693508086168417925050509392505050565b6000819050919050565b6000819050919050565b6000620003ab620003a56200039f8462000376565b62000380565b62000376565b9050919050565b6000819050919050565b620003c7836200038a565b620003df620003d682620003b2565b84845462000320565b825550505050565b600090565b620003f6620003e7565b62000403818484620003bc565b505050565b5b818110156200042b576200041f600082620003ec565b60018101905062000409565b5050565b601f8211156200047a576200044481620002ee565b6200044f8462000303565b810160208510156200045f578190505b620004776200046e8562000303565b83018262000408565b50505b505050565b600082821c905092915050565b60006200049f600019846008026200047f565b1980831691505092915050565b6000620004ba83836200048c565b9150826002028217905092915050565b620004d5826200027f565b67ffffffffffffffff811115620004f157620004f062000096565b5b620004fd8254620002b9565b6200050a8282856200042f565b600060209050601f8311600181146200054257600084156200052d578287015190505b620005398582620004ac565b865550620005a9565b601f1984166200055286620002ee565b60005b828110156200057c5784890151825560018201915060208501945060208101905062000555565b868310156200059c578489015162000598601f8916826200048c565b8355505b6001600288020188555050505b505050505050565b61245180620005c16000396000f3fe608060405234801561001057600080fd5b50600436106100f55760003560e01c806370a0823111610097578063c754584911610066578063c754584914610282578063c87b56dd146102b2578063d082e381146102e2578063e985e9c514610300576100f5565b806370a08231146101fc57806395d89b411461022c578063a22cb4651461024a578063b88d4fde14610266576100f5565b8063095ea7b3116100d3578063095ea7b31461017857806323b872dd1461019457806342842e0e146101b05780636352211e146101cc576100f5565b806301ffc9a7146100fa57806306fdde031461012a578063081812fc14610148575b600080fd5b610114600480360381019061010f919061187e565b610330565b60405161012191906118c6565b60405180910390f35b610132610391565b60405161013f9190611971565b60405180910390f35b610162600480360381019061015d91906119c9565b610423565b60405161016f9190611a37565b60405180910390f35b610192600480360381019061018d9190611a7e565b61043f565b005b6101ae60048036038101906101a99190611abe565b610455565b005b6101ca60048036038101906101c59190611abe565b610557565b005b6101e660048036038101906101e191906119c9565b610577565b6040516101f39190611a37565b60405180910390f35b61021660048036038101906102119190611b11565b610589565b6040516102239190611b4d565b60405180910390f35b610234610643565b6040516102419190611971565b60405180910390f35b610264600480360381019061025f9190611b94565b6106d5565b005b610280600480360381019061027b9190611d09565b6106eb565b005b61029c60048036038101906102979190611e2d565b610708565b6040516102a99190611b4d565b60405180910390f35b6102cc60048036038101906102c791906119c9565b61077d565b6040516102d99190611971565b60405180910390f35b6102ea610890565b6040516102f79190611b4d565b60405180910390f35b61031a60048036038101906103159190611e76565b610896565b60405161032791906118c6565b60405180910390f35b6000634906490660e01b7bffffffffffffffffffffffffffffffffffffffffffffffffffffffff1916827bffffffffffffffffffffffffffffffffffffffffffffffffffffffff1916148061038a57506103898261092a565b5b9050919050565b6060600080546103a090611ee5565b80601f01602080910402602001604051908101604052809291908181526020018280546103cc90611ee5565b80156104195780601f106103ee57610100808354040283529160200191610419565b820191906000526020600020905b8154815290600101906020018083116103fc57829003601f168201915b5050505050905090565b600061042e82610a0c565b5061043882610a94565b9050919050565b610451828261044c610ad1565b610ad9565b5050565b600073ffffffffffffffffffffffffffffffffffffffff168273ffffffffffffffffffffffffffffffffffffffff16036104c75760006040517f64a0ae920000000000000000000000000000000000000000000000000000000081526004016104be9190611a37565b60405180910390fd5b60006104db83836104d6610ad1565b610aeb565b90508373ffffffffffffffffffffffffffffffffffffffff168173ffffffffffffffffffffffffffffffffffffffff1614610551578382826040517f64283d7b00000000000000000000000000000000000000000000000000000000815260040161054893929190611f16565b60405180910390fd5b50505050565b610572838383604051806020016040528060008152506106eb565b505050565b600061058282610a0c565b9050919050565b60008073ffffffffffffffffffffffffffffffffffffffff168273ffffffffffffffffffffffffffffffffffffffff16036105fc5760006040517f89c62b640000000000000000000000000000000000000000000000000000000081526004016105f39190611a37565b60405180910390fd5b600360008373ffffffffffffffffffffffffffffffffffffffff1673ffffffffffffffffffffffffffffffffffffffff168152602001908152602001600020549050919050565b60606001805461065290611ee5565b80601f016020809104026020016040519081016040528092919081815260200182805461067e90611ee5565b80156106cb5780601f106106a0576101008083540402835291602001916106cb565b820191906000526020600020905b8154815290600101906020018083116106ae57829003601f168201915b5050505050905090565b6106e76106e0610ad1565b8383610d05565b5050565b6106f6848484610455565b61070284848484610e74565b50505050565b60006107163360075461102b565b61072260075483611124565b7f899b99f6c26ce7a463fc72a3a36ae78b414dae9cfa6e88e8580ec708e70f30b0336007548460405161075793929190611f4d565b60405180910390a16007600081548092919061077290611fba565b919050559050919050565b606061078882610a0c565b5060006006600084815260200190815260200160002080546107a990611ee5565b80601f01602080910402602001604051908101604052809291908181526020018280546107d590611ee5565b80156108225780601f106107f757610100808354040283529160200191610822565b820191906000526020600020905b81548152906001019060200180831161080557829003601f168201915b505050505090506000610833611180565b9050600081510361084857819250505061088b565b60008251111561087d57808260405160200161086592919061203e565b6040516020818303038152906040529250505061088b565b61088684611197565b925050505b919050565b60075481565b6000600560008473ffffffffffffffffffffffffffffffffffffffff1673ffffffffffffffffffffffffffffffffffffffff16815260200190815260200160002060008373ffffffffffffffffffffffffffffffffffffffff1673ffffffffffffffffffffffffffffffffffffffff16815260200190815260200160002060009054906101000a900460ff16905092915050565b60007f80ac58cd000000000000000000000000000000000000000000000000000000007bffffffffffffffffffffffffffffffffffffffffffffffffffffffff1916827bffffffffffffffffffffffffffffffffffffffffffffffffffffffff191614806109f557507f5b5e139f000000000000000000000000000000000000000000000000000000007bffffffffffffffffffffffffffffffffffffffffffffffffffffffff1916827bffffffffffffffffffffffffffffffffffffffffffffffffffffffff1916145b80610a055750610a0482611200565b5b9050919050565b600080610a188361126a565b9050600073ffffffffffffffffffffffffffffffffffffffff168173ffffffffffffffffffffffffffffffffffffffff1603610a8b57826040517f7e273289000000000000000000000000000000000000000000000000000000008152600401610a829190611b4d565b60405180910390fd5b80915050919050565b60006004600083815260200190815260200160002060009054906101000a900473ffffffffffffffffffffffffffffffffffffffff169050919050565b600033905090565b610ae683838360016112a7565b505050565b600080610af78461126a565b9050600073ffffffffffffffffffffffffffffffffffffffff168373ffffffffffffffffffffffffffffffffffffffff1614610b3957610b3881848661146c565b5b600073ffffffffffffffffffffffffffffffffffffffff168173ffffffffffffffffffffffffffffffffffffffff1614610bca57610b7b6000856000806112a7565b6001600360008373ffffffffffffffffffffffffffffffffffffffff1673ffffffffffffffffffffffffffffffffffffffff168152602001908152602001600020600082825403925050819055505b600073ffffffffffffffffffffffffffffffffffffffff168573ffffffffffffffffffffffffffffffffffffffff1614610c4d576001600360008773ffffffffffffffffffffffffffffffffffffffff1673ffffffffffffffffffffffffffffffffffffffff168152602001908152602001600020600082825401925050819055505b846002600086815260200190815260200160002060006101000a81548173ffffffffffffffffffffffffffffffffffffffff021916908373ffffffffffffffffffffffffffffffffffffffff160217905550838573ffffffffffffffffffffffffffffffffffffffff168273ffffffffffffffffffffffffffffffffffffffff167fddf252ad1be2c89b69c2b068fc378daa952ba7f163c4a11628f55a4df523b3ef60405160405180910390a4809150509392505050565b600073ffffffffffffffffffffffffffffffffffffffff168273ffffffffffffffffffffffffffffffffffffffff1603610d7657816040517f5b08ba18000000000000000000000000000000000000000000000000000000008152600401610d6d9190611a37565b60405180910390fd5b80600560008573ffffffffffffffffffffffffffffffffffffffff1673ffffffffffffffffffffffffffffffffffffffff16815260200190815260200160002060008473ffffffffffffffffffffffffffffffffffffffff1673ffffffffffffffffffffffffffffffffffffffff16815260200190815260200160002060006101000a81548160ff0219169083151502179055508173ffffffffffffffffffffffffffffffffffffffff168373ffffffffffffffffffffffffffffffffffffffff167f17307eab39ab6107e8899845ad3d59bd9653f200f220920489ca2b5937696c3183604051610e6791906118c6565b60405180910390a3505050565b60008373ffffffffffffffffffffffffffffffffffffffff163b1115611025578273ffffffffffffffffffffffffffffffffffffffff1663150b7a02610eb8610ad1565b8685856040518563ffffffff1660e01b8152600401610eda94939291906120b7565b6020604051808303816000875af1925050508015610f1657506040513d601f19601f82011682018060405250810190610f139190612118565b60015b610f9a573d8060008114610f46576040519150601f19603f3d011682016040523d82523d6000602084013e610f4b565b606091505b506000815103610f9257836040517f64a0ae92000000000000000000000000000000000000000000000000000000008152600401610f899190611a37565b60405180910390fd5b805181602001fd5b63150b7a0260e01b7bffffffffffffffffffffffffffffffffffffffffffffffffffffffff1916817bffffffffffffffffffffffffffffffffffffffffffffffffffffffff19161461102357836040517f64a0ae9200000000000000000000000000000000000000000000000000000000815260040161101a9190611a37565b60405180910390fd5b505b50505050565b600073ffffffffffffffffffffffffffffffffffffffff168273ffffffffffffffffffffffffffffffffffffffff160361109d5760006040517f64a0ae920000000000000000000000000000000000000000000000000000000081526004016110949190611a37565b60405180910390fd5b60006110ab83836000610aeb565b9050600073ffffffffffffffffffffffffffffffffffffffff168173ffffffffffffffffffffffffffffffffffffffff161461111f5760006040517f73c6ac6e0000000000000000000000000000000000000000000000000000000081526004016111169190611a37565b60405180910390fd5b505050565b8060066000848152602001908152602001600020908161114491906122f1565b507ff8e1a15aba9398e019f0b49df1a4fde98ee17ae345cb5f6b5e2c27f5033e8ce7826040516111749190611b4d565b60405180910390a15050565b606060405180602001604052806000815250905090565b60606111a282610a0c565b5060006111ad611180565b905060008151116111cd57604051806020016040528060008152506111f8565b806111d784611530565b6040516020016111e892919061203e565b6040516020818303038152906040525b915050919050565b60007f01ffc9a7000000000000000000000000000000000000000000000000000000007bffffffffffffffffffffffffffffffffffffffffffffffffffffffff1916827bffffffffffffffffffffffffffffffffffffffffffffffffffffffff1916149050919050565b60006002600083815260200190815260200160002060009054906101000a900473ffffffffffffffffffffffffffffffffffffffff169050919050565b80806112e05750600073ffffffffffffffffffffffffffffffffffffffff168273ffffffffffffffffffffffffffffffffffffffff1614155b156114145760006112f084610a0c565b9050600073ffffffffffffffffffffffffffffffffffffffff168373ffffffffffffffffffffffffffffffffffffffff161415801561135b57508273ffffffffffffffffffffffffffffffffffffffff168173ffffffffffffffffffffffffffffffffffffffff1614155b801561136e575061136c8184610896565b155b156113b057826040517fa9fbf51f0000000000000000000000000000000000000000000000000000000081526004016113a79190611a37565b60405180910390fd5b811561141257838573ffffffffffffffffffffffffffffffffffffffff168273ffffffffffffffffffffffffffffffffffffffff167f8c5be1e5ebec7d5bd14f71427d1e84f3dd0314c0f7b2291e5b200ac8c7c3b92560405160405180910390a45b505b836004600085815260200190815260200160002060006101000a81548173ffffffffffffffffffffffffffffffffffffffff021916908373ffffffffffffffffffffffffffffffffffffffff16021790555050505050565b6114778383836115fe565b61152b57600073ffffffffffffffffffffffffffffffffffffffff168373ffffffffffffffffffffffffffffffffffffffff16036114ec57806040517f7e2732890000000000000000000000000000000000000000000000000000000081526004016114e39190611b4d565b60405180910390fd5b81816040517f177e802f0000000000000000000000000000000000000000000000000000000081526004016115229291906123c3565b60405180910390fd5b505050565b60606000600161153f846116bf565b01905060008167ffffffffffffffff81111561155e5761155d611bde565b5b6040519080825280601f01601f1916602001820160405280156115905781602001600182028036833780820191505090505b509050600082602001820190505b6001156115f3578080600190039150507f3031323334353637383961626364656600000000000000000000000000000000600a86061a8153600a85816115e7576115e66123ec565b5b0494506000850361159e575b819350505050919050565b60008073ffffffffffffffffffffffffffffffffffffffff168373ffffffffffffffffffffffffffffffffffffffff16141580156116b657508273ffffffffffffffffffffffffffffffffffffffff168473ffffffffffffffffffffffffffffffffffffffff16148061167757506116768484610896565b5b806116b557508273ffffffffffffffffffffffffffffffffffffffff1661169d83610a94565b73ffffffffffffffffffffffffffffffffffffffff16145b5b90509392505050565b600080600090507a184f03e93ff9f4daa797ed6e38ed64bf6a1f010000000000000000831061171d577a184f03e93ff9f4daa797ed6e38ed64bf6a1f0100000000000000008381611713576117126123ec565b5b0492506040810190505b6d04ee2d6d415b85acef8100000000831061175a576d04ee2d6d415b85acef810000000083816117505761174f6123ec565b5b0492506020810190505b662386f26fc10000831061178957662386f26fc10000838161177f5761177e6123ec565b5b0492506010810190505b6305f5e10083106117b2576305f5e10083816117a8576117a76123ec565b5b0492506008810190505b61271083106117d75761271083816117cd576117cc6123ec565b5b0492506004810190505b606483106117fa57606483816117f0576117ef6123ec565b5b0492506002810190505b600a8310611809576001810190505b80915050919050565b6000604051905090565b600080fd5b600080fd5b60007fffffffff0000000000000000000000000000000000000000000000000000000082169050919050565b61185b81611826565b811461186657600080fd5b50565b60008135905061187881611852565b92915050565b6000602082840312156118945761189361181c565b5b60006118a284828501611869565b91505092915050565b60008115159050919050565b6118c0816118ab565b82525050565b60006020820190506118db60008301846118b7565b92915050565b600081519050919050565b600082825260208201905092915050565b60005b8381101561191b578082015181840152602081019050611900565b60008484015250505050565b6000601f19601f8301169050919050565b6000611943826118e1565b61194d81856118ec565b935061195d8185602086016118fd565b61196681611927565b840191505092915050565b6000602082019050818103600083015261198b8184611938565b905092915050565b6000819050919050565b6119a681611993565b81146119b157600080fd5b50565b6000813590506119c38161199d565b92915050565b6000602082840312156119df576119de61181c565b5b60006119ed848285016119b4565b91505092915050565b600073ffffffffffffffffffffffffffffffffffffffff82169050919050565b6000611a21826119f6565b9050919050565b611a3181611a16565b82525050565b6000602082019050611a4c6000830184611a28565b92915050565b611a5b81611a16565b8114611a6657600080fd5b50565b600081359050611a7881611a52565b92915050565b60008060408385031215611a9557611a9461181c565b5b6000611aa385828601611a69565b9250506020611ab4858286016119b4565b9150509250929050565b600080600060608486031215611ad757611ad661181c565b5b6000611ae586828701611a69565b9350506020611af686828701611a69565b9250506040611b07868287016119b4565b9150509250925092565b600060208284031215611b2757611b2661181c565b5b6000611b3584828501611a69565b91505092915050565b611b4781611993565b82525050565b6000602082019050611b626000830184611b3e565b92915050565b611b71816118ab565b8114611b7c57600080fd5b50565b600081359050611b8e81611b68565b92915050565b60008060408385031215611bab57611baa61181c565b5b6000611bb985828601611a69565b9250506020611bca85828601611b7f565b9150509250929050565b600080fd5b600080fd5b7f4e487b7100000000000000000000000000000000000000000000000000000000600052604160045260246000fd5b611c1682611927565b810181811067ffffffffffffffff82111715611c3557611c34611bde565b5b80604052505050565b6000611c48611812565b9050611c548282611c0d565b919050565b600067ffffffffffffffff821115611c7457611c73611bde565b5b611c7d82611927565b9050602081019050919050565b82818337600083830152505050565b6000611cac611ca784611c59565b611c3e565b905082815260208101848484011115611cc857611cc7611bd9565b5b611cd3848285611c8a565b509392505050565b600082601f830112611cf057611cef611bd4565b5b8135611d00848260208601611c99565b91505092915050565b60008060008060808587031215611d2357611d2261181c565b5b6000611d3187828801611a69565b9450506020611d4287828801611a69565b9350506040611d53878288016119b4565b925050606085013567ffffffffffffffff811115611d7457611d73611821565b5b611d8087828801611cdb565b91505092959194509250565b600067ffffffffffffffff821115611da757611da6611bde565b5b611db082611927565b9050602081019050919050565b6000611dd0611dcb84611d8c565b611c3e565b905082815260208101848484011115611dec57611deb611bd9565b5b611df7848285611c8a565b509392505050565b600082601f830112611e1457611e13611bd4565b5b8135611e24848260208601611dbd565b91505092915050565b600060208284031215611e4357611e4261181c565b5b600082013567ffffffffffffffff811115611e6157611e60611821565b5b611e6d84828501611dff565b91505092915050565b60008060408385031215611e8d57611e8c61181c565b5b6000611e9b85828601611a69565b9250506020611eac85828601611a69565b9150509250929050565b7f4e487b7100000000000000000000000000000000000000000000000000000000600052602260045260246000fd5b60006002820490506001821680611efd57607f821691505b602082108103611f1057611f0f611eb6565b5b50919050565b6000606082019050611f2b6000830186611a28565b611f386020830185611b3e565b611f456040830184611a28565b949350505050565b6000606082019050611f626000830186611a28565b611f6f6020830185611b3e565b8181036040830152611f818184611938565b9050949350505050565b7f4e487b7100000000000000000000000000000000000000000000000000000000600052601160045260246000fd5b6000611fc582611993565b91507fffffffffffffffffffffffffffffffffffffffffffffffffffffffffffffffff8203611ff757611ff6611f8b565b5b600182019050919050565b600081905092915050565b6000612018826118e1565b6120228185612002565b93506120328185602086016118fd565b80840191505092915050565b600061204a828561200d565b9150612056828461200d565b91508190509392505050565b600081519050919050565b600082825260208201905092915050565b600061208982612062565b612093818561206d565b93506120a38185602086016118fd565b6120ac81611927565b840191505092915050565b60006080820190506120cc6000830187611a28565b6120d96020830186611a28565b6120e66040830185611b3e565b81810360608301526120f8818461207e565b905095945050505050565b60008151905061211281611852565b92915050565b60006020828403121561212e5761212d61181c565b5b600061213c84828501612103565b91505092915050565b60008190508160005260206000209050919050565b60006020601f8301049050919050565b600082821b905092915050565b6000600883026121a77fffffffffffffffffffffffffffffffffffffffffffffffffffffffffffffffff8261216a565b6121b1868361216a565b95508019841693508086168417925050509392505050565b6000819050919050565b60006121ee6121e96121e484611993565b6121c9565b611993565b9050919050565b6000819050919050565b612208836121d3565b61221c612214826121f5565b848454612177565b825550505050565b600090565b612231612224565b61223c8184846121ff565b505050565b5b8181101561226057612255600082612229565b600181019050612242565b5050565b601f8211156122a55761227681612145565b61227f8461215a565b8101602085101561228e578190505b6122a261229a8561215a565b830182612241565b50505b505050565b600082821c905092915050565b60006122c8600019846008026122aa565b1980831691505092915050565b60006122e183836122b7565b9150826002028217905092915050565b6122fa826118e1565b67ffffffffffffffff81111561231357612312611bde565b5b61231d8254611ee5565b612328828285612264565b600060209050601f83116001811461235b5760008415612349578287015190505b61235385826122d5565b8655506123bb565b601f19841661236986612145565b60005b828110156123915784890151825560018201915060208501945060208101905061236c565b868310156123ae57848901516123aa601f8916826122b7565b8355505b6001600288020188555050505b505050505050565b60006040820190506123d86000830185611a28565b6123e56020830184611b3e565b9392505050565b7f4e487b7100000000000000000000000000000000000000000000000000000000600052601260045260246000fdfea2646970667358221220bb15ed3814fb175734b33a35af36d5238a6f09e2af22d93abf9086dae51e3b8d64736f6c63430008180033a2646970667358221220409d87e50a8b9e970db9fd54137a9dd576ad31ffa173082cba5d70a65eda5ffe64736f6c63430008180033",
  "linkReferences": {},
  "deployedLinkReferences": {}
}