{
  "_format": "hh-sol-artifact-1",
  "contractName": "NFTMarketPlace",
  "sourceName": "contracts/NFTMarketPlace.sol",
  "abi": [
    {
      "inputs": [
        {
          "internalType": "address",
          "name": "token",
          "type": "address"
        }
      ],
      "stateMutability": "nonpayable",
      "type": "constructor"
    },
    {
      "inputs": [
        {
          "internalType": "address",
          "name": "nftAddress",
          "type": "address"
        },
        {
          "internalType": "uint256",
          "name": "tokenId",
          "type": "uint256"
        }
      ],
      "name": "HasListed",
      "type": "error"
    },
    {
      "inputs": [
        {
          "internalType": "address",
          "name": "buyer",
          "type": "address"
        },
        {
          "internalType": "uint256",
          "name": "allowance",
          "type": "uint256"
        }
      ],
      "name": "InsufficientApproveLimit",
      "type": "error"
    },
    {
      "inputs": [
        {
          "internalType": "address",
          "name": "buyer",
          "type": "address"
        },
        {
          "internalType": "uint256",
          "name": "balance",
          "type": "uint256"
        },
        {
          "internalType": "uint256",
          "name": "price",
          "type": "uint256"
        }
      ],
      "name": "InsufficientBalance",
      "type": "error"
    },
    {
      "inputs": [
        {
          "internalType": "bytes32",
          "name": "requestId",
          "type": "bytes32"
        }
      ],
      "name": "InvalidRequest",
      "type": "error"
    },
    {
      "inputs": [
        {
          "internalType": "address",
          "name": "nftAddress",
          "type": "address"
        },
        {
          "internalType": "uint256",
          "name": "tokenId",
          "type": "uint256"
        }
      ],
      "name": "NotApproved",
      "type": "error"
    },
    {
      "anonymous": false,
      "inputs": [
        {
          "indexed": true,
          "internalType": "address",
          "name": "buyer",
          "type": "address"
        },
        {
          "indexed": true,
          "internalType": "address",
          "name": "nftAddress",
          "type": "address"
        },
        {
          "indexed": true,
          "internalType": "uint256",
          "name": "tokenId",
          "type": "uint256"
        },
        {
          "indexed": false,
          "internalType": "uint256",
          "name": "price",
          "type": "uint256"
        }
      ],
      "name": "BuyItem",
      "type": "event"
    },
    {
      "anonymous": false,
      "inputs": [
        {
          "indexed": true,
          "internalType": "address",
          "name": "seller",
          "type": "address"
        },
        {
          "indexed": true,
          "internalType": "address",
          "name": "nftAddress",
          "type": "address"
        },
        {
          "indexed": true,
          "internalType": "uint256",
          "name": "tokenId",
          "type": "uint256"
        }
      ],
      "name": "CancelListing",
      "type": "event"
    },
    {
      "anonymous": false,
      "inputs": [
        {
          "indexed": true,
          "internalType": "address",
          "name": "seller",
          "type": "address"
        },
        {
          "indexed": true,
          "internalType": "address",
          "name": "nftAddress",
          "type": "address"
        },
        {
          "indexed": true,
          "internalType": "uint256",
          "name": "tokenId",
          "type": "uint256"
        }
      ],
      "name": "ItemListed",
      "type": "event"
    },
    {
      "anonymous": false,
      "inputs": [
        {
          "indexed": true,
          "internalType": "address",
          "name": "nftAddress",
          "type": "address"
        },
        {
          "indexed": false,
          "internalType": "string",
          "name": "name",
          "type": "string"
        },
        {
          "indexed": false,
          "internalType": "string",
          "name": "symbol",
          "type": "string"
        }
      ],
      "name": "NewNFTContractCreated",
      "type": "event"
    },
    {
      "anonymous": false,
      "inputs": [
        {
          "indexed": true,
          "internalType": "bytes32",
          "name": "requestId",
          "type": "bytes32"
        },
        {
          "indexed": true,
          "internalType": "address",
          "name": "nftAddress",
          "type": "address"
        },
        {
          "indexed": true,
          "internalType": "uint256",
          "name": "tokenId",
          "type": "uint256"
        }
      ],
      "name": "RequestPriceBegin",
      "type": "event"
    },
    {
      "anonymous": false,
      "inputs": [
        {
          "indexed": true,
          "internalType": "bytes32",
          "name": "requestId",
          "type": "bytes32"
        },
        {
          "indexed": false,
          "internalType": "uint256",
          "name": "price",
          "type": "uint256"
        }
      ],
      "name": "RequestPriceReceive",
      "type": "event"
    },
    {
      "anonymous": false,
      "inputs": [
        {
          "indexed": true,
          "internalType": "address",
          "name": "seller",
          "type": "address"
        },
        {
          "indexed": true,
          "internalType": "address",
          "name": "nftAddress",
          "type": "address"
        },
        {
          "indexed": true,
          "internalType": "uint256",
          "name": "tokenId",
          "type": "uint256"
        },
        {
          "indexed": false,
          "internalType": "uint256",
          "name": "price",
          "type": "uint256"
        }
      ],
      "name": "UpdateItem",
      "type": "event"
    },
    {
      "inputs": [],
      "name": "ASSET_NEXUS_TOKEN",
      "outputs": [
        {
          "internalType": "address",
          "name": "",
          "type": "address"
        }
      ],
      "stateMutability": "view",
      "type": "function"
    },
    {
      "inputs": [
        {
          "internalType": "address",
          "name": "_address",
          "type": "address"
        }
      ],
      "name": "addAddressToWhitelist",
      "outputs": [],
      "stateMutability": "nonpayable",
      "type": "function"
    },
    {
      "inputs": [
        {
          "internalType": "address",
          "name": "nftAddr",
          "type": "address"
        },
        {
          "internalType": "uint256",
          "name": "tokenId",
          "type": "uint256"
        }
      ],
      "name": "buyItem",
      "outputs": [],
      "stateMutability": "nonpayable",
      "type": "function"
    },
    {
      "inputs": [
        {
          "internalType": "address",
          "name": "nftAddr",
          "type": "address"
        },
        {
          "internalType": "uint256",
          "name": "tokenId",
          "type": "uint256"
        }
      ],
      "name": "cancelListing",
      "outputs": [],
      "stateMutability": "nonpayable",
      "type": "function"
    },
    {
      "inputs": [
        {
          "internalType": "string",
          "name": "name",
          "type": "string"
        },
        {
          "internalType": "string",
          "name": "symbol",
          "type": "string"
        }
      ],
      "name": "createAssetNexusNft",
      "outputs": [],
      "stateMutability": "nonpayable",
      "type": "function"
    },
    {
      "inputs": [
        {
          "internalType": "address",
          "name": "nftAddr",
          "type": "address"
        },
        {
          "internalType": "uint256",
          "name": "tokenId",
          "type": "uint256"
        },
        {
          "internalType": "uint256",
          "name": "price",
          "type": "uint256"
        }
      ],
      "name": "listItem",
      "outputs": [],
      "stateMutability": "nonpayable",
      "type": "function"
    },
    {
      "inputs": [
        {
          "internalType": "address",
          "name": "",
          "type": "address"
        },
        {
          "internalType": "uint256",
          "name": "",
          "type": "uint256"
        }
      ],
      "name": "myListings",
      "outputs": [
        {
          "internalType": "address",
          "name": "nftAddr",
          "type": "address"
        },
        {
          "internalType": "uint256",
          "name": "tokenId",
          "type": "uint256"
        },
        {
          "internalType": "uint256",
          "name": "price",
          "type": "uint256"
        }
      ],
      "stateMutability": "view",
      "type": "function"
    },
    {
      "inputs": [
        {
          "internalType": "string",
          "name": "",
          "type": "string"
        }
      ],
      "name": "nftContractsByNames",
      "outputs": [
        {
          "internalType": "address",
          "name": "",
          "type": "address"
        }
      ],
      "stateMutability": "view",
      "type": "function"
    },
    {
      "inputs": [
        {
          "internalType": "address",
          "name": "",
          "type": "address"
        },
        {
          "internalType": "uint256",
          "name": "",
          "type": "uint256"
        }
      ],
      "name": "nftListings",
      "outputs": [
        {
          "internalType": "uint256",
          "name": "price",
          "type": "uint256"
        },
        {
          "internalType": "address",
          "name": "seller",
          "type": "address"
        }
      ],
      "stateMutability": "view",
      "type": "function"
    },
    {
      "inputs": [
        {
          "internalType": "address",
          "name": "operator",
          "type": "address"
        },
        {
          "internalType": "address",
          "name": "from",
          "type": "address"
        },
        {
          "internalType": "uint256",
          "name": "tokenId",
          "type": "uint256"
        },
        {
          "internalType": "bytes",
          "name": "data",
          "type": "bytes"
        }
      ],
      "name": "onERC721Received",
      "outputs": [
        {
          "internalType": "bytes4",
          "name": "",
          "type": "bytes4"
        }
      ],
      "stateMutability": "pure",
      "type": "function"
    },
    {
      "inputs": [
        {
          "internalType": "address",
          "name": "",
          "type": "address"
        }
      ],
      "name": "proceeds",
      "outputs": [
        {
          "internalType": "uint256",
          "name": "",
          "type": "uint256"
        }
      ],
      "stateMutability": "view",
      "type": "function"
    },
    {
      "inputs": [
        {
          "internalType": "address",
          "name": "_address",
          "type": "address"
        }
      ],
      "name": "removeAddressFromWhitelist",
      "outputs": [],
      "stateMutability": "nonpayable",
      "type": "function"
    },
    {
      "inputs": [
        {
          "internalType": "address",
          "name": "nftAddr",
          "type": "address"
        },
        {
          "internalType": "uint256",
          "name": "tokenId",
          "type": "uint256"
        },
        {
          "internalType": "uint256",
          "name": "newPrice",
          "type": "uint256"
        }
      ],
      "name": "updateListing",
      "outputs": [],
      "stateMutability": "nonpayable",
      "type": "function"
    },
    {
      "inputs": [
        {
          "internalType": "address",
          "name": "",
          "type": "address"
        }
      ],
      "name": "whitelist",
      "outputs": [
        {
          "internalType": "bool",
          "name": "",
          "type": "bool"
        }
      ],
      "stateMutability": "view",
      "type": "function"
    },
    {
      "inputs": [],
      "name": "withDrawProceeds",
      "outputs": [],
      "stateMutability": "nonpayable",
      "type": "function"
    }
  ],
  "bytecode": "0x60a06040523480156200001157600080fd5b506040516200536d3803806200536d8339818101604052810190620000379190620000dc565b8073ffffffffffffffffffffffffffffffffffffffff1660808173ffffffffffffffffffffffffffffffffffffffff1681525050506200010e565b600080fd5b600073ffffffffffffffffffffffffffffffffffffffff82169050919050565b6000620000a48262000077565b9050919050565b620000b68162000097565b8114620000c257600080fd5b50565b600081519050620000d681620000ab565b92915050565b600060208284031215620000f557620000f462000072565b5b60006200010584828501620000c5565b91505092915050565b608051615235620001386000396000818161064901528181610dd8015261162901526152356000f3fe60806040523480156200001157600080fd5b50600436106200010c5760003560e01c80637b9417c811620000a5578063b2ddee06116200006f578063b2ddee0614620002e2578063c425a3211462000302578063c6890de5146200033a578063f772adf11462000346576200010c565b80637b9417c8146200024c57806389bfd38f146200026c5780639b19251a146200028c5780639f37092a14620002c2576200010c565b80633cac454711620000e75780633cac4547146200019d5780634309d59414620001bd5780634904ffd014620001f457806368fbd092146200022a576200010c565b8063150b7a021462000111578063286dd3f5146200014757806335adde541462000167575b600080fd5b6200012f600480360381019062000129919062001d36565b62000366565b6040516200013e919062001e09565b60405180910390f35b6200016560048036038101906200015f919062001e26565b6200037b565b005b6200018560048036038101906200017f919062001e26565b620003d6565b60405162000194919062001e69565b60405180910390f35b620001bb6004803603810190620001b5919062001fe3565b620003ee565b005b620001db6004803603810190620001d5919062002068565b620005ad565b604051620001eb929190620020c0565b60405180910390f35b6200021260048036038101906200020c9190620020ed565b620005fe565b6040516200022191906200213e565b60405180910390f35b6200023462000647565b6040516200024391906200213e565b60405180910390f35b6200026a600480360381019062000264919062001e26565b6200066b565b005b6200028a60048036038101906200028491906200215b565b620006c6565b005b620002aa6004803603810190620002a4919062001e26565b62000bec565b604051620002b99190620021d4565b60405180910390f35b620002e06004803603810190620002da919062002068565b62000c0c565b005b620003006004803603810190620002fa919062002068565b62001247565b005b6200032060048036038101906200031a919062002068565b620014f2565b6040516200033193929190620021f1565b60405180910390f35b620003446200155a565b005b6200036460048036038101906200035e91906200215b565b620016ce565b005b600063150b7a0260e01b905095945050505050565b6000600460008373ffffffffffffffffffffffffffffffffffffffff1673ffffffffffffffffffffffffffffffffffffffff16815260200190815260200160002060006101000a81548160ff02191690831515021790555050565b60036020528060005260406000206000915090505481565b600460003373ffffffffffffffffffffffffffffffffffffffff1673ffffffffffffffffffffffffffffffffffffffff16815260200190815260200160002060009054906101000a900460ff166200047d576040517f08c379a00000000000000000000000000000000000000000000000000000000081526004016200047490620022b5565b60405180910390fd5b600082826040516020016200049492919062002350565b6040516020818303038152906040528051906020012090506000818484604051620004bf9062001c06565b620004cc929190620023b9565b8190604051809103906000f5905080158015620004ed573d6000803e3d6000fd5b509050600081905080600286604051620005089190620023f4565b908152602001604051809103902060006101000a81548173ffffffffffffffffffffffffffffffffffffffff021916908373ffffffffffffffffffffffffffffffffffffffff1602179055508073ffffffffffffffffffffffffffffffffffffffff167f34222b7638939db0b8b07694798a0e33eb5c6cc50e7bafc23b83f9c6d6738fb186866040516200059e929190620023b9565b60405180910390a25050505050565b6000602052816000526040600020602052806000526040600020600091509150508060000154908060010160009054906101000a900473ffffffffffffffffffffffffffffffffffffffff16905082565b6002818051602081018201805184825260208301602085012081835280955050505050506000915054906101000a900473ffffffffffffffffffffffffffffffffffffffff1681565b7f000000000000000000000000000000000000000000000000000000000000000081565b6001600460008373ffffffffffffffffffffffffffffffffffffffff1673ffffffffffffffffffffffffffffffffffffffff16815260200190815260200160002060006101000a81548160ff02191690831515021790555050565b828260008290503373ffffffffffffffffffffffffffffffffffffffff168173ffffffffffffffffffffffffffffffffffffffff16636352211e846040518263ffffffff1660e01b81526004016200071f919062001e69565b602060405180830381865afa1580156200073d573d6000803e3d6000fd5b505050506040513d601f19601f8201168201806040525081019062000763919062002424565b73ffffffffffffffffffffffffffffffffffffffff1614620007bc576040517f08c379a0000000000000000000000000000000000000000000000000000000008152600401620007b390620024cc565b60405180910390fd5b600086905060008060008973ffffffffffffffffffffffffffffffffffffffff1673ffffffffffffffffffffffffffffffffffffffff16815260200190815260200160002060008881526020019081526020016000206000015411156200085e5786866040517ff685412800000000000000000000000000000000000000000000000000000000815260040162000855929190620024ee565b60405180910390fd5b3073ffffffffffffffffffffffffffffffffffffffff168173ffffffffffffffffffffffffffffffffffffffff1663081812fc886040518263ffffffff1660e01b8152600401620008b0919062001e69565b602060405180830381865afa158015620008ce573d6000803e3d6000fd5b505050506040513d601f19601f82011682018060405250810190620008f4919062002424565b73ffffffffffffffffffffffffffffffffffffffff1614620009515786866040517fce99e4c200000000000000000000000000000000000000000000000000000000815260040162000948929190620024ee565b60405180910390fd5b8073ffffffffffffffffffffffffffffffffffffffff166342842e0e3330896040518463ffffffff1660e01b815260040162000990939291906200251b565b600060405180830381600087803b158015620009ab57600080fd5b505af1158015620009c0573d6000803e3d6000fd5b5050505060405180604001604052808681526020013373ffffffffffffffffffffffffffffffffffffffff168152506000808973ffffffffffffffffffffffffffffffffffffffff1673ffffffffffffffffffffffffffffffffffffffff16815260200190815260200160002060008881526020019081526020016000206000820151816000015560208201518160010160006101000a81548173ffffffffffffffffffffffffffffffffffffffff021916908373ffffffffffffffffffffffffffffffffffffffff160217905550905050600160003373ffffffffffffffffffffffffffffffffffffffff1673ffffffffffffffffffffffffffffffffffffffff16815260200190815260200160002060405180606001604052808973ffffffffffffffffffffffffffffffffffffffff16815260200188815260200187815250908060018154018082558091505060019003906000526020600020906003020160009091909190915060008201518160000160006101000a81548173ffffffffffffffffffffffffffffffffffffffff021916908373ffffffffffffffffffffffffffffffffffffffff16021790555060208201518160010155604082015181600201555050858773ffffffffffffffffffffffffffffffffffffffff163373ffffffffffffffffffffffffffffffffffffffff167fe664fba7e620635adc11289eccf06ecb889c3875d377d16291a5d77292f6309160405160405180910390a450505050505050565b60046020528060005260406000206000915054906101000a900460ff1681565b818160008060008473ffffffffffffffffffffffffffffffffffffffff1673ffffffffffffffffffffffffffffffffffffffff1681526020019081526020016000206000838152602001908152602001600020604051806040016040529081600082015481526020016001820160009054906101000a900473ffffffffffffffffffffffffffffffffffffffff1673ffffffffffffffffffffffffffffffffffffffff1673ffffffffffffffffffffffffffffffffffffffff16815250509050600081600001511162000d16576040517f08c379a000000000000000000000000000000000000000000000000000000000815260040162000d0d90620025a8565b60405180910390fd5b60008060008773ffffffffffffffffffffffffffffffffffffffff1673ffffffffffffffffffffffffffffffffffffffff1681526020019081526020016000206000868152602001908152602001600020604051806040016040529081600082015481526020016001820160009054906101000a900473ffffffffffffffffffffffffffffffffffffffff1673ffffffffffffffffffffffffffffffffffffffff1673ffffffffffffffffffffffffffffffffffffffff1681525050905060007f0000000000000000000000000000000000000000000000000000000000000000905060008173ffffffffffffffffffffffffffffffffffffffff1663dd62ed3e33306040518363ffffffff1660e01b815260040162000e38929190620025ca565b602060405180830381865afa15801562000e56573d6000803e3d6000fd5b505050506040513d601f19601f8201168201806040525081019062000e7c91906200260e565b905060008273ffffffffffffffffffffffffffffffffffffffff166370a08231336040518263ffffffff1660e01b815260040162000ebb91906200213e565b602060405180830381865afa15801562000ed9573d6000803e3d6000fd5b505050506040513d601f19601f8201168201806040525081019062000eff91906200260e565b9050836000015182101562000f4f5733826040517ff58c4ebe00000000000000000000000000000000000000000000000000000000815260040162000f46929190620024ee565b60405180910390fd5b836000015181101562000fa357338185600001516040517fdb42144d00000000000000000000000000000000000000000000000000000000815260040162000f9a93929190620021f1565b60405180910390fd5b8273ffffffffffffffffffffffffffffffffffffffff166323b872dd333087600001516040518463ffffffff1660e01b815260040162000fe6939291906200251b565b6020604051808303816000875af115801562001006573d6000803e3d6000fd5b505050506040513d601f19601f820116820180604052508101906200102c919062002671565b50836000015160036000866020015173ffffffffffffffffffffffffffffffffffffffff1673ffffffffffffffffffffffffffffffffffffffff1681526020019081526020016000206000828254620010869190620026d2565b925050819055506000808a73ffffffffffffffffffffffffffffffffffffffff1673ffffffffffffffffffffffffffffffffffffffff16815260200190815260200160002060008981526020019081526020016000206000808201600090556001820160006101000a81549073ffffffffffffffffffffffffffffffffffffffff021916905550506200115d60016000866020015173ffffffffffffffffffffffffffffffffffffffff1673ffffffffffffffffffffffffffffffffffffffff1681526020019081526020016000208a8a620018eb565b8873ffffffffffffffffffffffffffffffffffffffff166342842e0e30338b6040518463ffffffff1660e01b81526004016200119c939291906200251b565b600060405180830381600087803b158015620011b757600080fd5b505af1158015620011cc573d6000803e3d6000fd5b50505050878973ffffffffffffffffffffffffffffffffffffffff163373ffffffffffffffffffffffffffffffffffffffff167fc6d7a5e59f38ae48e0f1577ce4627ba9b270bfd4c2c0c7be609c429421bc3d68876000015160405162001234919062001e69565b60405180910390a4505050505050505050565b818160008060008473ffffffffffffffffffffffffffffffffffffffff1673ffffffffffffffffffffffffffffffffffffffff1681526020019081526020016000206000838152602001908152602001600020604051806040016040529081600082015481526020016001820160009054906101000a900473ffffffffffffffffffffffffffffffffffffffff1673ffffffffffffffffffffffffffffffffffffffff1673ffffffffffffffffffffffffffffffffffffffff16815250509050600081600001511162001351576040517f08c379a00000000000000000000000000000000000000000000000000000000081526004016200134890620025a8565b60405180910390fd5b6000808673ffffffffffffffffffffffffffffffffffffffff1673ffffffffffffffffffffffffffffffffffffffff16815260200190815260200160002060008581526020019081526020016000206000808201600090556001820160006101000a81549073ffffffffffffffffffffffffffffffffffffffff021916905550506200141d600160003373ffffffffffffffffffffffffffffffffffffffff1673ffffffffffffffffffffffffffffffffffffffff1681526020019081526020016000208686620018eb565b8473ffffffffffffffffffffffffffffffffffffffff166342842e0e3033876040518463ffffffff1660e01b81526004016200145c939291906200251b565b600060405180830381600087803b1580156200147757600080fd5b505af11580156200148c573d6000803e3d6000fd5b50505050838573ffffffffffffffffffffffffffffffffffffffff163373ffffffffffffffffffffffffffffffffffffffff167f061e64e10e5e57615a6fe38b48c81926f6999a2f5304d3e5e6b0d3cfac4865a560405160405180910390a45050505050565b600160205281600052604060002081815481106200150f57600080fd5b9060005260206000209060030201600091509150508060000160009054906101000a900473ffffffffffffffffffffffffffffffffffffffff16908060010154908060020154905083565b6000600360003373ffffffffffffffffffffffffffffffffffffffff1673ffffffffffffffffffffffffffffffffffffffff16815260200190815260200160002054905060008111620015e4576040517f08c379a0000000000000000000000000000000000000000000000000000000008152600401620015db906200275d565b60405180910390fd5b600360003373ffffffffffffffffffffffffffffffffffffffff1673ffffffffffffffffffffffffffffffffffffffff168152602001908152602001600020600090557f000000000000000000000000000000000000000000000000000000000000000073ffffffffffffffffffffffffffffffffffffffff1663a9059cbb33836040518363ffffffff1660e01b815260040162001684929190620024ee565b6020604051808303816000875af1158015620016a4573d6000803e3d6000fd5b505050506040513d601f19601f82011682018060405250810190620016ca919062002671565b5050565b828260008060008473ffffffffffffffffffffffffffffffffffffffff1673ffffffffffffffffffffffffffffffffffffffff1681526020019081526020016000206000838152602001908152602001600020604051806040016040529081600082015481526020016001820160009054906101000a900473ffffffffffffffffffffffffffffffffffffffff1673ffffffffffffffffffffffffffffffffffffffff1673ffffffffffffffffffffffffffffffffffffffff168152505090506000816000015111620017d8576040517f08c379a0000000000000000000000000000000000000000000000000000000008152600401620017cf90620025a8565b60405180910390fd5b836000808873ffffffffffffffffffffffffffffffffffffffff1673ffffffffffffffffffffffffffffffffffffffff1681526020019081526020016000206000878152602001908152602001600020600001819055506200187b600160003373ffffffffffffffffffffffffffffffffffffffff1673ffffffffffffffffffffffffffffffffffffffff16815260200190815260200160002087878762001b00565b848673ffffffffffffffffffffffffffffffffffffffff163373ffffffffffffffffffffffffffffffffffffffff167ff27d99858c492867d3a1e9dad2f0e80c4d41e8fcc070ed85eec4d2faaed9bd9087604051620018db919062001e69565b60405180910390a4505050505050565b60005b838054905081101562001afa578273ffffffffffffffffffffffffffffffffffffffff168482815481106200192857620019276200277f565b5b906000526020600020906003020160000160009054906101000a900473ffffffffffffffffffffffffffffffffffffffff1673ffffffffffffffffffffffffffffffffffffffff16148015620019a457508184828154811062001990576200198f6200277f565b5b906000526020600020906003020160010154145b1562001aec578360018580549050620019be9190620027ae565b81548110620019d257620019d16200277f565b5b9060005260206000209060030201848281548110620019f657620019f56200277f565b5b90600052602060002090600302016000820160009054906101000a900473ffffffffffffffffffffffffffffffffffffffff168160000160006101000a81548173ffffffffffffffffffffffffffffffffffffffff021916908373ffffffffffffffffffffffffffffffffffffffff16021790555060018201548160010155600282015481600201559050508380548062001a965762001a95620027e9565b5b6001900381819060005260206000209060030201600080820160006101000a81549073ffffffffffffffffffffffffffffffffffffffff0219169055600182016000905560028201600090555050905562001afa565b8080600101915050620018ee565b50505050565b60005b848054905081101562001bff578373ffffffffffffffffffffffffffffffffffffffff1685828154811062001b3d5762001b3c6200277f565b5b906000526020600020906003020160000160009054906101000a900473ffffffffffffffffffffffffffffffffffffffff1673ffffffffffffffffffffffffffffffffffffffff1614801562001bb957508285828154811062001ba55762001ba46200277f565b5b906000526020600020906003020160010154145b1562001bf1578185828154811062001bd65762001bd56200277f565b5b90600052602060002090600302016002018190555062001bff565b808060010191505062001b03565b5050505050565b6129e7806200281983390190565b6000604051905090565b600080fd5b600080fd5b600073ffffffffffffffffffffffffffffffffffffffff82169050919050565b600062001c558262001c28565b9050919050565b62001c678162001c48565b811462001c7357600080fd5b50565b60008135905062001c878162001c5c565b92915050565b6000819050919050565b62001ca28162001c8d565b811462001cae57600080fd5b50565b60008135905062001cc28162001c97565b92915050565b600080fd5b600080fd5b600080fd5b60008083601f84011262001cf05762001cef62001cc8565b5b8235905067ffffffffffffffff81111562001d105762001d0f62001ccd565b5b60208301915083600182028301111562001d2f5762001d2e62001cd2565b5b9250929050565b60008060008060006080868803121562001d555762001d5462001c1e565b5b600062001d658882890162001c76565b955050602062001d788882890162001c76565b945050604062001d8b8882890162001cb1565b935050606086013567ffffffffffffffff81111562001daf5762001dae62001c23565b5b62001dbd8882890162001cd7565b92509250509295509295909350565b60007fffffffff0000000000000000000000000000000000000000000000000000000082169050919050565b62001e038162001dcc565b82525050565b600060208201905062001e20600083018462001df8565b92915050565b60006020828403121562001e3f5762001e3e62001c1e565b5b600062001e4f8482850162001c76565b91505092915050565b62001e638162001c8d565b82525050565b600060208201905062001e80600083018462001e58565b92915050565b600080fd5b6000601f19601f8301169050919050565b7f4e487b7100000000000000000000000000000000000000000000000000000000600052604160045260246000fd5b62001ed68262001e8b565b810181811067ffffffffffffffff8211171562001ef85762001ef762001e9c565b5b80604052505050565b600062001f0d62001c14565b905062001f1b828262001ecb565b919050565b600067ffffffffffffffff82111562001f3e5762001f3d62001e9c565b5b62001f498262001e8b565b9050602081019050919050565b82818337600083830152505050565b600062001f7c62001f768462001f20565b62001f01565b90508281526020810184848401111562001f9b5762001f9a62001e86565b5b62001fa884828562001f56565b509392505050565b600082601f83011262001fc85762001fc762001cc8565b5b813562001fda84826020860162001f65565b91505092915050565b6000806040838503121562001ffd5762001ffc62001c1e565b5b600083013567ffffffffffffffff8111156200201e576200201d62001c23565b5b6200202c8582860162001fb0565b925050602083013567ffffffffffffffff81111562002050576200204f62001c23565b5b6200205e8582860162001fb0565b9150509250929050565b6000806040838503121562002082576200208162001c1e565b5b6000620020928582860162001c76565b9250506020620020a58582860162001cb1565b9150509250929050565b620020ba8162001c48565b82525050565b6000604082019050620020d7600083018562001e58565b620020e66020830184620020af565b9392505050565b60006020828403121562002106576200210562001c1e565b5b600082013567ffffffffffffffff81111562002127576200212662001c23565b5b620021358482850162001fb0565b91505092915050565b6000602082019050620021556000830184620020af565b92915050565b60008060006060848603121562002177576200217662001c1e565b5b6000620021878682870162001c76565b93505060206200219a8682870162001cb1565b9250506040620021ad8682870162001cb1565b9150509250925092565b60008115159050919050565b620021ce81620021b7565b82525050565b6000602082019050620021eb6000830184620021c3565b92915050565b6000606082019050620022086000830186620020af565b62002217602083018562001e58565b62002226604083018462001e58565b949350505050565b600082825260208201905092915050565b7f4f6e6c792077686974656c6973746564206164647265737365732063616e206360008201527f616c6c20746869732066756e6374696f6e2e0000000000000000000000000000602082015250565b60006200229d6032836200222e565b9150620022aa826200223f565b604082019050919050565b60006020820190508181036000830152620022d0816200228e565b9050919050565b600081519050919050565b600081905092915050565b60005b838110156200230d578082015181840152602081019050620022f0565b60008484015250505050565b60006200232682620022d7565b620023328185620022e2565b935062002344818560208601620022ed565b80840191505092915050565b60006200235e828562002319565b91506200236c828462002319565b91508190509392505050565b60006200238582620022d7565b6200239181856200222e565b9350620023a3818560208601620022ed565b620023ae8162001e8b565b840191505092915050565b60006040820190508181036000830152620023d5818562002378565b90508181036020830152620023eb818462002378565b90509392505050565b600062002402828462002319565b915081905092915050565b6000815190506200241e8162001c5c565b92915050565b6000602082840312156200243d576200243c62001c1e565b5b60006200244d848285016200240d565b91505092915050565b7f54686973204e4654206973206e6f742062656c6f6e6720746f2063757272656e60008201527f7420616464726573732100000000000000000000000000000000000000000000602082015250565b6000620024b4602a836200222e565b9150620024c18262002456565b604082019050919050565b60006020820190508181036000830152620024e781620024a5565b9050919050565b6000604082019050620025056000830185620020af565b62002514602083018462001e58565b9392505050565b6000606082019050620025326000830186620020af565b620025416020830185620020af565b62002550604083018462001e58565b949350505050565b7f43757272656e74204e465420686173206e6f206c697374656421000000000000600082015250565b600062002590601a836200222e565b91506200259d8262002558565b602082019050919050565b60006020820190508181036000830152620025c38162002581565b9050919050565b6000604082019050620025e16000830185620020af565b620025f06020830184620020af565b9392505050565b600081519050620026088162001c97565b92915050565b60006020828403121562002627576200262662001c1e565b5b60006200263784828501620025f7565b91505092915050565b6200264b81620021b7565b81146200265757600080fd5b50565b6000815190506200266b8162002640565b92915050565b6000602082840312156200268a576200268962001c1e565b5b60006200269a848285016200265a565b91505092915050565b7f4e487b7100000000000000000000000000000000000000000000000000000000600052601160045260246000fd5b6000620026df8262001c8d565b9150620026ec8362001c8d565b9250828201905080821115620027075762002706620026a3565b5b92915050565b7f796f752068617665206e6f2070726f6365656473210000000000000000000000600082015250565b6000620027456015836200222e565b915062002752826200270d565b602082019050919050565b60006020820190508181036000830152620027788162002736565b9050919050565b7f4e487b7100000000000000000000000000000000000000000000000000000000600052603260045260246000fd5b6000620027bb8262001c8d565b9150620027c88362001c8d565b9250828203905081811115620027e357620027e2620026a3565b5b92915050565b7f4e487b7100000000000000000000000000000000000000000000000000000000600052603160045260246000fdfe60806040523480156200001157600080fd5b50604051620029e7380380620029e78339818101604052810190620000379190620001fa565b818181600090816200004a9190620004ca565b5080600190816200005c9190620004ca565b5050505050620005b1565b6000604051905090565b600080fd5b600080fd5b600080fd5b600080fd5b6000601f19601f8301169050919050565b7f4e487b7100000000000000000000000000000000000000000000000000000000600052604160045260246000fd5b620000d08262000085565b810181811067ffffffffffffffff82111715620000f257620000f162000096565b5b80604052505050565b60006200010762000067565b9050620001158282620000c5565b919050565b600067ffffffffffffffff82111562000138576200013762000096565b5b620001438262000085565b9050602081019050919050565b60005b838110156200017057808201518184015260208101905062000153565b60008484015250505050565b6000620001936200018d846200011a565b620000fb565b905082815260208101848484011115620001b257620001b162000080565b5b620001bf84828562000150565b509392505050565b600082601f830112620001df57620001de6200007b565b5b8151620001f18482602086016200017c565b91505092915050565b6000806040838503121562000214576200021362000071565b5b600083015167ffffffffffffffff81111562000235576200023462000076565b5b6200024385828601620001c7565b925050602083015167ffffffffffffffff81111562000267576200026662000076565b5b6200027585828601620001c7565b9150509250929050565b600081519050919050565b7f4e487b7100000000000000000000000000000000000000000000000000000000600052602260045260246000fd5b60006002820490506001821680620002d257607f821691505b602082108103620002e857620002e76200028a565b5b50919050565b60008190508160005260206000209050919050565b60006020601f8301049050919050565b600082821b905092915050565b600060088302620003527fffffffffffffffffffffffffffffffffffffffffffffffffffffffffffffffff8262000313565b6200035e868362000313565b95508019841693508086168417925050509392505050565b6000819050919050565b6000819050919050565b6000620003ab620003a56200039f8462000376565b62000380565b62000376565b9050919050565b6000819050919050565b620003c7836200038a565b620003df620003d682620003b2565b84845462000320565b825550505050565b600090565b620003f6620003e7565b62000403818484620003bc565b505050565b5b818110156200042b576200041f600082620003ec565b60018101905062000409565b5050565b601f8211156200047a576200044481620002ee565b6200044f8462000303565b810160208510156200045f578190505b620004776200046e8562000303565b83018262000408565b50505b505050565b600082821c905092915050565b60006200049f600019846008026200047f565b1980831691505092915050565b6000620004ba83836200048c565b9150826002028217905092915050565b620004d5826200027f565b67ffffffffffffffff811115620004f157620004f062000096565b5b620004fd8254620002b9565b6200050a8282856200042f565b600060209050601f8311600181146200054257600084156200052d578287015190505b620005398582620004ac565b865550620005a9565b601f1984166200055286620002ee565b60005b828110156200057c5784890151825560018201915060208501945060208101905062000555565b868310156200059c578489015162000598601f8916826200048c565b8355505b6001600288020188555050505b505050505050565b61242680620005c16000396000f3fe608060405234801561001057600080fd5b50600436106100f55760003560e01c806370a0823111610097578063c754584911610066578063c754584914610282578063c87b56dd1461029e578063d082e381146102ce578063e985e9c5146102ec576100f5565b806370a08231146101fc57806395d89b411461022c578063a22cb4651461024a578063b88d4fde14610266576100f5565b8063095ea7b3116100d3578063095ea7b31461017857806323b872dd1461019457806342842e0e146101b05780636352211e146101cc576100f5565b806301ffc9a7146100fa57806306fdde031461012a578063081812fc14610148575b600080fd5b610114600480360381019061010f9190611867565b61031c565b60405161012191906118af565b60405180910390f35b61013261037d565b60405161013f919061195a565b60405180910390f35b610162600480360381019061015d91906119b2565b61040f565b60405161016f9190611a20565b60405180910390f35b610192600480360381019061018d9190611a67565b61042b565b005b6101ae60048036038101906101a99190611aa7565b610441565b005b6101ca60048036038101906101c59190611aa7565b610543565b005b6101e660048036038101906101e191906119b2565b610563565b6040516101f39190611a20565b60405180910390f35b61021660048036038101906102119190611afa565b610575565b6040516102239190611b36565b60405180910390f35b61023461062f565b604051610241919061195a565b60405180910390f35b610264600480360381019061025f9190611b7d565b6106c1565b005b610280600480360381019061027b9190611cf2565b6106d7565b005b61029c60048036038101906102979190611e16565b6106f4565b005b6102b860048036038101906102b391906119b2565b610766565b6040516102c5919061195a565b60405180910390f35b6102d6610879565b6040516102e39190611b36565b60405180910390f35b61030660048036038101906103019190611e5f565b61087f565b60405161031391906118af565b60405180910390f35b6000634906490660e01b7bffffffffffffffffffffffffffffffffffffffffffffffffffffffff1916827bffffffffffffffffffffffffffffffffffffffffffffffffffffffff19161480610376575061037582610913565b5b9050919050565b60606000805461038c90611ece565b80601f01602080910402602001604051908101604052809291908181526020018280546103b890611ece565b80156104055780601f106103da57610100808354040283529160200191610405565b820191906000526020600020905b8154815290600101906020018083116103e857829003601f168201915b5050505050905090565b600061041a826109f5565b5061042482610a7d565b9050919050565b61043d8282610438610aba565b610ac2565b5050565b600073ffffffffffffffffffffffffffffffffffffffff168273ffffffffffffffffffffffffffffffffffffffff16036104b35760006040517f64a0ae920000000000000000000000000000000000000000000000000000000081526004016104aa9190611a20565b60405180910390fd5b60006104c783836104c2610aba565b610ad4565b90508373ffffffffffffffffffffffffffffffffffffffff168173ffffffffffffffffffffffffffffffffffffffff161461053d578382826040517f64283d7b00000000000000000000000000000000000000000000000000000000815260040161053493929190611eff565b60405180910390fd5b50505050565b61055e838383604051806020016040528060008152506106d7565b505050565b600061056e826109f5565b9050919050565b60008073ffffffffffffffffffffffffffffffffffffffff168273ffffffffffffffffffffffffffffffffffffffff16036105e85760006040517f89c62b640000000000000000000000000000000000000000000000000000000081526004016105df9190611a20565b60405180910390fd5b600360008373ffffffffffffffffffffffffffffffffffffffff1673ffffffffffffffffffffffffffffffffffffffff168152602001908152602001600020549050919050565b60606001805461063e90611ece565b80601f016020809104026020016040519081016040528092919081815260200182805461066a90611ece565b80156106b75780601f1061068c576101008083540402835291602001916106b7565b820191906000526020600020905b81548152906001019060200180831161069a57829003601f168201915b5050505050905090565b6106d36106cc610aba565b8383610cee565b5050565b6106e2848484610441565b6106ee84848484610e5d565b50505050565b61070033600754611014565b61070c6007548261110d565b7f899b99f6c26ce7a463fc72a3a36ae78b414dae9cfa6e88e8580ec708e70f30b0336007548360405161074193929190611f36565b60405180910390a160016007600082825461075c9190611fa3565b9250508190555050565b6060610771826109f5565b50600060066000848152602001908152602001600020805461079290611ece565b80601f01602080910402602001604051908101604052809291908181526020018280546107be90611ece565b801561080b5780601f106107e05761010080835404028352916020019161080b565b820191906000526020600020905b8154815290600101906020018083116107ee57829003601f168201915b50505050509050600061081c611169565b90506000815103610831578192505050610874565b60008251111561086657808260405160200161084e929190612013565b60405160208183030381529060405292505050610874565b61086f84611180565b925050505b919050565b60075481565b6000600560008473ffffffffffffffffffffffffffffffffffffffff1673ffffffffffffffffffffffffffffffffffffffff16815260200190815260200160002060008373ffffffffffffffffffffffffffffffffffffffff1673ffffffffffffffffffffffffffffffffffffffff16815260200190815260200160002060009054906101000a900460ff16905092915050565b60007f80ac58cd000000000000000000000000000000000000000000000000000000007bffffffffffffffffffffffffffffffffffffffffffffffffffffffff1916827bffffffffffffffffffffffffffffffffffffffffffffffffffffffff191614806109de57507f5b5e139f000000000000000000000000000000000000000000000000000000007bffffffffffffffffffffffffffffffffffffffffffffffffffffffff1916827bffffffffffffffffffffffffffffffffffffffffffffffffffffffff1916145b806109ee57506109ed826111e9565b5b9050919050565b600080610a0183611253565b9050600073ffffffffffffffffffffffffffffffffffffffff168173ffffffffffffffffffffffffffffffffffffffff1603610a7457826040517f7e273289000000000000000000000000000000000000000000000000000000008152600401610a6b9190611b36565b60405180910390fd5b80915050919050565b60006004600083815260200190815260200160002060009054906101000a900473ffffffffffffffffffffffffffffffffffffffff169050919050565b600033905090565b610acf8383836001611290565b505050565b600080610ae084611253565b9050600073ffffffffffffffffffffffffffffffffffffffff168373ffffffffffffffffffffffffffffffffffffffff1614610b2257610b21818486611455565b5b600073ffffffffffffffffffffffffffffffffffffffff168173ffffffffffffffffffffffffffffffffffffffff1614610bb357610b64600085600080611290565b6001600360008373ffffffffffffffffffffffffffffffffffffffff1673ffffffffffffffffffffffffffffffffffffffff168152602001908152602001600020600082825403925050819055505b600073ffffffffffffffffffffffffffffffffffffffff168573ffffffffffffffffffffffffffffffffffffffff1614610c36576001600360008773ffffffffffffffffffffffffffffffffffffffff1673ffffffffffffffffffffffffffffffffffffffff168152602001908152602001600020600082825401925050819055505b846002600086815260200190815260200160002060006101000a81548173ffffffffffffffffffffffffffffffffffffffff021916908373ffffffffffffffffffffffffffffffffffffffff160217905550838573ffffffffffffffffffffffffffffffffffffffff168273ffffffffffffffffffffffffffffffffffffffff167fddf252ad1be2c89b69c2b068fc378daa952ba7f163c4a11628f55a4df523b3ef60405160405180910390a4809150509392505050565b600073ffffffffffffffffffffffffffffffffffffffff168273ffffffffffffffffffffffffffffffffffffffff1603610d5f57816040517f5b08ba18000000000000000000000000000000000000000000000000000000008152600401610d569190611a20565b60405180910390fd5b80600560008573ffffffffffffffffffffffffffffffffffffffff1673ffffffffffffffffffffffffffffffffffffffff16815260200190815260200160002060008473ffffffffffffffffffffffffffffffffffffffff1673ffffffffffffffffffffffffffffffffffffffff16815260200190815260200160002060006101000a81548160ff0219169083151502179055508173ffffffffffffffffffffffffffffffffffffffff168373ffffffffffffffffffffffffffffffffffffffff167f17307eab39ab6107e8899845ad3d59bd9653f200f220920489ca2b5937696c3183604051610e5091906118af565b60405180910390a3505050565b60008373ffffffffffffffffffffffffffffffffffffffff163b111561100e578273ffffffffffffffffffffffffffffffffffffffff1663150b7a02610ea1610aba565b8685856040518563ffffffff1660e01b8152600401610ec3949392919061208c565b6020604051808303816000875af1925050508015610eff57506040513d601f19601f82011682018060405250810190610efc91906120ed565b60015b610f83573d8060008114610f2f576040519150601f19603f3d011682016040523d82523d6000602084013e610f34565b606091505b506000815103610f7b57836040517f64a0ae92000000000000000000000000000000000000000000000000000000008152600401610f729190611a20565b60405180910390fd5b805181602001fd5b63150b7a0260e01b7bffffffffffffffffffffffffffffffffffffffffffffffffffffffff1916817bffffffffffffffffffffffffffffffffffffffffffffffffffffffff19161461100c57836040517f64a0ae920000000000000000000000000000000000000000000000000000000081526004016110039190611a20565b60405180910390fd5b505b50505050565b600073ffffffffffffffffffffffffffffffffffffffff168273ffffffffffffffffffffffffffffffffffffffff16036110865760006040517f64a0ae9200000000000000000000000000000000000000000000000000000000815260040161107d9190611a20565b60405180910390fd5b600061109483836000610ad4565b9050600073ffffffffffffffffffffffffffffffffffffffff168173ffffffffffffffffffffffffffffffffffffffff16146111085760006040517f73c6ac6e0000000000000000000000000000000000000000000000000000000081526004016110ff9190611a20565b60405180910390fd5b505050565b8060066000848152602001908152602001600020908161112d91906122c6565b507ff8e1a15aba9398e019f0b49df1a4fde98ee17ae345cb5f6b5e2c27f5033e8ce78260405161115d9190611b36565b60405180910390a15050565b606060405180602001604052806000815250905090565b606061118b826109f5565b506000611196611169565b905060008151116111b657604051806020016040528060008152506111e1565b806111c084611519565b6040516020016111d1929190612013565b6040516020818303038152906040525b915050919050565b60007f01ffc9a7000000000000000000000000000000000000000000000000000000007bffffffffffffffffffffffffffffffffffffffffffffffffffffffff1916827bffffffffffffffffffffffffffffffffffffffffffffffffffffffff1916149050919050565b60006002600083815260200190815260200160002060009054906101000a900473ffffffffffffffffffffffffffffffffffffffff169050919050565b80806112c95750600073ffffffffffffffffffffffffffffffffffffffff168273ffffffffffffffffffffffffffffffffffffffff1614155b156113fd5760006112d9846109f5565b9050600073ffffffffffffffffffffffffffffffffffffffff168373ffffffffffffffffffffffffffffffffffffffff161415801561134457508273ffffffffffffffffffffffffffffffffffffffff168173ffffffffffffffffffffffffffffffffffffffff1614155b80156113575750611355818461087f565b155b1561139957826040517fa9fbf51f0000000000000000000000000000000000000000000000000000000081526004016113909190611a20565b60405180910390fd5b81156113fb57838573ffffffffffffffffffffffffffffffffffffffff168273ffffffffffffffffffffffffffffffffffffffff167f8c5be1e5ebec7d5bd14f71427d1e84f3dd0314c0f7b2291e5b200ac8c7c3b92560405160405180910390a45b505b836004600085815260200190815260200160002060006101000a81548173ffffffffffffffffffffffffffffffffffffffff021916908373ffffffffffffffffffffffffffffffffffffffff16021790555050505050565b6114608383836115e7565b61151457600073ffffffffffffffffffffffffffffffffffffffff168373ffffffffffffffffffffffffffffffffffffffff16036114d557806040517f7e2732890000000000000000000000000000000000000000000000000000000081526004016114cc9190611b36565b60405180910390fd5b81816040517f177e802f00000000000000000000000000000000000000000000000000000000815260040161150b929190612398565b60405180910390fd5b505050565b606060006001611528846116a8565b01905060008167ffffffffffffffff81111561154757611546611bc7565b5b6040519080825280601f01601f1916602001820160405280156115795781602001600182028036833780820191505090505b509050600082602001820190505b6001156115dc578080600190039150507f3031323334353637383961626364656600000000000000000000000000000000600a86061a8153600a85816115d0576115cf6123c1565b5b04945060008503611587575b819350505050919050565b60008073ffffffffffffffffffffffffffffffffffffffff168373ffffffffffffffffffffffffffffffffffffffff161415801561169f57508273ffffffffffffffffffffffffffffffffffffffff168473ffffffffffffffffffffffffffffffffffffffff161480611660575061165f848461087f565b5b8061169e57508273ffffffffffffffffffffffffffffffffffffffff1661168683610a7d565b73ffffffffffffffffffffffffffffffffffffffff16145b5b90509392505050565b600080600090507a184f03e93ff9f4daa797ed6e38ed64bf6a1f0100000000000000008310611706577a184f03e93ff9f4daa797ed6e38ed64bf6a1f01000000000000000083816116fc576116fb6123c1565b5b0492506040810190505b6d04ee2d6d415b85acef81000000008310611743576d04ee2d6d415b85acef81000000008381611739576117386123c1565b5b0492506020810190505b662386f26fc10000831061177257662386f26fc100008381611768576117676123c1565b5b0492506010810190505b6305f5e100831061179b576305f5e1008381611791576117906123c1565b5b0492506008810190505b61271083106117c05761271083816117b6576117b56123c1565b5b0492506004810190505b606483106117e357606483816117d9576117d86123c1565b5b0492506002810190505b600a83106117f2576001810190505b80915050919050565b6000604051905090565b600080fd5b600080fd5b60007fffffffff0000000000000000000000000000000000000000000000000000000082169050919050565b6118448161180f565b811461184f57600080fd5b50565b6000813590506118618161183b565b92915050565b60006020828403121561187d5761187c611805565b5b600061188b84828501611852565b91505092915050565b60008115159050919050565b6118a981611894565b82525050565b60006020820190506118c460008301846118a0565b92915050565b600081519050919050565b600082825260208201905092915050565b60005b838110156119045780820151818401526020810190506118e9565b60008484015250505050565b6000601f19601f8301169050919050565b600061192c826118ca565b61193681856118d5565b93506119468185602086016118e6565b61194f81611910565b840191505092915050565b600060208201905081810360008301526119748184611921565b905092915050565b6000819050919050565b61198f8161197c565b811461199a57600080fd5b50565b6000813590506119ac81611986565b92915050565b6000602082840312156119c8576119c7611805565b5b60006119d68482850161199d565b91505092915050565b600073ffffffffffffffffffffffffffffffffffffffff82169050919050565b6000611a0a826119df565b9050919050565b611a1a816119ff565b82525050565b6000602082019050611a356000830184611a11565b92915050565b611a44816119ff565b8114611a4f57600080fd5b50565b600081359050611a6181611a3b565b92915050565b60008060408385031215611a7e57611a7d611805565b5b6000611a8c85828601611a52565b9250506020611a9d8582860161199d565b9150509250929050565b600080600060608486031215611ac057611abf611805565b5b6000611ace86828701611a52565b9350506020611adf86828701611a52565b9250506040611af08682870161199d565b9150509250925092565b600060208284031215611b1057611b0f611805565b5b6000611b1e84828501611a52565b91505092915050565b611b308161197c565b82525050565b6000602082019050611b4b6000830184611b27565b92915050565b611b5a81611894565b8114611b6557600080fd5b50565b600081359050611b7781611b51565b92915050565b60008060408385031215611b9457611b93611805565b5b6000611ba285828601611a52565b9250506020611bb385828601611b68565b9150509250929050565b600080fd5b600080fd5b7f4e487b7100000000000000000000000000000000000000000000000000000000600052604160045260246000fd5b611bff82611910565b810181811067ffffffffffffffff82111715611c1e57611c1d611bc7565b5b80604052505050565b6000611c316117fb565b9050611c3d8282611bf6565b919050565b600067ffffffffffffffff821115611c5d57611c5c611bc7565b5b611c6682611910565b9050602081019050919050565b82818337600083830152505050565b6000611c95611c9084611c42565b611c27565b905082815260208101848484011115611cb157611cb0611bc2565b5b611cbc848285611c73565b509392505050565b600082601f830112611cd957611cd8611bbd565b5b8135611ce9848260208601611c82565b91505092915050565b60008060008060808587031215611d0c57611d0b611805565b5b6000611d1a87828801611a52565b9450506020611d2b87828801611a52565b9350506040611d3c8782880161199d565b925050606085013567ffffffffffffffff811115611d5d57611d5c61180a565b5b611d6987828801611cc4565b91505092959194509250565b600067ffffffffffffffff821115611d9057611d8f611bc7565b5b611d9982611910565b9050602081019050919050565b6000611db9611db484611d75565b611c27565b905082815260208101848484011115611dd557611dd4611bc2565b5b611de0848285611c73565b509392505050565b600082601f830112611dfd57611dfc611bbd565b5b8135611e0d848260208601611da6565b91505092915050565b600060208284031215611e2c57611e2b611805565b5b600082013567ffffffffffffffff811115611e4a57611e4961180a565b5b611e5684828501611de8565b91505092915050565b60008060408385031215611e7657611e75611805565b5b6000611e8485828601611a52565b9250506020611e9585828601611a52565b9150509250929050565b7f4e487b7100000000000000000000000000000000000000000000000000000000600052602260045260246000fd5b60006002820490506001821680611ee657607f821691505b602082108103611ef957611ef8611e9f565b5b50919050565b6000606082019050611f146000830186611a11565b611f216020830185611b27565b611f2e6040830184611a11565b949350505050565b6000606082019050611f4b6000830186611a11565b611f586020830185611b27565b8181036040830152611f6a8184611921565b9050949350505050565b7f4e487b7100000000000000000000000000000000000000000000000000000000600052601160045260246000fd5b6000611fae8261197c565b9150611fb98361197c565b9250828201905080821115611fd157611fd0611f74565b5b92915050565b600081905092915050565b6000611fed826118ca565b611ff78185611fd7565b93506120078185602086016118e6565b80840191505092915050565b600061201f8285611fe2565b915061202b8284611fe2565b91508190509392505050565b600081519050919050565b600082825260208201905092915050565b600061205e82612037565b6120688185612042565b93506120788185602086016118e6565b61208181611910565b840191505092915050565b60006080820190506120a16000830187611a11565b6120ae6020830186611a11565b6120bb6040830185611b27565b81810360608301526120cd8184612053565b905095945050505050565b6000815190506120e78161183b565b92915050565b60006020828403121561210357612102611805565b5b6000612111848285016120d8565b91505092915050565b60008190508160005260206000209050919050565b60006020601f8301049050919050565b600082821b905092915050565b60006008830261217c7fffffffffffffffffffffffffffffffffffffffffffffffffffffffffffffffff8261213f565b612186868361213f565b95508019841693508086168417925050509392505050565b6000819050919050565b60006121c36121be6121b98461197c565b61219e565b61197c565b9050919050565b6000819050919050565b6121dd836121a8565b6121f16121e9826121ca565b84845461214c565b825550505050565b600090565b6122066121f9565b6122118184846121d4565b505050565b5b818110156122355761222a6000826121fe565b600181019050612217565b5050565b601f82111561227a5761224b8161211a565b6122548461212f565b81016020851015612263578190505b61227761226f8561212f565b830182612216565b50505b505050565b600082821c905092915050565b600061229d6000198460080261227f565b1980831691505092915050565b60006122b6838361228c565b9150826002028217905092915050565b6122cf826118ca565b67ffffffffffffffff8111156122e8576122e7611bc7565b5b6122f28254611ece565b6122fd828285612239565b600060209050601f831160018114612330576000841561231e578287015190505b61232885826122aa565b865550612390565b601f19841661233e8661211a565b60005b8281101561236657848901518255600182019150602085019450602081019050612341565b86831015612383578489015161237f601f89168261228c565b8355505b6001600288020188555050505b505050505050565b60006040820190506123ad6000830185611a11565b6123ba6020830184611b27565b9392505050565b7f4e487b7100000000000000000000000000000000000000000000000000000000600052601260045260246000fdfea26469706673582212206260469a8e2a795a89578acf337355ee79b8d811df1a870d8b3e6261c830e09964736f6c63430008180033a26469706673582212201acc26149e7ecb84329ad6c08dc5bb8a84a3f37cf543af0256b4a3152966387864736f6c63430008180033",
  "linkReferences": {},
  "deployedLinkReferences": {}
}