{
  "_format": "hh-sol-artifact-1",
  "contractName": "NFTMarketPlace",
  "sourceName": "contracts/NFTMarketPlace.sol",
  "abi": [
    {
      "inputs": [
        {
          "internalType": "address",
          "name": "token",
          "type": "address"
        },
        {
          "internalType": "address",
          "name": "nft",
          "type": "address"
        }
      ],
      "stateMutability": "nonpayable",
      "type": "constructor"
    },
    {
      "inputs": [
        {
          "internalType": "address",
          "name": "nftAddress",
          "type": "address"
        },
        {
          "internalType": "uint256",
          "name": "tokenId",
          "type": "uint256"
        }
      ],
      "name": "HasListed",
      "type": "error"
    },
    {
      "inputs": [
        {
          "internalType": "address",
          "name": "buyer",
          "type": "address"
        },
        {
          "internalType": "uint256",
          "name": "allowance",
          "type": "uint256"
        }
      ],
      "name": "InsufficientApproveLimit",
      "type": "error"
    },
    {
      "inputs": [
        {
          "internalType": "address",
          "name": "buyer",
          "type": "address"
        },
        {
          "internalType": "uint256",
          "name": "balance",
          "type": "uint256"
        },
        {
          "internalType": "uint256",
          "name": "price",
          "type": "uint256"
        }
      ],
      "name": "InsufficientBalance",
      "type": "error"
    },
    {
      "inputs": [],
      "name": "ReentrancyGuardReentrantCall",
      "type": "error"
    },
    {
      "anonymous": false,
      "inputs": [
        {
          "indexed": true,
          "internalType": "address",
          "name": "buyer",
          "type": "address"
        },
        {
          "indexed": true,
          "internalType": "address",
          "name": "nftAddress",
          "type": "address"
        },
        {
          "indexed": true,
          "internalType": "uint256",
          "name": "tokenId",
          "type": "uint256"
        },
        {
          "indexed": false,
          "internalType": "uint256",
          "name": "price",
          "type": "uint256"
        }
      ],
      "name": "BuyItem",
      "type": "event"
    },
    {
      "anonymous": false,
      "inputs": [
        {
          "indexed": true,
          "internalType": "address",
          "name": "seller",
          "type": "address"
        },
        {
          "indexed": true,
          "internalType": "address",
          "name": "nftAddress",
          "type": "address"
        },
        {
          "indexed": true,
          "internalType": "uint256",
          "name": "tokenId",
          "type": "uint256"
        }
      ],
      "name": "CancelListing",
      "type": "event"
    },
    {
      "anonymous": false,
      "inputs": [
        {
          "indexed": true,
          "internalType": "address",
          "name": "seller",
          "type": "address"
        },
        {
          "indexed": true,
          "internalType": "address",
          "name": "nftAddress",
          "type": "address"
        },
        {
          "indexed": true,
          "internalType": "uint256",
          "name": "tokenId",
          "type": "uint256"
        },
        {
          "indexed": false,
          "internalType": "uint256",
          "name": "price",
          "type": "uint256"
        }
      ],
      "name": "ItemListed",
      "type": "event"
    },
    {
      "inputs": [],
      "name": "ASSET_NEXUS_NFT",
      "outputs": [
        {
          "internalType": "address",
          "name": "",
          "type": "address"
        }
      ],
      "stateMutability": "view",
      "type": "function"
    },
    {
      "inputs": [],
      "name": "ASSET_NEXUS_TOKEN",
      "outputs": [
        {
          "internalType": "address",
          "name": "",
          "type": "address"
        }
      ],
      "stateMutability": "view",
      "type": "function"
    },
    {
      "inputs": [
        {
          "internalType": "uint256",
          "name": "tokenId",
          "type": "uint256"
        }
      ],
      "name": "buyItem",
      "outputs": [],
      "stateMutability": "nonpayable",
      "type": "function"
    },
    {
      "inputs": [
        {
          "internalType": "uint256",
          "name": "tokenId",
          "type": "uint256"
        }
      ],
      "name": "cancelListing",
      "outputs": [],
      "stateMutability": "nonpayable",
      "type": "function"
    },
    {
      "inputs": [
        {
          "internalType": "uint256",
          "name": "price",
          "type": "uint256"
        },
        {
          "internalType": "uint256",
          "name": "tokenId",
          "type": "uint256"
        }
      ],
      "name": "listItem",
      "outputs": [],
      "stateMutability": "nonpayable",
      "type": "function"
    },
    {
      "inputs": [
        {
          "internalType": "address",
          "name": "",
          "type": "address"
        },
        {
          "internalType": "uint256",
          "name": "",
          "type": "uint256"
        }
      ],
      "name": "listing",
      "outputs": [
        {
          "internalType": "uint256",
          "name": "price",
          "type": "uint256"
        },
        {
          "internalType": "address",
          "name": "seller",
          "type": "address"
        }
      ],
      "stateMutability": "view",
      "type": "function"
    },
    {
      "inputs": [
        {
          "internalType": "address",
          "name": "operator",
          "type": "address"
        },
        {
          "internalType": "address",
          "name": "from",
          "type": "address"
        },
        {
          "internalType": "uint256",
          "name": "tokenId",
          "type": "uint256"
        },
        {
          "internalType": "bytes",
          "name": "data",
          "type": "bytes"
        }
      ],
      "name": "onERC721Received",
      "outputs": [
        {
          "internalType": "bytes4",
          "name": "",
          "type": "bytes4"
        }
      ],
      "stateMutability": "nonpayable",
      "type": "function"
    },
    {
      "inputs": [
        {
          "internalType": "address",
          "name": "",
          "type": "address"
        }
      ],
      "name": "proceeds",
      "outputs": [
        {
          "internalType": "uint256",
          "name": "",
          "type": "uint256"
        }
      ],
      "stateMutability": "view",
      "type": "function"
    },
    {
      "inputs": [
        {
          "internalType": "uint256",
          "name": "tokenId",
          "type": "uint256"
        },
        {
          "internalType": "uint256",
          "name": "newPrice",
          "type": "uint256"
        }
      ],
      "name": "updateListing",
      "outputs": [],
      "stateMutability": "nonpayable",
      "type": "function"
    },
    {
      "inputs": [],
      "name": "withDrawProceeds",
      "outputs": [],
      "stateMutability": "nonpayable",
      "type": "function"
    }
  ],
  "bytecode": "0x60c06040523480156200001157600080fd5b506040516200215038038062002150833981810160405281019062000037919062000119565b60016000819055508073ffffffffffffffffffffffffffffffffffffffff1660808173ffffffffffffffffffffffffffffffffffffffff16815250508173ffffffffffffffffffffffffffffffffffffffff1660a08173ffffffffffffffffffffffffffffffffffffffff1681525050505062000160565b600080fd5b600073ffffffffffffffffffffffffffffffffffffffff82169050919050565b6000620000e182620000b4565b9050919050565b620000f381620000d4565b8114620000ff57600080fd5b50565b6000815190506200011381620000e8565b92915050565b60008060408385031215620001335762000132620000af565b5b6000620001438582860162000102565b9250506020620001568582860162000102565b9150509250929050565b60805160a051611f30620002206000396000818161094601528181610fcf01526112820152600081816101ec015281816102fb015281816104280152818161049c01528181610541015281816106500152818161077c0152818161081a015281816108aa0152818161096a01528181610a7f01528181610af501528181610b9901528181610d4101528181610e0201528181610ee101528181611071015281816111a701528181611526015281816115c401526116540152611f306000f3fe608060405234801561001057600080fd5b506004361061009e5760003560e01c8063883efa6711610066578063883efa67146101595780638de820f614610175578063b8c9308d146101a6578063c6890de5146101c4578063e7fb74c7146101ce5761009e565b80630179ea88146100a3578063150b7a02146100bf578063305a67a8146100ef57806335adde541461010b57806368fbd0921461013b575b600080fd5b6100bd60048036038101906100b8919061177d565b6101ea565b005b6100d960048036038101906100d49190611880565b61052a565b6040516100e69190611943565b60405180910390f35b6101096004803603810190610104919061195e565b61053f565b005b6101256004803603810190610120919061198b565b61092c565b60405161013291906119c7565b60405180910390f35b610143610944565b60405161015091906119f1565b60405180910390f35b610173600480360381019061016e919061177d565b610968565b005b61018f600480360381019061018a9190611a0c565b610e8e565b60405161019d929190611a4c565b60405180910390f35b6101ae610edf565b6040516101bb91906119f1565b60405180910390f35b6101cc610f03565b005b6101e860048036038101906101e3919061195e565b61106f565b005b7f0000000000000000000000000000000000000000000000000000000000000000823060008390508173ffffffffffffffffffffffffffffffffffffffff168173ffffffffffffffffffffffffffffffffffffffff16636352211e856040518263ffffffff1660e01b815260040161026291906119c7565b602060405180830381865afa15801561027f573d6000803e3d6000fd5b505050506040513d601f19601f820116820180604052508101906102a39190611a8a565b73ffffffffffffffffffffffffffffffffffffffff16146102f9576040517f08c379a00000000000000000000000000000000000000000000000000000000081526004016102f090611b3a565b60405180910390fd5b7f0000000000000000000000000000000000000000000000000000000000000000866000600160008473ffffffffffffffffffffffffffffffffffffffff1673ffffffffffffffffffffffffffffffffffffffff1681526020019081526020016000206000838152602001908152602001600020604051806040016040529081600082015481526020016001820160009054906101000a900473ffffffffffffffffffffffffffffffffffffffff1673ffffffffffffffffffffffffffffffffffffffff1673ffffffffffffffffffffffffffffffffffffffff168152505090506000816000015111610421576040517f08c379a000000000000000000000000000000000000000000000000000000000815260040161041890611ba6565b60405180910390fd5b87600160007f000000000000000000000000000000000000000000000000000000000000000073ffffffffffffffffffffffffffffffffffffffff1673ffffffffffffffffffffffffffffffffffffffff16815260200190815260200160002060008b815260200190815260200160002060000181905550887f000000000000000000000000000000000000000000000000000000000000000073ffffffffffffffffffffffffffffffffffffffff163373ffffffffffffffffffffffffffffffffffffffff167fd547e933094f12a9159076970143ebe73234e64480317844b0dcb36117116de48b60405161051791906119c7565b60405180910390a4505050505050505050565b600063150b7a0260e01b905095945050505050565b7f0000000000000000000000000000000000000000000000000000000000000000813060008390508173ffffffffffffffffffffffffffffffffffffffff168173ffffffffffffffffffffffffffffffffffffffff16636352211e856040518263ffffffff1660e01b81526004016105b791906119c7565b602060405180830381865afa1580156105d4573d6000803e3d6000fd5b505050506040513d601f19601f820116820180604052508101906105f89190611a8a565b73ffffffffffffffffffffffffffffffffffffffff161461064e576040517f08c379a000000000000000000000000000000000000000000000000000000000815260040161064590611b3a565b60405180910390fd5b7f0000000000000000000000000000000000000000000000000000000000000000856000600160008473ffffffffffffffffffffffffffffffffffffffff1673ffffffffffffffffffffffffffffffffffffffff1681526020019081526020016000206000838152602001908152602001600020604051806040016040529081600082015481526020016001820160009054906101000a900473ffffffffffffffffffffffffffffffffffffffff1673ffffffffffffffffffffffffffffffffffffffff1673ffffffffffffffffffffffffffffffffffffffff168152505090506000816000015111610776576040517f08c379a000000000000000000000000000000000000000000000000000000000815260040161076d90611ba6565b60405180910390fd5b600160007f000000000000000000000000000000000000000000000000000000000000000073ffffffffffffffffffffffffffffffffffffffff1673ffffffffffffffffffffffffffffffffffffffff16815260200190815260200160002060008981526020019081526020016000206000808201600090556001820160006101000a81549073ffffffffffffffffffffffffffffffffffffffff021916905550507f000000000000000000000000000000000000000000000000000000000000000073ffffffffffffffffffffffffffffffffffffffff166342842e0e30338b6040518463ffffffff1660e01b815260040161087593929190611bc6565b600060405180830381600087803b15801561088f57600080fd5b505af11580156108a3573d6000803e3d6000fd5b50505050877f000000000000000000000000000000000000000000000000000000000000000073ffffffffffffffffffffffffffffffffffffffff163373ffffffffffffffffffffffffffffffffffffffff167f061e64e10e5e57615a6fe38b48c81926f6999a2f5304d3e5e6b0d3cfac4865a560405160405180910390a45050505050505050565b60026020528060005260406000206000915090505481565b7f000000000000000000000000000000000000000000000000000000000000000081565b7f0000000000000000000000000000000000000000000000000000000000000000813360008390508173ffffffffffffffffffffffffffffffffffffffff168173ffffffffffffffffffffffffffffffffffffffff16636352211e856040518263ffffffff1660e01b81526004016109e091906119c7565b602060405180830381865afa1580156109fd573d6000803e3d6000fd5b505050506040513d601f19601f82011682018060405250810190610a219190611a8a565b73ffffffffffffffffffffffffffffffffffffffff1614610a77576040517f08c379a0000000000000000000000000000000000000000000000000000000008152600401610a6e90611b3a565b60405180910390fd5b6000600160007f000000000000000000000000000000000000000000000000000000000000000073ffffffffffffffffffffffffffffffffffffffff1673ffffffffffffffffffffffffffffffffffffffff1681526020019081526020016000206000878152602001908152602001600020600001541115610b52577f0000000000000000000000000000000000000000000000000000000000000000856040517ff6854128000000000000000000000000000000000000000000000000000000008152600401610b49929190611bfd565b60405180910390fd5b60008611610b95576040517f08c379a0000000000000000000000000000000000000000000000000000000008152600401610b8c90611c72565b60405180910390fd5b60007f000000000000000000000000000000000000000000000000000000000000000090503073ffffffffffffffffffffffffffffffffffffffff168173ffffffffffffffffffffffffffffffffffffffff1663081812fc886040518263ffffffff1660e01b8152600401610c0a91906119c7565b602060405180830381865afa158015610c27573d6000803e3d6000fd5b505050506040513d601f19601f82011682018060405250810190610c4b9190611a8a565b73ffffffffffffffffffffffffffffffffffffffff1614610ca1576040517f08c379a0000000000000000000000000000000000000000000000000000000008152600401610c9890611d04565b60405180910390fd5b8073ffffffffffffffffffffffffffffffffffffffff166342842e0e3330896040518463ffffffff1660e01b8152600401610cde93929190611bc6565b600060405180830381600087803b158015610cf857600080fd5b505af1158015610d0c573d6000803e3d6000fd5b5050505060405180604001604052808881526020013373ffffffffffffffffffffffffffffffffffffffff16815250600160007f000000000000000000000000000000000000000000000000000000000000000073ffffffffffffffffffffffffffffffffffffffff1673ffffffffffffffffffffffffffffffffffffffff16815260200190815260200160002060008881526020019081526020016000206000820151816000015560208201518160010160006101000a81548173ffffffffffffffffffffffffffffffffffffffff021916908373ffffffffffffffffffffffffffffffffffffffff160217905550905050857f000000000000000000000000000000000000000000000000000000000000000073ffffffffffffffffffffffffffffffffffffffff163373ffffffffffffffffffffffffffffffffffffffff167fd547e933094f12a9159076970143ebe73234e64480317844b0dcb36117116de48a604051610e7d91906119c7565b60405180910390a450505050505050565b6001602052816000526040600020602052806000526040600020600091509150508060000154908060010160009054906101000a900473ffffffffffffffffffffffffffffffffffffffff16905082565b7f000000000000000000000000000000000000000000000000000000000000000081565b6000600260003373ffffffffffffffffffffffffffffffffffffffff1673ffffffffffffffffffffffffffffffffffffffff16815260200190815260200160002054905060008111610f8a576040517f08c379a0000000000000000000000000000000000000000000000000000000008152600401610f8190611d70565b60405180910390fd5b600260003373ffffffffffffffffffffffffffffffffffffffff1673ffffffffffffffffffffffffffffffffffffffff168152602001908152602001600020600090557f000000000000000000000000000000000000000000000000000000000000000073ffffffffffffffffffffffffffffffffffffffff1663a9059cbb33836040518363ffffffff1660e01b8152600401611028929190611bfd565b6020604051808303816000875af1158015611047573d6000803e3d6000fd5b505050506040513d601f19601f8201168201806040525081019061106b9190611dc8565b5050565b7f0000000000000000000000000000000000000000000000000000000000000000816000600160008473ffffffffffffffffffffffffffffffffffffffff1673ffffffffffffffffffffffffffffffffffffffff1681526020019081526020016000206000838152602001908152602001600020604051806040016040529081600082015481526020016001820160009054906101000a900473ffffffffffffffffffffffffffffffffffffffff1673ffffffffffffffffffffffffffffffffffffffff1673ffffffffffffffffffffffffffffffffffffffff168152505090506000816000015111611197576040517f08c379a000000000000000000000000000000000000000000000000000000000815260040161118e90611ba6565b60405180910390fd5b61119f6116ed565b6000600160007f000000000000000000000000000000000000000000000000000000000000000073ffffffffffffffffffffffffffffffffffffffff1673ffffffffffffffffffffffffffffffffffffffff1681526020019081526020016000206000868152602001908152602001600020604051806040016040529081600082015481526020016001820160009054906101000a900473ffffffffffffffffffffffffffffffffffffffff1673ffffffffffffffffffffffffffffffffffffffff1673ffffffffffffffffffffffffffffffffffffffff1681525050905060007f0000000000000000000000000000000000000000000000000000000000000000905060008173ffffffffffffffffffffffffffffffffffffffff1663dd62ed3e33306040518363ffffffff1660e01b81526004016112e0929190611df5565b602060405180830381865afa1580156112fd573d6000803e3d6000fd5b505050506040513d601f19601f820116820180604052508101906113219190611e33565b905060008273ffffffffffffffffffffffffffffffffffffffff166370a08231336040518263ffffffff1660e01b815260040161135e91906119f1565b602060405180830381865afa15801561137b573d6000803e3d6000fd5b505050506040513d601f19601f8201168201806040525081019061139f9190611e33565b905083600001518210156113ec5733826040517ff58c4ebe0000000000000000000000000000000000000000000000000000000081526004016113e3929190611bfd565b60405180910390fd5b836000015181101561143d57338185600001516040517fdb42144d00000000000000000000000000000000000000000000000000000000815260040161143493929190611e60565b60405180910390fd5b8273ffffffffffffffffffffffffffffffffffffffff166323b872dd333087600001516040518463ffffffff1660e01b815260040161147e93929190611bc6565b6020604051808303816000875af115801561149d573d6000803e3d6000fd5b505050506040513d601f19601f820116820180604052508101906114c19190611dc8565b50836000015160026000866020015173ffffffffffffffffffffffffffffffffffffffff1673ffffffffffffffffffffffffffffffffffffffff16815260200190815260200160002060008282546115199190611ec6565b92505081905550600160007f000000000000000000000000000000000000000000000000000000000000000073ffffffffffffffffffffffffffffffffffffffff1673ffffffffffffffffffffffffffffffffffffffff16815260200190815260200160002060008981526020019081526020016000206000808201600090556001820160006101000a81549073ffffffffffffffffffffffffffffffffffffffff021916905550507f000000000000000000000000000000000000000000000000000000000000000073ffffffffffffffffffffffffffffffffffffffff166342842e0e30338b6040518463ffffffff1660e01b815260040161161f93929190611bc6565b600060405180830381600087803b15801561163957600080fd5b505af115801561164d573d6000803e3d6000fd5b50505050877f000000000000000000000000000000000000000000000000000000000000000073ffffffffffffffffffffffffffffffffffffffff163373ffffffffffffffffffffffffffffffffffffffff167fc6d7a5e59f38ae48e0f1577ce4627ba9b270bfd4c2c0c7be609c429421bc3d6887600001516040516116d391906119c7565b60405180910390a4505050506116e7611733565b50505050565b600260005403611729576040517f3ee5aeb500000000000000000000000000000000000000000000000000000000815260040160405180910390fd5b6002600081905550565b6001600081905550565b600080fd5b600080fd5b6000819050919050565b61175a81611747565b811461176557600080fd5b50565b60008135905061177781611751565b92915050565b600080604083850312156117945761179361173d565b5b60006117a285828601611768565b92505060206117b385828601611768565b9150509250929050565b600073ffffffffffffffffffffffffffffffffffffffff82169050919050565b60006117e8826117bd565b9050919050565b6117f8816117dd565b811461180357600080fd5b50565b600081359050611815816117ef565b92915050565b600080fd5b600080fd5b600080fd5b60008083601f8401126118405761183f61181b565b5b8235905067ffffffffffffffff81111561185d5761185c611820565b5b60208301915083600182028301111561187957611878611825565b5b9250929050565b60008060008060006080868803121561189c5761189b61173d565b5b60006118aa88828901611806565b95505060206118bb88828901611806565b94505060406118cc88828901611768565b935050606086013567ffffffffffffffff8111156118ed576118ec611742565b5b6118f98882890161182a565b92509250509295509295909350565b60007fffffffff0000000000000000000000000000000000000000000000000000000082169050919050565b61193d81611908565b82525050565b60006020820190506119586000830184611934565b92915050565b6000602082840312156119745761197361173d565b5b600061198284828501611768565b91505092915050565b6000602082840312156119a1576119a061173d565b5b60006119af84828501611806565b91505092915050565b6119c181611747565b82525050565b60006020820190506119dc60008301846119b8565b92915050565b6119eb816117dd565b82525050565b6000602082019050611a0660008301846119e2565b92915050565b60008060408385031215611a2357611a2261173d565b5b6000611a3185828601611806565b9250506020611a4285828601611768565b9150509250929050565b6000604082019050611a6160008301856119b8565b611a6e60208301846119e2565b9392505050565b600081519050611a84816117ef565b92915050565b600060208284031215611aa057611a9f61173d565b5b6000611aae84828501611a75565b91505092915050565b600082825260208201905092915050565b7f54686973204e4654206973206e6f742062656c6f6e6720746f2063757272656e60008201527f7420616464726573732100000000000000000000000000000000000000000000602082015250565b6000611b24602a83611ab7565b9150611b2f82611ac8565b604082019050919050565b60006020820190508181036000830152611b5381611b17565b9050919050565b7f43757272656e74204e465420686173206e6f206c697374656421000000000000600082015250565b6000611b90601a83611ab7565b9150611b9b82611b5a565b602082019050919050565b60006020820190508181036000830152611bbf81611b83565b9050919050565b6000606082019050611bdb60008301866119e2565b611be860208301856119e2565b611bf560408301846119b8565b949350505050565b6000604082019050611c1260008301856119e2565b611c1f60208301846119b8565b9392505050565b7f4e6674207072696365206d757374206e656564206f766572207a65726f210000600082015250565b6000611c5c601e83611ab7565b9150611c6782611c26565b602082019050919050565b60006020820190508181036000830152611c8b81611c4f565b9050919050565b7f43757272656e74206d61726b657420686173206e6f74206265656e206170707260008201527f6f7665642062792074686973206e667421000000000000000000000000000000602082015250565b6000611cee603183611ab7565b9150611cf982611c92565b604082019050919050565b60006020820190508181036000830152611d1d81611ce1565b9050919050565b7f796f752068617665206e6f2070726f6365656473210000000000000000000000600082015250565b6000611d5a601583611ab7565b9150611d6582611d24565b602082019050919050565b60006020820190508181036000830152611d8981611d4d565b9050919050565b60008115159050919050565b611da581611d90565b8114611db057600080fd5b50565b600081519050611dc281611d9c565b92915050565b600060208284031215611dde57611ddd61173d565b5b6000611dec84828501611db3565b91505092915050565b6000604082019050611e0a60008301856119e2565b611e1760208301846119e2565b9392505050565b600081519050611e2d81611751565b92915050565b600060208284031215611e4957611e4861173d565b5b6000611e5784828501611e1e565b91505092915050565b6000606082019050611e7560008301866119e2565b611e8260208301856119b8565b611e8f60408301846119b8565b949350505050565b7f4e487b7100000000000000000000000000000000000000000000000000000000600052601160045260246000fd5b6000611ed182611747565b9150611edc83611747565b9250828201905080821115611ef457611ef3611e97565b5b9291505056fea264697066735822122020f638e92b002c0c921bd2fd8301fef8c72c4b7672ece36f211f0c310881f2f964736f6c63430008180033",
  "linkReferences": {},
  "deployedLinkReferences": {}
}