{
  "_format": "hh-sol-artifact-1",
  "contractName": "Messenger",
  "sourceName": "contracts/Messenger.sol",
  "abi": [
    {
      "inputs": [
        {
          "internalType": "address",
          "name": "_router",
          "type": "address"
        },
        {
          "internalType": "address",
          "name": "_link",
          "type": "address"
        }
      ],
      "stateMutability": "nonpayable",
      "type": "constructor"
    },
    {
      "inputs": [
        {
          "internalType": "uint64",
          "name": "destinationChainSelector",
          "type": "uint64"
        }
      ],
      "name": "DestinationChainNotAllowlisted",
      "type": "error"
    },
    {
      "inputs": [
        {
          "internalType": "address",
          "name": "owner",
          "type": "address"
        },
        {
          "internalType": "address",
          "name": "target",
          "type": "address"
        },
        {
          "internalType": "uint256",
          "name": "value",
          "type": "uint256"
        }
      ],
      "name": "FailedToWithdrawEth",
      "type": "error"
    },
    {
      "inputs": [],
      "name": "InvalidReceiverAddress",
      "type": "error"
    },
    {
      "inputs": [
        {
          "internalType": "address",
          "name": "router",
          "type": "address"
        }
      ],
      "name": "InvalidRouter",
      "type": "error"
    },
    {
      "inputs": [
        {
          "internalType": "uint256",
          "name": "currentBalance",
          "type": "uint256"
        },
        {
          "internalType": "uint256",
          "name": "calculatedFees",
          "type": "uint256"
        }
      ],
      "name": "NotEnoughBalance",
      "type": "error"
    },
    {
      "inputs": [],
      "name": "NothingToWithdraw",
      "type": "error"
    },
    {
      "inputs": [
        {
          "internalType": "address",
          "name": "sender",
          "type": "address"
        }
      ],
      "name": "SenderNotAllowlisted",
      "type": "error"
    },
    {
      "inputs": [
        {
          "internalType": "uint64",
          "name": "sourceChainSelector",
          "type": "uint64"
        }
      ],
      "name": "SourceChainNotAllowlisted",
      "type": "error"
    },
    {
      "anonymous": false,
      "inputs": [
        {
          "indexed": true,
          "internalType": "bytes32",
          "name": "messageId",
          "type": "bytes32"
        },
        {
          "indexed": true,
          "internalType": "uint64",
          "name": "sourceChainSelector",
          "type": "uint64"
        },
        {
          "indexed": false,
          "internalType": "address",
          "name": "sender",
          "type": "address"
        },
        {
          "indexed": false,
          "internalType": "bool",
          "name": "success",
          "type": "bool"
        }
      ],
      "name": "MessageReceived",
      "type": "event"
    },
    {
      "anonymous": false,
      "inputs": [
        {
          "indexed": true,
          "internalType": "bytes32",
          "name": "messageId",
          "type": "bytes32"
        },
        {
          "indexed": true,
          "internalType": "uint64",
          "name": "destinationChainSelector",
          "type": "uint64"
        },
        {
          "indexed": false,
          "internalType": "address",
          "name": "receiver",
          "type": "address"
        },
        {
          "indexed": false,
          "internalType": "bytes",
          "name": "_data",
          "type": "bytes"
        },
        {
          "indexed": false,
          "internalType": "address",
          "name": "feeToken",
          "type": "address"
        },
        {
          "indexed": false,
          "internalType": "uint256",
          "name": "fees",
          "type": "uint256"
        }
      ],
      "name": "MessageSent",
      "type": "event"
    },
    {
      "inputs": [
        {
          "internalType": "uint64",
          "name": "_destinationChainSelector",
          "type": "uint64"
        },
        {
          "internalType": "bool",
          "name": "allowed",
          "type": "bool"
        }
      ],
      "name": "allowlistDestinationChain",
      "outputs": [],
      "stateMutability": "nonpayable",
      "type": "function"
    },
    {
      "inputs": [
        {
          "internalType": "address",
          "name": "_sender",
          "type": "address"
        },
        {
          "internalType": "bool",
          "name": "allowed",
          "type": "bool"
        }
      ],
      "name": "allowlistSender",
      "outputs": [],
      "stateMutability": "nonpayable",
      "type": "function"
    },
    {
      "inputs": [
        {
          "internalType": "uint64",
          "name": "_sourceChainSelector",
          "type": "uint64"
        },
        {
          "internalType": "bool",
          "name": "allowed",
          "type": "bool"
        }
      ],
      "name": "allowlistSourceChain",
      "outputs": [],
      "stateMutability": "nonpayable",
      "type": "function"
    },
    {
      "inputs": [
        {
          "internalType": "uint64",
          "name": "",
          "type": "uint64"
        }
      ],
      "name": "allowlistedDestinationChains",
      "outputs": [
        {
          "internalType": "bool",
          "name": "",
          "type": "bool"
        }
      ],
      "stateMutability": "view",
      "type": "function"
    },
    {
      "inputs": [
        {
          "internalType": "address",
          "name": "",
          "type": "address"
        }
      ],
      "name": "allowlistedSenders",
      "outputs": [
        {
          "internalType": "bool",
          "name": "",
          "type": "bool"
        }
      ],
      "stateMutability": "view",
      "type": "function"
    },
    {
      "inputs": [
        {
          "internalType": "uint64",
          "name": "",
          "type": "uint64"
        }
      ],
      "name": "allowlistedSourceChains",
      "outputs": [
        {
          "internalType": "bool",
          "name": "",
          "type": "bool"
        }
      ],
      "stateMutability": "view",
      "type": "function"
    },
    {
      "inputs": [
        {
          "components": [
            {
              "internalType": "bytes32",
              "name": "messageId",
              "type": "bytes32"
            },
            {
              "internalType": "uint64",
              "name": "sourceChainSelector",
              "type": "uint64"
            },
            {
              "internalType": "bytes",
              "name": "sender",
              "type": "bytes"
            },
            {
              "internalType": "bytes",
              "name": "data",
              "type": "bytes"
            },
            {
              "components": [
                {
                  "internalType": "address",
                  "name": "token",
                  "type": "address"
                },
                {
                  "internalType": "uint256",
                  "name": "amount",
                  "type": "uint256"
                }
              ],
              "internalType": "struct Client.EVMTokenAmount[]",
              "name": "destTokenAmounts",
              "type": "tuple[]"
            }
          ],
          "internalType": "struct Client.Any2EVMMessage",
          "name": "message",
          "type": "tuple"
        }
      ],
      "name": "ccipReceive",
      "outputs": [],
      "stateMutability": "nonpayable",
      "type": "function"
    },
    {
      "inputs": [],
      "name": "getRouter",
      "outputs": [
        {
          "internalType": "address",
          "name": "",
          "type": "address"
        }
      ],
      "stateMutability": "view",
      "type": "function"
    },
    {
      "inputs": [],
      "name": "nftAddr",
      "outputs": [
        {
          "internalType": "address",
          "name": "",
          "type": "address"
        }
      ],
      "stateMutability": "view",
      "type": "function"
    },
    {
      "inputs": [
        {
          "internalType": "uint64",
          "name": "_destinationChainSelector",
          "type": "uint64"
        },
        {
          "internalType": "address",
          "name": "_receiver",
          "type": "address"
        },
        {
          "internalType": "bytes",
          "name": "_data",
          "type": "bytes"
        }
      ],
      "name": "sendMessagePayLINK",
      "outputs": [
        {
          "internalType": "bytes32",
          "name": "messageId",
          "type": "bytes32"
        }
      ],
      "stateMutability": "nonpayable",
      "type": "function"
    },
    {
      "inputs": [
        {
          "internalType": "uint64",
          "name": "_destinationChainSelector",
          "type": "uint64"
        },
        {
          "internalType": "address",
          "name": "_receiver",
          "type": "address"
        },
        {
          "internalType": "bytes",
          "name": "_data",
          "type": "bytes"
        }
      ],
      "name": "sendMessagePayNative",
      "outputs": [
        {
          "internalType": "bytes32",
          "name": "messageId",
          "type": "bytes32"
        }
      ],
      "stateMutability": "nonpayable",
      "type": "function"
    },
    {
      "inputs": [
        {
          "internalType": "address",
          "name": "_nftAddr",
          "type": "address"
        }
      ],
      "name": "setToken",
      "outputs": [],
      "stateMutability": "nonpayable",
      "type": "function"
    },
    {
      "inputs": [
        {
          "internalType": "bytes4",
          "name": "interfaceId",
          "type": "bytes4"
        }
      ],
      "name": "supportsInterface",
      "outputs": [
        {
          "internalType": "bool",
          "name": "",
          "type": "bool"
        }
      ],
      "stateMutability": "pure",
      "type": "function"
    },
    {
      "inputs": [
        {
          "internalType": "address",
          "name": "_beneficiary",
          "type": "address"
        }
      ],
      "name": "withdraw",
      "outputs": [],
      "stateMutability": "nonpayable",
      "type": "function"
    },
    {
      "inputs": [
        {
          "internalType": "address",
          "name": "_beneficiary",
          "type": "address"
        },
        {
          "internalType": "address",
          "name": "_token",
          "type": "address"
        }
      ],
      "name": "withdrawToken",
      "outputs": [],
      "stateMutability": "nonpayable",
      "type": "function"
    },
    {
      "stateMutability": "payable",
      "type": "receive"
    }
  ],
  "bytecode": "0x60a06040523480156200001157600080fd5b506040516200290838038062002908833981810160405281019062000037919062000195565b81600073ffffffffffffffffffffffffffffffffffffffff168173ffffffffffffffffffffffffffffffffffffffff1603620000ad5760006040517fd7f73334000000000000000000000000000000000000000000000000000000008152600401620000a49190620001ed565b60405180910390fd5b8073ffffffffffffffffffffffffffffffffffffffff1660808173ffffffffffffffffffffffffffffffffffffffff16815250505080600560006101000a81548173ffffffffffffffffffffffffffffffffffffffff021916908373ffffffffffffffffffffffffffffffffffffffff16021790555050506200020a565b600080fd5b600073ffffffffffffffffffffffffffffffffffffffff82169050919050565b60006200015d8262000130565b9050919050565b6200016f8162000150565b81146200017b57600080fd5b50565b6000815190506200018f8162000164565b92915050565b60008060408385031215620001af57620001ae6200012b565b5b6000620001bf858286016200017e565b9250506020620001d2858286016200017e565b9150509250929050565b620001e78162000150565b82525050565b6000602082019050620002046000830184620001dc565b92915050565b6080516126db6200022d600039600081816107570152610ce601526126db6000f3fe6080604052600436106100ec5760003560e01c806375c67c661161008a578063b0f479a111610059578063b0f479a114610321578063d60a58b91461034c578063db04fa4914610389578063eab5b02c146103b2576100f3565b806375c67c661461025557806385572ffb1461029257806396d3b83d146102bb578063a30e3770146102e4576100f3565b80634030d521116100c65780634030d5211461018757806351cff8d9146101c45780636159ada1146101ed578063740f1e181461022a576100f3565b806301ffc9a7146100f8578063144fa6d7146101355780633aeac4e11461015e576100f3565b366100f357005b600080fd5b34801561010457600080fd5b5061011f600480360381019061011a91906116d7565b6103db565b60405161012c919061171f565b60405180910390f35b34801561014157600080fd5b5061015c60048036038101906101579190611798565b6104ad565b005b34801561016a57600080fd5b50610185600480360381019061018091906117c5565b6104f1565b005b34801561019357600080fd5b506101ae60048036038101906101a99190611845565b6105d9565b6040516101bb919061171f565b60405180910390f35b3480156101d057600080fd5b506101eb60048036038101906101e69190611798565b6105f9565b005b3480156101f957600080fd5b50610214600480360381019061020f9190611798565b6106ef565b604051610221919061171f565b60405180910390f35b34801561023657600080fd5b5061023f61070f565b60405161024c9190611881565b60405180910390f35b34801561026157600080fd5b5061027c60048036038101906102779190611845565b610735565b604051610289919061171f565b60405180910390f35b34801561029e57600080fd5b506102b960048036038101906102b491906118c0565b610755565b005b3480156102c757600080fd5b506102e260048036038101906102dd9190611935565b6107fa565b005b3480156102f057600080fd5b5061030b600480360381019061030691906119da565b61083d565b6040516103189190611a67565b60405180910390f35b34801561032d57600080fd5b50610336610ce2565b6040516103439190611881565b60405180910390f35b34801561035857600080fd5b50610373600480360381019061036e91906119da565b610d0a565b6040516103809190611a67565b60405180910390f35b34801561039557600080fd5b506103b060048036038101906103ab9190611935565b610f97565b005b3480156103be57600080fd5b506103d960048036038101906103d49190611a82565b610fda565b005b60007f85572ffb000000000000000000000000000000000000000000000000000000007bffffffffffffffffffffffffffffffffffffffffffffffffffffffff1916827bffffffffffffffffffffffffffffffffffffffffffffffffffffffff191614806104a657507f01ffc9a7000000000000000000000000000000000000000000000000000000007bffffffffffffffffffffffffffffffffffffffffffffffffffffffff1916827bffffffffffffffffffffffffffffffffffffffffffffffffffffffff1916145b9050919050565b80600160006101000a81548173ffffffffffffffffffffffffffffffffffffffff021916908373ffffffffffffffffffffffffffffffffffffffff16021790555050565b60008173ffffffffffffffffffffffffffffffffffffffff166370a08231306040518263ffffffff1660e01b815260040161052c9190611881565b602060405180830381865afa158015610549573d6000803e3d6000fd5b505050506040513d601f19601f8201168201806040525081019061056d9190611af8565b9050600081036105a9576040517fd0d04f6000000000000000000000000000000000000000000000000000000000815260040160405180910390fd5b6105d483828473ffffffffffffffffffffffffffffffffffffffff166110359092919063ffffffff16565b505050565b60036020528060005260406000206000915054906101000a900460ff1681565b600047905060008103610638576040517fd0d04f6000000000000000000000000000000000000000000000000000000000815260040160405180910390fd5b60008273ffffffffffffffffffffffffffffffffffffffff168260405161065e90611b56565b60006040518083038185875af1925050503d806000811461069b576040519150601f19603f3d011682016040523d82523d6000602084013e6106a0565b606091505b50509050806106ea573383836040517f9d11f5630000000000000000000000000000000000000000000000000000000081526004016106e193929190611b7a565b60405180910390fd5b505050565b60046020528060005260406000206000915054906101000a900460ff1681565b600160009054906101000a900473ffffffffffffffffffffffffffffffffffffffff1681565b60026020528060005260406000206000915054906101000a900460ff1681565b7f000000000000000000000000000000000000000000000000000000000000000073ffffffffffffffffffffffffffffffffffffffff163373ffffffffffffffffffffffffffffffffffffffff16146107e557336040517fd7f733340000000000000000000000000000000000000000000000000000000081526004016107dc9190611881565b60405180910390fd5b6107f7816107f290611f30565b6110bb565b50565b80600260008467ffffffffffffffff1667ffffffffffffffff16815260200190815260200160002060006101000a81548160ff0219169083151502179055505050565b600083600073ffffffffffffffffffffffffffffffffffffffff168173ffffffffffffffffffffffffffffffffffffffff16036108a6576040517fa05ff47e00000000000000000000000000000000000000000000000000000000815260040160405180910390fd5b60006108d6868686600560009054906101000a900473ffffffffffffffffffffffffffffffffffffffff166111c4565b905060003073ffffffffffffffffffffffffffffffffffffffff1663b0f479a16040518163ffffffff1660e01b8152600401602060405180830381865afa158015610925573d6000803e3d6000fd5b505050506040513d601f19601f820116820180604052508101906109499190611f58565b905060008173ffffffffffffffffffffffffffffffffffffffff166320487ded8a856040518363ffffffff1660e01b815260040161098892919061219a565b602060405180830381865afa1580156109a5573d6000803e3d6000fd5b505050506040513d601f19601f820116820180604052508101906109c99190611af8565b9050600560009054906101000a900473ffffffffffffffffffffffffffffffffffffffff1673ffffffffffffffffffffffffffffffffffffffff166370a08231306040518263ffffffff1660e01b8152600401610a269190611881565b602060405180830381865afa158015610a43573d6000803e3d6000fd5b505050506040513d601f19601f82011682018060405250810190610a679190611af8565b811115610b4857600560009054906101000a900473ffffffffffffffffffffffffffffffffffffffff1673ffffffffffffffffffffffffffffffffffffffff166370a08231306040518263ffffffff1660e01b8152600401610ac99190611881565b602060405180830381865afa158015610ae6573d6000803e3d6000fd5b505050506040513d601f19601f82011682018060405250810190610b0a9190611af8565b816040517f8f0f4206000000000000000000000000000000000000000000000000000000008152600401610b3f9291906121ca565b60405180910390fd5b600560009054906101000a900473ffffffffffffffffffffffffffffffffffffffff1673ffffffffffffffffffffffffffffffffffffffff1663095ea7b383836040518363ffffffff1660e01b8152600401610ba59291906121f3565b6020604051808303816000875af1158015610bc4573d6000803e3d6000fd5b505050506040513d601f19601f82011682018060405250810190610be89190612231565b508173ffffffffffffffffffffffffffffffffffffffff166396f4e9f98a856040518363ffffffff1660e01b8152600401610c2492919061219a565b6020604051808303816000875af1158015610c43573d6000803e3d6000fd5b505050506040513d601f19601f82011682018060405250810190610c679190612273565b94508867ffffffffffffffff16857f3d8a9f055772202d2c3c1fddbad930d3dbe588d8692b75b84cee0719462829118a8a8a600560009054906101000a900473ffffffffffffffffffffffffffffffffffffffff1687604051610cce9594939291906122de565b60405180910390a350505050949350505050565b60007f0000000000000000000000000000000000000000000000000000000000000000905090565b600083600073ffffffffffffffffffffffffffffffffffffffff168173ffffffffffffffffffffffffffffffffffffffff1603610d73576040517fa05ff47e00000000000000000000000000000000000000000000000000000000815260040160405180910390fd5b6000610d8286868660006111c4565b905060003073ffffffffffffffffffffffffffffffffffffffff1663b0f479a16040518163ffffffff1660e01b8152600401602060405180830381865afa158015610dd1573d6000803e3d6000fd5b505050506040513d601f19601f82011682018060405250810190610df59190611f58565b905060008173ffffffffffffffffffffffffffffffffffffffff166320487ded8a856040518363ffffffff1660e01b8152600401610e3492919061219a565b602060405180830381865afa158015610e51573d6000803e3d6000fd5b505050506040513d601f19601f82011682018060405250810190610e759190611af8565b905047811115610ebe5747816040517f8f0f4206000000000000000000000000000000000000000000000000000000008152600401610eb59291906121ca565b60405180910390fd5b8173ffffffffffffffffffffffffffffffffffffffff166396f4e9f9828b866040518463ffffffff1660e01b8152600401610efa92919061219a565b60206040518083038185885af1158015610f18573d6000803e3d6000fd5b50505050506040513d601f19601f82011682018060405250810190610f3d9190612273565b94508867ffffffffffffffff16857f3d8a9f055772202d2c3c1fddbad930d3dbe588d8692b75b84cee0719462829118a8a8a600087604051610f839594939291906122de565b60405180910390a350505050949350505050565b80600360008467ffffffffffffffff1667ffffffffffffffff16815260200190815260200160002060006101000a81548160ff0219169083151502179055505050565b80600460008473ffffffffffffffffffffffffffffffffffffffff1673ffffffffffffffffffffffffffffffffffffffff16815260200190815260200160002060006101000a81548160ff0219169083151502179055505050565b6110b68363a9059cbb60e01b84846040516024016110549291906121f3565b604051602081830303815290604052907bffffffffffffffffffffffffffffffffffffffffffffffffffffffff19166020820180517bffffffffffffffffffffffffffffffffffffffffffffffffffffffff83818316178352505050506112e3565b505050565b8060000151600081905550600080600160009054906101000a900473ffffffffffffffffffffffffffffffffffffffff1673ffffffffffffffffffffffffffffffffffffffff168360600151604051611114919061235d565b6000604051808303816000865af19150503d8060008114611151576040519150601f19603f3d011682016040523d82523d6000602084013e611156565b606091505b5091509150826020015167ffffffffffffffff1683600001517fc6423f42b5d2f9d98d7ab1ee9ce19677a56e254ea943aad5b6a37423b95ef10085604001518060200190518101906111a891906123b2565b856040516111b792919061243e565b60405180910390a3505050565b6111cc6115f6565b6040518060a00160405280866040516020016111e89190611881565b604051602081830303815290604052815260200185858080601f016020809104026020016040519081016040528093929190818152602001838380828437600081840152601f19601f820116905080830192505050505050508152602001600067ffffffffffffffff81111561126157611260611bc7565b5b60405190808252806020026020018201604052801561129a57816020015b61128761163b565b81526020019060019003908161127f5790505b5081526020018373ffffffffffffffffffffffffffffffffffffffff1681526020016112d6604051806020016040528062030d408152506113aa565b8152509050949350505050565b6000611345826040518060400160405280602081526020017f5361666545524332303a206c6f772d6c6576656c2063616c6c206661696c65648152508573ffffffffffffffffffffffffffffffffffffffff166114299092919063ffffffff16565b90506000815111156113a557808060200190518101906113659190612231565b6113a4576040517f08c379a000000000000000000000000000000000000000000000000000000000815260040161139b906124ea565b60405180910390fd5b5b505050565b60606397a657c960e01b826040516024016113c59190612526565b604051602081830303815290604052907bffffffffffffffffffffffffffffffffffffffffffffffffffffffff19166020820180517bffffffffffffffffffffffffffffffffffffffffffffffffffffffff83818316178352505050509050919050565b60606114388484600085611441565b90509392505050565b606082471015611486576040517f08c379a000000000000000000000000000000000000000000000000000000000815260040161147d906125b3565b60405180910390fd5b6000808673ffffffffffffffffffffffffffffffffffffffff1685876040516114af919061235d565b60006040518083038185875af1925050503d80600081146114ec576040519150601f19603f3d011682016040523d82523d6000602084013e6114f1565b606091505b50915091506115028783838761150e565b92505050949350505050565b606083156115705760008351036115685761152885611583565b611567576040517f08c379a000000000000000000000000000000000000000000000000000000000815260040161155e9061261f565b60405180910390fd5b5b82905061157b565b61157a83836115a6565b5b949350505050565b6000808273ffffffffffffffffffffffffffffffffffffffff163b119050919050565b6000825111156115b95781518083602001fd5b806040517f08c379a00000000000000000000000000000000000000000000000000000000081526004016115ed9190612683565b60405180910390fd5b6040518060a00160405280606081526020016060815260200160608152602001600073ffffffffffffffffffffffffffffffffffffffff168152602001606081525090565b6040518060400160405280600073ffffffffffffffffffffffffffffffffffffffff168152602001600081525090565b6000604051905090565b600080fd5b600080fd5b60007fffffffff0000000000000000000000000000000000000000000000000000000082169050919050565b6116b48161167f565b81146116bf57600080fd5b50565b6000813590506116d1816116ab565b92915050565b6000602082840312156116ed576116ec611675565b5b60006116fb848285016116c2565b91505092915050565b60008115159050919050565b61171981611704565b82525050565b60006020820190506117346000830184611710565b92915050565b600073ffffffffffffffffffffffffffffffffffffffff82169050919050565b60006117658261173a565b9050919050565b6117758161175a565b811461178057600080fd5b50565b6000813590506117928161176c565b92915050565b6000602082840312156117ae576117ad611675565b5b60006117bc84828501611783565b91505092915050565b600080604083850312156117dc576117db611675565b5b60006117ea85828601611783565b92505060206117fb85828601611783565b9150509250929050565b600067ffffffffffffffff82169050919050565b61182281611805565b811461182d57600080fd5b50565b60008135905061183f81611819565b92915050565b60006020828403121561185b5761185a611675565b5b600061186984828501611830565b91505092915050565b61187b8161175a565b82525050565b60006020820190506118966000830184611872565b92915050565b600080fd5b600060a082840312156118b7576118b661189c565b5b81905092915050565b6000602082840312156118d6576118d5611675565b5b600082013567ffffffffffffffff8111156118f4576118f361167a565b5b611900848285016118a1565b91505092915050565b61191281611704565b811461191d57600080fd5b50565b60008135905061192f81611909565b92915050565b6000806040838503121561194c5761194b611675565b5b600061195a85828601611830565b925050602061196b85828601611920565b9150509250929050565b600080fd5b600080fd5b600080fd5b60008083601f84011261199a57611999611975565b5b8235905067ffffffffffffffff8111156119b7576119b661197a565b5b6020830191508360018202830111156119d3576119d261197f565b5b9250929050565b600080600080606085870312156119f4576119f3611675565b5b6000611a0287828801611830565b9450506020611a1387828801611783565b935050604085013567ffffffffffffffff811115611a3457611a3361167a565b5b611a4087828801611984565b925092505092959194509250565b6000819050919050565b611a6181611a4e565b82525050565b6000602082019050611a7c6000830184611a58565b92915050565b60008060408385031215611a9957611a98611675565b5b6000611aa785828601611783565b9250506020611ab885828601611920565b9150509250929050565b6000819050919050565b611ad581611ac2565b8114611ae057600080fd5b50565b600081519050611af281611acc565b92915050565b600060208284031215611b0e57611b0d611675565b5b6000611b1c84828501611ae3565b91505092915050565b600081905092915050565b50565b6000611b40600083611b25565b9150611b4b82611b30565b600082019050919050565b6000611b6182611b33565b9150819050919050565b611b7481611ac2565b82525050565b6000606082019050611b8f6000830186611872565b611b9c6020830185611872565b611ba96040830184611b6b565b949350505050565b600080fd5b6000601f19601f8301169050919050565b7f4e487b7100000000000000000000000000000000000000000000000000000000600052604160045260246000fd5b611bff82611bb6565b810181811067ffffffffffffffff82111715611c1e57611c1d611bc7565b5b80604052505050565b6000611c3161166b565b9050611c3d8282611bf6565b919050565b600080fd5b611c5081611a4e565b8114611c5b57600080fd5b50565b600081359050611c6d81611c47565b92915050565b600080fd5b600067ffffffffffffffff821115611c9357611c92611bc7565b5b611c9c82611bb6565b9050602081019050919050565b82818337600083830152505050565b6000611ccb611cc684611c78565b611c27565b905082815260208101848484011115611ce757611ce6611c73565b5b611cf2848285611ca9565b509392505050565b600082601f830112611d0f57611d0e611975565b5b8135611d1f848260208601611cb8565b91505092915050565b600067ffffffffffffffff821115611d4357611d42611bc7565b5b602082029050602081019050919050565b600081359050611d6381611acc565b92915050565b600060408284031215611d7f57611d7e611bb1565b5b611d896040611c27565b90506000611d9984828501611783565b6000830152506020611dad84828501611d54565b60208301525092915050565b6000611dcc611dc784611d28565b611c27565b90508083825260208201905060408402830185811115611def57611dee61197f565b5b835b81811015611e185780611e048882611d69565b845260208401935050604081019050611df1565b5050509392505050565b600082601f830112611e3757611e36611975565b5b8135611e47848260208601611db9565b91505092915050565b600060a08284031215611e6657611e65611bb1565b5b611e7060a0611c27565b90506000611e8084828501611c5e565b6000830152506020611e9484828501611830565b602083015250604082013567ffffffffffffffff811115611eb857611eb7611c42565b5b611ec484828501611cfa565b604083015250606082013567ffffffffffffffff811115611ee857611ee7611c42565b5b611ef484828501611cfa565b606083015250608082013567ffffffffffffffff811115611f1857611f17611c42565b5b611f2484828501611e22565b60808301525092915050565b6000611f3c3683611e50565b9050919050565b600081519050611f528161176c565b92915050565b600060208284031215611f6e57611f6d611675565b5b6000611f7c84828501611f43565b91505092915050565b611f8e81611805565b82525050565b600081519050919050565b600082825260208201905092915050565b60005b83811015611fce578082015181840152602081019050611fb3565b60008484015250505050565b6000611fe582611f94565b611fef8185611f9f565b9350611fff818560208601611fb0565b61200881611bb6565b840191505092915050565b600081519050919050565b600082825260208201905092915050565b6000819050602082019050919050565b6120488161175a565b82525050565b61205781611ac2565b82525050565b604082016000820151612073600085018261203f565b506020820151612086602085018261204e565b50505050565b6000612098838361205d565b60408301905092915050565b6000602082019050919050565b60006120bc82612013565b6120c6818561201e565b93506120d18361202f565b8060005b838110156121025781516120e9888261208c565b97506120f4836120a4565b9250506001810190506120d5565b5085935050505092915050565b600060a083016000830151848203600086015261212c8282611fda565b915050602083015184820360208601526121468282611fda565b9150506040830151848203604086015261216082826120b1565b9150506060830151612175606086018261203f565b506080830151848203608086015261218d8282611fda565b9150508091505092915050565b60006040820190506121af6000830185611f85565b81810360208301526121c1818461210f565b90509392505050565b60006040820190506121df6000830185611b6b565b6121ec6020830184611b6b565b9392505050565b60006040820190506122086000830185611872565b6122156020830184611b6b565b9392505050565b60008151905061222b81611909565b92915050565b60006020828403121561224757612246611675565b5b60006122558482850161221c565b91505092915050565b60008151905061226d81611c47565b92915050565b60006020828403121561228957612288611675565b5b60006122978482850161225e565b91505092915050565b600082825260208201905092915050565b60006122bd83856122a0565b93506122ca838584611ca9565b6122d383611bb6565b840190509392505050565b60006080820190506122f36000830188611872565b81810360208301526123068186886122b1565b90506123156040830185611872565b6123226060830184611b6b565b9695505050505050565b600061233782611f94565b6123418185611b25565b9350612351818560208601611fb0565b80840191505092915050565b6000612369828461232c565b915081905092915050565b600061237f8261173a565b9050919050565b61238f81612374565b811461239a57600080fd5b50565b6000815190506123ac81612386565b92915050565b6000602082840312156123c8576123c7611675565b5b60006123d68482850161239d565b91505092915050565b6000819050919050565b60006124046123ff6123fa8461173a565b6123df565b61173a565b9050919050565b6000612416826123e9565b9050919050565b60006124288261240b565b9050919050565b6124388161241d565b82525050565b6000604082019050612453600083018561242f565b6124606020830184611710565b9392505050565b600082825260208201905092915050565b7f5361666545524332303a204552433230206f7065726174696f6e20646964206e60008201527f6f74207375636365656400000000000000000000000000000000000000000000602082015250565b60006124d4602a83612467565b91506124df82612478565b604082019050919050565b60006020820190508181036000830152612503816124c7565b9050919050565b602082016000820151612520600085018261204e565b50505050565b600060208201905061253b600083018461250a565b92915050565b7f416464726573733a20696e73756666696369656e742062616c616e636520666f60008201527f722063616c6c0000000000000000000000000000000000000000000000000000602082015250565b600061259d602683612467565b91506125a882612541565b604082019050919050565b600060208201905081810360008301526125cc81612590565b9050919050565b7f416464726573733a2063616c6c20746f206e6f6e2d636f6e7472616374000000600082015250565b6000612609601d83612467565b9150612614826125d3565b602082019050919050565b60006020820190508181036000830152612638816125fc565b9050919050565b600081519050919050565b60006126558261263f565b61265f8185612467565b935061266f818560208601611fb0565b61267881611bb6565b840191505092915050565b6000602082019050818103600083015261269d818461264a565b90509291505056fea2646970667358221220836b5b0f51d9ed3ac91e593d7b0a74b9b148301c0eec08f085ccfb4925986afa64736f6c63430008180033",
  "linkReferences": {},
  "deployedLinkReferences": {}
}