{
  "_format": "hh-sol-artifact-1",
  "contractName": "NFTMarketPlace",
  "sourceName": "contracts/NFTMarketPlace.sol",
  "abi": [
    {
      "inputs": [
        {
          "internalType": "address",
          "name": "token",
          "type": "address"
        }
      ],
      "stateMutability": "nonpayable",
      "type": "constructor"
    },
    {
      "inputs": [
        {
          "internalType": "address",
          "name": "nftAddress",
          "type": "address"
        },
        {
          "internalType": "uint256",
          "name": "tokenId",
          "type": "uint256"
        }
      ],
      "name": "HasListed",
      "type": "error"
    },
    {
      "inputs": [
        {
          "internalType": "address",
          "name": "buyer",
          "type": "address"
        },
        {
          "internalType": "uint256",
          "name": "allowance",
          "type": "uint256"
        }
      ],
      "name": "InsufficientApproveLimit",
      "type": "error"
    },
    {
      "inputs": [
        {
          "internalType": "address",
          "name": "buyer",
          "type": "address"
        },
        {
          "internalType": "uint256",
          "name": "balance",
          "type": "uint256"
        },
        {
          "internalType": "uint256",
          "name": "price",
          "type": "uint256"
        }
      ],
      "name": "InsufficientBalance",
      "type": "error"
    },
    {
      "inputs": [
        {
          "internalType": "bytes32",
          "name": "requestId",
          "type": "bytes32"
        }
      ],
      "name": "InvalidRequest",
      "type": "error"
    },
    {
      "anonymous": false,
      "inputs": [
        {
          "indexed": true,
          "internalType": "address",
          "name": "buyer",
          "type": "address"
        },
        {
          "indexed": true,
          "internalType": "address",
          "name": "nftAddress",
          "type": "address"
        },
        {
          "indexed": true,
          "internalType": "uint256",
          "name": "tokenId",
          "type": "uint256"
        },
        {
          "indexed": false,
          "internalType": "uint256",
          "name": "price",
          "type": "uint256"
        }
      ],
      "name": "BuyItem",
      "type": "event"
    },
    {
      "anonymous": false,
      "inputs": [
        {
          "indexed": true,
          "internalType": "address",
          "name": "seller",
          "type": "address"
        },
        {
          "indexed": true,
          "internalType": "address",
          "name": "nftAddress",
          "type": "address"
        },
        {
          "indexed": true,
          "internalType": "uint256",
          "name": "tokenId",
          "type": "uint256"
        }
      ],
      "name": "CancelListing",
      "type": "event"
    },
    {
      "anonymous": false,
      "inputs": [
        {
          "indexed": true,
          "internalType": "bytes32",
          "name": "id",
          "type": "bytes32"
        }
      ],
      "name": "ChainlinkCancelled",
      "type": "event"
    },
    {
      "anonymous": false,
      "inputs": [
        {
          "indexed": true,
          "internalType": "bytes32",
          "name": "id",
          "type": "bytes32"
        }
      ],
      "name": "ChainlinkFulfilled",
      "type": "event"
    },
    {
      "anonymous": false,
      "inputs": [
        {
          "indexed": true,
          "internalType": "bytes32",
          "name": "id",
          "type": "bytes32"
        }
      ],
      "name": "ChainlinkRequested",
      "type": "event"
    },
    {
      "anonymous": false,
      "inputs": [
        {
          "indexed": true,
          "internalType": "address",
          "name": "seller",
          "type": "address"
        },
        {
          "indexed": true,
          "internalType": "address",
          "name": "nftAddress",
          "type": "address"
        },
        {
          "indexed": true,
          "internalType": "uint256",
          "name": "tokenId",
          "type": "uint256"
        }
      ],
      "name": "ItemListed",
      "type": "event"
    },
    {
      "anonymous": false,
      "inputs": [
        {
          "indexed": true,
          "internalType": "address",
          "name": "nftAddress",
          "type": "address"
        },
        {
          "indexed": false,
          "internalType": "string",
          "name": "name",
          "type": "string"
        },
        {
          "indexed": false,
          "internalType": "string",
          "name": "symbol",
          "type": "string"
        }
      ],
      "name": "NewNFTContractCreated",
      "type": "event"
    },
    {
      "anonymous": false,
      "inputs": [
        {
          "indexed": true,
          "internalType": "address",
          "name": "from",
          "type": "address"
        },
        {
          "indexed": true,
          "internalType": "address",
          "name": "to",
          "type": "address"
        }
      ],
      "name": "OwnershipTransferRequested",
      "type": "event"
    },
    {
      "anonymous": false,
      "inputs": [
        {
          "indexed": true,
          "internalType": "address",
          "name": "from",
          "type": "address"
        },
        {
          "indexed": true,
          "internalType": "address",
          "name": "to",
          "type": "address"
        }
      ],
      "name": "OwnershipTransferred",
      "type": "event"
    },
    {
      "anonymous": false,
      "inputs": [
        {
          "indexed": true,
          "internalType": "bytes32",
          "name": "requestId",
          "type": "bytes32"
        },
        {
          "indexed": true,
          "internalType": "address",
          "name": "nftAddress",
          "type": "address"
        },
        {
          "indexed": true,
          "internalType": "uint256",
          "name": "tokenId",
          "type": "uint256"
        }
      ],
      "name": "RequestPriceBegin",
      "type": "event"
    },
    {
      "anonymous": false,
      "inputs": [
        {
          "indexed": true,
          "internalType": "bytes32",
          "name": "requestId",
          "type": "bytes32"
        },
        {
          "indexed": false,
          "internalType": "uint256",
          "name": "price",
          "type": "uint256"
        }
      ],
      "name": "RequestPriceReceive",
      "type": "event"
    },
    {
      "anonymous": false,
      "inputs": [
        {
          "indexed": true,
          "internalType": "address",
          "name": "seller",
          "type": "address"
        },
        {
          "indexed": true,
          "internalType": "address",
          "name": "nftAddress",
          "type": "address"
        },
        {
          "indexed": true,
          "internalType": "uint256",
          "name": "tokenId",
          "type": "uint256"
        },
        {
          "indexed": false,
          "internalType": "uint256",
          "name": "price",
          "type": "uint256"
        }
      ],
      "name": "UpdateItem",
      "type": "event"
    },
    {
      "inputs": [],
      "name": "ASSET_NEXUS_TOKEN",
      "outputs": [
        {
          "internalType": "address",
          "name": "",
          "type": "address"
        }
      ],
      "stateMutability": "view",
      "type": "function"
    },
    {
      "inputs": [],
      "name": "acceptOwnership",
      "outputs": [],
      "stateMutability": "nonpayable",
      "type": "function"
    },
    {
      "inputs": [
        {
          "internalType": "address",
          "name": "nftAddress",
          "type": "address"
        },
        {
          "internalType": "uint256",
          "name": "tokenId",
          "type": "uint256"
        }
      ],
      "name": "buyItem",
      "outputs": [],
      "stateMutability": "nonpayable",
      "type": "function"
    },
    {
      "inputs": [
        {
          "internalType": "address",
          "name": "nftAddress",
          "type": "address"
        },
        {
          "internalType": "uint256",
          "name": "tokenId",
          "type": "uint256"
        }
      ],
      "name": "cancelListing",
      "outputs": [],
      "stateMutability": "nonpayable",
      "type": "function"
    },
    {
      "inputs": [
        {
          "internalType": "string",
          "name": "name",
          "type": "string"
        },
        {
          "internalType": "string",
          "name": "symbol",
          "type": "string"
        }
      ],
      "name": "createAssetNexusNft",
      "outputs": [],
      "stateMutability": "nonpayable",
      "type": "function"
    },
    {
      "inputs": [
        {
          "internalType": "bytes32",
          "name": "requestId",
          "type": "bytes32"
        },
        {
          "internalType": "uint256",
          "name": "price",
          "type": "uint256"
        }
      ],
      "name": "fulfill",
      "outputs": [],
      "stateMutability": "nonpayable",
      "type": "function"
    },
    {
      "inputs": [
        {
          "internalType": "address",
          "name": "nftAddress",
          "type": "address"
        },
        {
          "internalType": "uint256",
          "name": "tokenId",
          "type": "uint256"
        }
      ],
      "name": "listItem",
      "outputs": [],
      "stateMutability": "nonpayable",
      "type": "function"
    },
    {
      "inputs": [
        {
          "internalType": "address",
          "name": "",
          "type": "address"
        },
        {
          "internalType": "uint256",
          "name": "",
          "type": "uint256"
        }
      ],
      "name": "listing",
      "outputs": [
        {
          "internalType": "uint256",
          "name": "price",
          "type": "uint256"
        },
        {
          "internalType": "address",
          "name": "seller",
          "type": "address"
        }
      ],
      "stateMutability": "view",
      "type": "function"
    },
    {
      "inputs": [
        {
          "internalType": "address",
          "name": "operator",
          "type": "address"
        },
        {
          "internalType": "address",
          "name": "from",
          "type": "address"
        },
        {
          "internalType": "uint256",
          "name": "tokenId",
          "type": "uint256"
        },
        {
          "internalType": "bytes",
          "name": "data",
          "type": "bytes"
        }
      ],
      "name": "onERC721Received",
      "outputs": [
        {
          "internalType": "bytes4",
          "name": "",
          "type": "bytes4"
        }
      ],
      "stateMutability": "nonpayable",
      "type": "function"
    },
    {
      "inputs": [],
      "name": "owner",
      "outputs": [
        {
          "internalType": "address",
          "name": "",
          "type": "address"
        }
      ],
      "stateMutability": "view",
      "type": "function"
    },
    {
      "inputs": [
        {
          "internalType": "address",
          "name": "",
          "type": "address"
        }
      ],
      "name": "proceeds",
      "outputs": [
        {
          "internalType": "uint256",
          "name": "",
          "type": "uint256"
        }
      ],
      "stateMutability": "view",
      "type": "function"
    },
    {
      "inputs": [
        {
          "internalType": "bytes32",
          "name": "",
          "type": "bytes32"
        }
      ],
      "name": "recordRequestInfo",
      "outputs": [
        {
          "internalType": "address",
          "name": "nftAddr",
          "type": "address"
        },
        {
          "internalType": "uint256",
          "name": "tokenId",
          "type": "uint256"
        }
      ],
      "stateMutability": "view",
      "type": "function"
    },
    {
      "inputs": [
        {
          "internalType": "address",
          "name": "nftAddress",
          "type": "address"
        },
        {
          "internalType": "uint256",
          "name": "tokenId",
          "type": "uint256"
        }
      ],
      "name": "requestNftPrice",
      "outputs": [
        {
          "internalType": "bytes32",
          "name": "requestId",
          "type": "bytes32"
        }
      ],
      "stateMutability": "nonpayable",
      "type": "function"
    },
    {
      "inputs": [
        {
          "internalType": "address",
          "name": "to",
          "type": "address"
        }
      ],
      "name": "transferOwnership",
      "outputs": [],
      "stateMutability": "nonpayable",
      "type": "function"
    },
    {
      "inputs": [
        {
          "internalType": "address",
          "name": "nftAddress",
          "type": "address"
        },
        {
          "internalType": "uint256",
          "name": "tokenId",
          "type": "uint256"
        },
        {
          "internalType": "uint256",
          "name": "newPrice",
          "type": "uint256"
        }
      ],
      "name": "updateListing",
      "outputs": [],
      "stateMutability": "nonpayable",
      "type": "function"
    },
    {
      "inputs": [],
      "name": "withDrawProceeds",
      "outputs": [],
      "stateMutability": "nonpayable",
      "type": "function"
    }
  ],
  "bytecode": "0x60a060405260016004553480156200001657600080fd5b50604051620065773803806200657783398181016040528101906200003c919062000436565b338060008073ffffffffffffffffffffffffffffffffffffffff168273ffffffffffffffffffffffffffffffffffffffff1603620000b1576040517f08c379a0000000000000000000000000000000000000000000000000000000008152600401620000a890620004c9565b60405180910390fd5b81600660006101000a81548173ffffffffffffffffffffffffffffffffffffffff021916908373ffffffffffffffffffffffffffffffffffffffff160217905550600073ffffffffffffffffffffffffffffffffffffffff168173ffffffffffffffffffffffffffffffffffffffff1614620001395762000138816200021360201b60201c565b5b5050508073ffffffffffffffffffffffffffffffffffffffff1660808173ffffffffffffffffffffffffffffffffffffffff16815250506200019573779877a7b0d9e8603169ddbd7836e478b46247896200034460201b60201c565b620001ba73b83e47c2bc239b3bf370bc41e1459a34b41238d06200038860201b60201c565b7f6663663431343064363936643434623638373031323233323934386264643564600b81905550600a670de0b6b3a76400006001620001fa919062000524565b6200020691906200059e565b600c819055505062000648565b3373ffffffffffffffffffffffffffffffffffffffff168173ffffffffffffffffffffffffffffffffffffffff160362000284576040517f08c379a00000000000000000000000000000000000000000000000000000000081526004016200027b9062000626565b60405180910390fd5b80600760006101000a81548173ffffffffffffffffffffffffffffffffffffffff021916908373ffffffffffffffffffffffffffffffffffffffff1602179055508073ffffffffffffffffffffffffffffffffffffffff16600660009054906101000a900473ffffffffffffffffffffffffffffffffffffffff1673ffffffffffffffffffffffffffffffffffffffff167fed8889f560326eb138920d842192f0eb3dd22b4f139c87a2c57538e05bae127860405160405180910390a350565b80600260006101000a81548173ffffffffffffffffffffffffffffffffffffffff021916908373ffffffffffffffffffffffffffffffffffffffff16021790555050565b80600360006101000a81548173ffffffffffffffffffffffffffffffffffffffff021916908373ffffffffffffffffffffffffffffffffffffffff16021790555050565b600080fd5b600073ffffffffffffffffffffffffffffffffffffffff82169050919050565b6000620003fe82620003d1565b9050919050565b6200041081620003f1565b81146200041c57600080fd5b50565b600081519050620004308162000405565b92915050565b6000602082840312156200044f576200044e620003cc565b5b60006200045f848285016200041f565b91505092915050565b600082825260208201905092915050565b7f43616e6e6f7420736574206f776e657220746f207a65726f0000000000000000600082015250565b6000620004b160188362000468565b9150620004be8262000479565b602082019050919050565b60006020820190508181036000830152620004e481620004a2565b9050919050565b6000819050919050565b7f4e487b7100000000000000000000000000000000000000000000000000000000600052601160045260246000fd5b60006200053182620004eb565b91506200053e83620004eb565b92508282026200054e81620004eb565b91508282048414831517620005685762000567620004f5565b5b5092915050565b7f4e487b7100000000000000000000000000000000000000000000000000000000600052601260045260246000fd5b6000620005ab82620004eb565b9150620005b883620004eb565b925082620005cb57620005ca6200056f565b5b828204905092915050565b7f43616e6e6f74207472616e7366657220746f2073656c66000000000000000000600082015250565b60006200060e60178362000468565b91506200061b82620005d6565b602082019050919050565b600060208201905081810360008301526200064181620005ff565b9050919050565b608051615f056200067260003960008181610b1501528181610e0f01526114940152615f056000f3fe60806040523480156200001157600080fd5b5060043610620001185760003560e01c80638de820f611620000a5578063c6890de5116200006f578063c6890de514620002e7578063ccf9459814620002f3578063f2fde38b1462000329578063f772adf114620003495762000118565b80638de820f614620002395780639f37092a14620002705780639f6f4e251462000290578063b2ddee0614620002c75762000118565b80635e2f003b11620000e75780635e2f003b14620001c957806368fbd09214620001e957806379ba5097146200020b5780638da5cb5b14620002175762000118565b8063150b7a02146200011d57806335adde5414620001535780633cac454714620001895780634357855e14620001a9575b600080fd5b6200013b6004803603810190620001359190620023b3565b62000369565b6040516200014a919062002486565b60405180910390f35b6200017160048036038101906200016b9190620024a3565b6200037e565b604051620001809190620024e6565b60405180910390f35b620001a76004803603810190620001a1919062002660565b62000396565b005b620001c76004803603810190620001c1919062002720565b62000467565b005b620001e76004803603810190620001e1919062002767565b6200073b565b005b620001f362000b13565b604051620002029190620027bf565b60405180910390f35b6200021562000b37565b005b6200022162000cd1565b604051620002309190620027bf565b60405180910390f35b62000257600480360381019062000251919062002767565b62000cfb565b60405162000267929190620027dc565b60405180910390f35b6200028e600480360381019062000288919062002767565b62000d4c565b005b620002ae6004803603810190620002a8919062002809565b6200122d565b604051620002be9291906200283b565b60405180910390f35b620002e56004803603810190620002df919062002767565b62001271565b005b620002f1620013c5565b005b6200031160048036038101906200030b919062002767565b62001539565b60405162000320919062002879565b60405180910390f35b620003476004803603810190620003419190620024a3565b62001696565b005b62000367600480360381019062000361919062002896565b620016ae565b005b600063150b7a0260e01b905095945050505050565b60096020528060005260406000206000915090505481565b60008282604051602001620003ad9291906200296b565b6040516020818303038152906040528051906020012090506000818484604051620003d890620021fa565b620003e5929190620029e5565b8190604051809103906000f590508015801562000406573d6000803e3d6000fd5b50905060008190508073ffffffffffffffffffffffffffffffffffffffff167f34222b7638939db0b8b07694798a0e33eb5c6cc50e7bafc23b83f9c6d6738fb1868660405162000458929190620029e5565b60405180910390a25050505050565b816005600082815260200190815260200160002060009054906101000a900473ffffffffffffffffffffffffffffffffffffffff1673ffffffffffffffffffffffffffffffffffffffff163373ffffffffffffffffffffffffffffffffffffffff16146200050c576040517f08c379a0000000000000000000000000000000000000000000000000000000008152600401620005039062002a96565b60405180910390fd5b6005600082815260200190815260200160002060006101000a81549073ffffffffffffffffffffffffffffffffffffffff0219169055807f7cc135e0cebb02c3480ae5d74d377283180a2601f8f644edf7987b009316c63a60405160405180910390a2600073ffffffffffffffffffffffffffffffffffffffff16600a600085815260200190815260200160002060000160009054906101000a900473ffffffffffffffffffffffffffffffffffffffff1673ffffffffffffffffffffffffffffffffffffffff16036200061957826040517f9ce13f0300000000000000000000000000000000000000000000000000000000815260040162000610919062002879565b60405180910390fd5b6000600a60008581526020019081526020016000206040518060400160405290816000820160009054906101000a900473ffffffffffffffffffffffffffffffffffffffff1673ffffffffffffffffffffffffffffffffffffffff1673ffffffffffffffffffffffffffffffffffffffff16815260200160018201548152505090508260086000836000015173ffffffffffffffffffffffffffffffffffffffff1673ffffffffffffffffffffffffffffffffffffffff16815260200190815260200160002060008360200151815260200190815260200160002060000181905550837f7f414ccfed1d0b8d19a3f2afc789b375aca3912728bff59a02fa2dc28e1020bb846040516200072d9190620024e6565b60405180910390a250505050565b600062000749838362001539565b905060405180604001604052808473ffffffffffffffffffffffffffffffffffffffff16815260200183815250600a600083815260200190815260200160002060008201518160000160006101000a81548173ffffffffffffffffffffffffffffffffffffffff021916908373ffffffffffffffffffffffffffffffffffffffff160217905550602082015181600101559050506000600860008573ffffffffffffffffffffffffffffffffffffffff1673ffffffffffffffffffffffffffffffffffffffff16815260200190815260200160002060008481526020019081526020016000206000015411156200087b5782826040517ff6854128000000000000000000000000000000000000000000000000000000008152600401620008729291906200283b565b60405180910390fd5b60008390503073ffffffffffffffffffffffffffffffffffffffff168173ffffffffffffffffffffffffffffffffffffffff1663081812fc856040518263ffffffff1660e01b8152600401620008d29190620024e6565b602060405180830381865afa158015620008f0573d6000803e3d6000fd5b505050506040513d601f19601f8201168201806040525081019062000916919062002acf565b73ffffffffffffffffffffffffffffffffffffffff16146200096f576040517f08c379a0000000000000000000000000000000000000000000000000000000008152600401620009669062002b77565b60405180910390fd5b8073ffffffffffffffffffffffffffffffffffffffff166342842e0e3330866040518463ffffffff1660e01b8152600401620009ae9392919062002b99565b600060405180830381600087803b158015620009c957600080fd5b505af1158015620009de573d6000803e3d6000fd5b505050506040518060400160405280600081526020013373ffffffffffffffffffffffffffffffffffffffff16815250600860008673ffffffffffffffffffffffffffffffffffffffff1673ffffffffffffffffffffffffffffffffffffffff16815260200190815260200160002060008581526020019081526020016000206000820151816000015560208201518160010160006101000a81548173ffffffffffffffffffffffffffffffffffffffff021916908373ffffffffffffffffffffffffffffffffffffffff160217905550905050828473ffffffffffffffffffffffffffffffffffffffff163373ffffffffffffffffffffffffffffffffffffffff167fe664fba7e620635adc11289eccf06ecb889c3875d377d16291a5d77292f6309160405160405180910390a450505050565b7f000000000000000000000000000000000000000000000000000000000000000081565b600760009054906101000a900473ffffffffffffffffffffffffffffffffffffffff1673ffffffffffffffffffffffffffffffffffffffff163373ffffffffffffffffffffffffffffffffffffffff161462000bca576040517f08c379a000000000000000000000000000000000000000000000000000000000815260040162000bc19062002c26565b60405180910390fd5b6000600660009054906101000a900473ffffffffffffffffffffffffffffffffffffffff16905033600660006101000a81548173ffffffffffffffffffffffffffffffffffffffff021916908373ffffffffffffffffffffffffffffffffffffffff1602179055506000600760006101000a81548173ffffffffffffffffffffffffffffffffffffffff021916908373ffffffffffffffffffffffffffffffffffffffff1602179055503373ffffffffffffffffffffffffffffffffffffffff168173ffffffffffffffffffffffffffffffffffffffff167f8be0079c531659141344cd1fd0a4f28419497f9722a3daafe3b4186f6b6457e060405160405180910390a350565b6000600660009054906101000a900473ffffffffffffffffffffffffffffffffffffffff16905090565b6008602052816000526040600020602052806000526040600020600091509150508060000154908060010160009054906101000a900473ffffffffffffffffffffffffffffffffffffffff16905082565b6000600860008473ffffffffffffffffffffffffffffffffffffffff1673ffffffffffffffffffffffffffffffffffffffff1681526020019081526020016000206000838152602001908152602001600020604051806040016040529081600082015481526020016001820160009054906101000a900473ffffffffffffffffffffffffffffffffffffffff1673ffffffffffffffffffffffffffffffffffffffff1673ffffffffffffffffffffffffffffffffffffffff1681525050905060007f0000000000000000000000000000000000000000000000000000000000000000905060008173ffffffffffffffffffffffffffffffffffffffff1663dd62ed3e33306040518363ffffffff1660e01b815260040162000e6f92919062002c48565b602060405180830381865afa15801562000e8d573d6000803e3d6000fd5b505050506040513d601f19601f8201168201806040525081019062000eb3919062002c8c565b905060008273ffffffffffffffffffffffffffffffffffffffff166370a08231336040518263ffffffff1660e01b815260040162000ef29190620027bf565b602060405180830381865afa15801562000f10573d6000803e3d6000fd5b505050506040513d601f19601f8201168201806040525081019062000f36919062002c8c565b9050836000015182101562000f865733826040517ff58c4ebe00000000000000000000000000000000000000000000000000000000815260040162000f7d9291906200283b565b60405180910390fd5b836000015181101562000fda57338185600001516040517fdb42144d00000000000000000000000000000000000000000000000000000000815260040162000fd19392919062002cbe565b60405180910390fd5b8273ffffffffffffffffffffffffffffffffffffffff166323b872dd333087600001516040518463ffffffff1660e01b81526004016200101d9392919062002b99565b6020604051808303816000875af11580156200103d573d6000803e3d6000fd5b505050506040513d601f19601f8201168201806040525081019062001063919062002d38565b50836000015160096000866020015173ffffffffffffffffffffffffffffffffffffffff1673ffffffffffffffffffffffffffffffffffffffff1681526020019081526020016000206000828254620010bd919062002d99565b92505081905550600860008773ffffffffffffffffffffffffffffffffffffffff1673ffffffffffffffffffffffffffffffffffffffff16815260200190815260200160002060008681526020019081526020016000206000808201600090556001820160006101000a81549073ffffffffffffffffffffffffffffffffffffffff021916905550508573ffffffffffffffffffffffffffffffffffffffff166342842e0e3033886040518463ffffffff1660e01b8152600401620011859392919062002b99565b600060405180830381600087803b158015620011a057600080fd5b505af1158015620011b5573d6000803e3d6000fd5b50505050848673ffffffffffffffffffffffffffffffffffffffff163373ffffffffffffffffffffffffffffffffffffffff167fc6d7a5e59f38ae48e0f1577ce4627ba9b270bfd4c2c0c7be609c429421bc3d6887600001516040516200121d9190620024e6565b60405180910390a4505050505050565b600a6020528060005260406000206000915090508060000160009054906101000a900473ffffffffffffffffffffffffffffffffffffffff16908060010154905082565b600860008373ffffffffffffffffffffffffffffffffffffffff1673ffffffffffffffffffffffffffffffffffffffff16815260200190815260200160002060008281526020019081526020016000206000808201600090556001820160006101000a81549073ffffffffffffffffffffffffffffffffffffffff021916905550508173ffffffffffffffffffffffffffffffffffffffff166342842e0e3033846040518463ffffffff1660e01b8152600401620013329392919062002b99565b600060405180830381600087803b1580156200134d57600080fd5b505af115801562001362573d6000803e3d6000fd5b50505050808273ffffffffffffffffffffffffffffffffffffffff163373ffffffffffffffffffffffffffffffffffffffff167f061e64e10e5e57615a6fe38b48c81926f6999a2f5304d3e5e6b0d3cfac4865a560405160405180910390a45050565b6000600960003373ffffffffffffffffffffffffffffffffffffffff1673ffffffffffffffffffffffffffffffffffffffff168152602001908152602001600020549050600081116200144f576040517f08c379a0000000000000000000000000000000000000000000000000000000008152600401620014469062002e24565b60405180910390fd5b600960003373ffffffffffffffffffffffffffffffffffffffff1673ffffffffffffffffffffffffffffffffffffffff168152602001908152602001600020600090557f000000000000000000000000000000000000000000000000000000000000000073ffffffffffffffffffffffffffffffffffffffff1663a9059cbb33836040518363ffffffff1660e01b8152600401620014ef9291906200283b565b6020604051808303816000875af11580156200150f573d6000803e3d6000fd5b505050506040513d601f19601f8201168201806040525081019062001535919062002d38565b5050565b60008062001552600b5430634357855e60e01b62001773565b9050620015b96040518060400160405280600381526020017f67657400000000000000000000000000000000000000000000000000000000008152506040518060800160405280605f815260200162005e71605f913983620017aa9092919063ffffffff16565b6200163a6040518060400160405280600481526020017f70617468000000000000000000000000000000000000000000000000000000008152506040518060400160405280601b81526020017f63757272656e745f776561746865722c74656d7065726174757265000000000081525083620017aa9092919063ffffffff16565b6200164881600c54620017e1565b9150828473ffffffffffffffffffffffffffffffffffffffff16837f08cb18a17198a9d8d1ef58b5ed0668056213bb01bdc27d27ed4a5cbe351ff16a60405160405180910390a45092915050565b620016a06200181a565b620016ab81620018af565b50565b80600860008573ffffffffffffffffffffffffffffffffffffffff1673ffffffffffffffffffffffffffffffffffffffff168152602001908152602001600020600084815260200190815260200160002060000181905550818373ffffffffffffffffffffffffffffffffffffffff163373ffffffffffffffffffffffffffffffffffffffff167ff27d99858c492867d3a1e9dad2f0e80c4d41e8fcc070ed85eec4d2faaed9bd9084604051620017669190620024e6565b60405180910390a4505050565b6200177d62002208565b6200178762002208565b620017a085858584620019e0909392919063ffffffff16565b9150509392505050565b620017c382846080015162001a9490919063ffffffff16565b620017dc81846080015162001a9490919063ffffffff16565b505050565b600062001812600360009054906101000a900473ffffffffffffffffffffffffffffffffffffffff16848462001abd565b905092915050565b600660009054906101000a900473ffffffffffffffffffffffffffffffffffffffff1673ffffffffffffffffffffffffffffffffffffffff163373ffffffffffffffffffffffffffffffffffffffff1614620018ad576040517f08c379a0000000000000000000000000000000000000000000000000000000008152600401620018a49062002e96565b60405180910390fd5b565b3373ffffffffffffffffffffffffffffffffffffffff168173ffffffffffffffffffffffffffffffffffffffff160362001920576040517f08c379a0000000000000000000000000000000000000000000000000000000008152600401620019179062002f08565b60405180910390fd5b80600760006101000a81548173ffffffffffffffffffffffffffffffffffffffff021916908373ffffffffffffffffffffffffffffffffffffffff1602179055508073ffffffffffffffffffffffffffffffffffffffff16600660009054906101000a900473ffffffffffffffffffffffffffffffffffffffff1673ffffffffffffffffffffffffffffffffffffffff167fed8889f560326eb138920d842192f0eb3dd22b4f139c87a2c57538e05bae127860405160405180910390a350565b620019ea62002208565b620019fc856080015161010062001b8f565b508385600001818152505082856020019073ffffffffffffffffffffffffffffffffffffffff16908173ffffffffffffffffffffffffffffffffffffffff16815250508185604001907bffffffffffffffffffffffffffffffffffffffffffffffffffffffff191690817bffffffffffffffffffffffffffffffffffffffffffffffffffffffff191681525050849050949350505050565b62001aa3826003835162001c04565b62001ab8818362001da390919063ffffffff16565b505050565b600080600454905060018162001ad4919062002d99565b6004819055506000634042994660e01b60008087600001513089604001518760018c608001516000015160405160240162001b1798979695949392919062002f87565b604051602081830303815290604052907bffffffffffffffffffffffffffffffffffffffffffffffffffffffff19166020820180517bffffffffffffffffffffffffffffffffffffffffffffffffffffffff8381831617835250505050905062001b848683868462001dc9565b925050509392505050565b62001b9962002277565b600060208362001baa91906200304b565b1462001bdd5760208262001bbf91906200304b565b602062001bcd919062003083565b8262001bda919062002d99565b91505b81836020018181525050604051808452600081528281016020016040525082905092915050565b60178167ffffffffffffffff161162001c3f5762001c388160058460ff16901b60ff16178462001f6890919063ffffffff16565b5062001d9e565b60ff8167ffffffffffffffff161162001c9b5762001c71601860058460ff16901b178462001f6890919063ffffffff16565b5062001c948167ffffffffffffffff1660018562001f8c9092919063ffffffff16565b5062001d9d565b61ffff8167ffffffffffffffff161162001cf85762001cce601960058460ff16901b178462001f6890919063ffffffff16565b5062001cf18167ffffffffffffffff1660028562001f8c9092919063ffffffff16565b5062001d9c565b63ffffffff8167ffffffffffffffff161162001d575762001d2d601a60058460ff16901b178462001f6890919063ffffffff16565b5062001d508167ffffffffffffffff1660048562001f8c9092919063ffffffff16565b5062001d9b565b62001d76601b60058460ff16901b178462001f6890919063ffffffff16565b5062001d998167ffffffffffffffff1660088562001f8c9092919063ffffffff16565b505b5b5b5b505050565b62001dad62002277565b62001dc18384600001515184855162001fb2565b905092915050565b6000308460405160200162001de09291906200318d565b604051602081830303815290604052805190602001209050846005600083815260200190815260200160002060006101000a81548173ffffffffffffffffffffffffffffffffffffffff021916908373ffffffffffffffffffffffffffffffffffffffff160217905550807fb5e6e01e79f91267dc17b4e6314d5d4d03593d2ceee0fbb452b750bd70ea5af960405160405180910390a2600260009054906101000a900473ffffffffffffffffffffffffffffffffffffffff1673ffffffffffffffffffffffffffffffffffffffff16634000aea08685856040518463ffffffff1660e01b815260040162001ed893929190620031bd565b6020604051808303816000875af115801562001ef8573d6000803e3d6000fd5b505050506040513d601f19601f8201168201806040525081019062001f1e919062002d38565b62001f60576040517f08c379a000000000000000000000000000000000000000000000000000000000815260040162001f579062003277565b60405180910390fd5b949350505050565b62001f7262002277565b62001f848384600001515184620020b8565b905092915050565b62001f9662002277565b62001fa984856000015151858562002116565b90509392505050565b62001fbc62002277565b825182111562001fcb57600080fd5b8460200151828562001fde919062002d99565b11156200201c576200201b856002620020098860200151888762002003919062002d99565b620021b4565b62002015919062003299565b620021d2565b5b6000808651805187602083010193508088870111156200203c5787860182525b60208701925050505b602084106200208b578051825260208262002061919062002d99565b915060208162002072919062002d99565b905060208462002083919062003083565b935062002045565b60006001856020036101000a03905080198251168184511681811785525050508692505050949350505050565b620020c262002277565b83602001518310620020ed57620020ec8460028660200151620020e6919062003299565b620021d2565b5b8351805160208583010184815381860362002109576001820183525b5050508390509392505050565b6200212062002277565b8460200151848362002133919062002d99565b111562002162576200216185600286856200214f919062002d99565b6200215b919062003299565b620021d2565b5b600060018361010062002176919062003438565b62002182919062003083565b90508551838682010185831982511617815281518588011115620021a65784870182525b505085915050949350505050565b600081831115620021c857829050620021cc565b8190505b92915050565b600082600001519050620021e7838362001b8f565b50620021f4838262001da3565b50505050565b6129e7806200348a83390190565b6040518060a0016040528060008019168152602001600073ffffffffffffffffffffffffffffffffffffffff16815260200160007bffffffffffffffffffffffffffffffffffffffffffffffffffffffff19168152602001600081526020016200227162002277565b81525090565b604051806040016040528060608152602001600081525090565b6000604051905090565b600080fd5b600080fd5b600073ffffffffffffffffffffffffffffffffffffffff82169050919050565b6000620022d282620022a5565b9050919050565b620022e481620022c5565b8114620022f057600080fd5b50565b6000813590506200230481620022d9565b92915050565b6000819050919050565b6200231f816200230a565b81146200232b57600080fd5b50565b6000813590506200233f8162002314565b92915050565b600080fd5b600080fd5b600080fd5b60008083601f8401126200236d576200236c62002345565b5b8235905067ffffffffffffffff8111156200238d576200238c6200234a565b5b602083019150836001820283011115620023ac57620023ab6200234f565b5b9250929050565b600080600080600060808688031215620023d257620023d16200229b565b5b6000620023e288828901620022f3565b9550506020620023f588828901620022f3565b945050604062002408888289016200232e565b935050606086013567ffffffffffffffff8111156200242c576200242b620022a0565b5b6200243a8882890162002354565b92509250509295509295909350565b60007fffffffff0000000000000000000000000000000000000000000000000000000082169050919050565b620024808162002449565b82525050565b60006020820190506200249d600083018462002475565b92915050565b600060208284031215620024bc57620024bb6200229b565b5b6000620024cc84828501620022f3565b91505092915050565b620024e0816200230a565b82525050565b6000602082019050620024fd6000830184620024d5565b92915050565b600080fd5b6000601f19601f8301169050919050565b7f4e487b7100000000000000000000000000000000000000000000000000000000600052604160045260246000fd5b620025538262002508565b810181811067ffffffffffffffff8211171562002575576200257462002519565b5b80604052505050565b60006200258a62002291565b905062002598828262002548565b919050565b600067ffffffffffffffff821115620025bb57620025ba62002519565b5b620025c68262002508565b9050602081019050919050565b82818337600083830152505050565b6000620025f9620025f3846200259d565b6200257e565b90508281526020810184848401111562002618576200261762002503565b5b62002625848285620025d3565b509392505050565b600082601f83011262002645576200264462002345565b5b813562002657848260208601620025e2565b91505092915050565b600080604083850312156200267a57620026796200229b565b5b600083013567ffffffffffffffff8111156200269b576200269a620022a0565b5b620026a9858286016200262d565b925050602083013567ffffffffffffffff811115620026cd57620026cc620022a0565b5b620026db858286016200262d565b9150509250929050565b6000819050919050565b620026fa81620026e5565b81146200270657600080fd5b50565b6000813590506200271a81620026ef565b92915050565b600080604083850312156200273a57620027396200229b565b5b60006200274a8582860162002709565b92505060206200275d858286016200232e565b9150509250929050565b600080604083850312156200278157620027806200229b565b5b60006200279185828601620022f3565b9250506020620027a4858286016200232e565b9150509250929050565b620027b981620022c5565b82525050565b6000602082019050620027d66000830184620027ae565b92915050565b6000604082019050620027f36000830185620024d5565b620028026020830184620027ae565b9392505050565b6000602082840312156200282257620028216200229b565b5b6000620028328482850162002709565b91505092915050565b6000604082019050620028526000830185620027ae565b620028616020830184620024d5565b9392505050565b6200287381620026e5565b82525050565b600060208201905062002890600083018462002868565b92915050565b600080600060608486031215620028b257620028b16200229b565b5b6000620028c286828701620022f3565b9350506020620028d5868287016200232e565b9250506040620028e8868287016200232e565b9150509250925092565b600081519050919050565b600081905092915050565b60005b83811015620029285780820151818401526020810190506200290b565b60008484015250505050565b60006200294182620028f2565b6200294d8185620028fd565b93506200295f81856020860162002908565b80840191505092915050565b600062002979828562002934565b915062002987828462002934565b91508190509392505050565b600082825260208201905092915050565b6000620029b182620028f2565b620029bd818562002993565b9350620029cf81856020860162002908565b620029da8162002508565b840191505092915050565b6000604082019050818103600083015262002a018185620029a4565b9050818103602083015262002a178184620029a4565b90509392505050565b7f536f75726365206d75737420626520746865206f7261636c65206f662074686560008201527f2072657175657374000000000000000000000000000000000000000000000000602082015250565b600062002a7e60288362002993565b915062002a8b8262002a20565b604082019050919050565b6000602082019050818103600083015262002ab18162002a6f565b9050919050565b60008151905062002ac981620022d9565b92915050565b60006020828403121562002ae85762002ae76200229b565b5b600062002af88482850162002ab8565b91505092915050565b7f43757272656e74206d61726b657420686173206e6f74206265656e206170707260008201527f6f7665642062792074686973206e667421000000000000000000000000000000602082015250565b600062002b5f60318362002993565b915062002b6c8262002b01565b604082019050919050565b6000602082019050818103600083015262002b928162002b50565b9050919050565b600060608201905062002bb06000830186620027ae565b62002bbf6020830185620027ae565b62002bce6040830184620024d5565b949350505050565b7f4d7573742062652070726f706f736564206f776e657200000000000000000000600082015250565b600062002c0e60168362002993565b915062002c1b8262002bd6565b602082019050919050565b6000602082019050818103600083015262002c418162002bff565b9050919050565b600060408201905062002c5f6000830185620027ae565b62002c6e6020830184620027ae565b9392505050565b60008151905062002c868162002314565b92915050565b60006020828403121562002ca55762002ca46200229b565b5b600062002cb58482850162002c75565b91505092915050565b600060608201905062002cd56000830186620027ae565b62002ce46020830185620024d5565b62002cf36040830184620024d5565b949350505050565b60008115159050919050565b62002d128162002cfb565b811462002d1e57600080fd5b50565b60008151905062002d328162002d07565b92915050565b60006020828403121562002d515762002d506200229b565b5b600062002d618482850162002d21565b91505092915050565b7f4e487b7100000000000000000000000000000000000000000000000000000000600052601160045260246000fd5b600062002da6826200230a565b915062002db3836200230a565b925082820190508082111562002dce5762002dcd62002d6a565b5b92915050565b7f796f752068617665206e6f2070726f6365656473210000000000000000000000600082015250565b600062002e0c60158362002993565b915062002e198262002dd4565b602082019050919050565b6000602082019050818103600083015262002e3f8162002dfd565b9050919050565b7f4f6e6c792063616c6c61626c65206279206f776e657200000000000000000000600082015250565b600062002e7e60168362002993565b915062002e8b8262002e46565b602082019050919050565b6000602082019050818103600083015262002eb18162002e6f565b9050919050565b7f43616e6e6f74207472616e7366657220746f2073656c66000000000000000000600082015250565b600062002ef060178362002993565b915062002efd8262002eb8565b602082019050919050565b6000602082019050818103600083015262002f238162002ee1565b9050919050565b600081519050919050565b600082825260208201905092915050565b600062002f538262002f2a565b62002f5f818562002f35565b935062002f7181856020860162002908565b62002f7c8162002508565b840191505092915050565b60006101008201905062002f9f600083018b620027ae565b62002fae602083018a620024d5565b62002fbd604083018962002868565b62002fcc6060830188620027ae565b62002fdb608083018762002475565b62002fea60a0830186620024d5565b62002ff960c0830185620024d5565b81810360e08301526200300d818462002f46565b90509998505050505050505050565b7f4e487b7100000000000000000000000000000000000000000000000000000000600052601260045260246000fd5b600062003058826200230a565b915062003065836200230a565b9250826200307857620030776200301c565b5b828206905092915050565b600062003090826200230a565b91506200309d836200230a565b9250828203905081811115620030b857620030b762002d6a565b5b92915050565b6000819050919050565b6000620030e9620030e3620030dd84620022a5565b620030be565b620022a5565b9050919050565b6000620030fd82620030c8565b9050919050565b60006200311182620030f0565b9050919050565b60008160601b9050919050565b6000620031328262003118565b9050919050565b6000620031468262003125565b9050919050565b620031626200315c8262003104565b62003139565b82525050565b6000819050919050565b6200318762003181826200230a565b62003168565b82525050565b60006200319b82856200314d565b601482019150620031ad828462003172565b6020820191508190509392505050565b6000606082019050620031d46000830186620027ae565b620031e36020830185620024d5565b8181036040830152620031f7818462002f46565b9050949350505050565b7f756e61626c6520746f207472616e73666572416e6443616c6c20746f206f726160008201527f636c650000000000000000000000000000000000000000000000000000000000602082015250565b60006200325f60238362002993565b91506200326c8262003201565b604082019050919050565b60006020820190508181036000830152620032928162003250565b9050919050565b6000620032a6826200230a565b9150620032b3836200230a565b9250828202620032c3816200230a565b91508282048414831517620032dd57620032dc62002d6a565b5b5092915050565b60008160011c9050919050565b6000808291508390505b600185111562003343578086048111156200331b576200331a62002d6a565b5b60018516156200332b5780820291505b80810290506200333b85620032e4565b9450620032fb565b94509492505050565b6000826200335e576001905062003431565b816200336e576000905062003431565b81600181146200338757600281146200339257620033c8565b600191505062003431565b60ff841115620033a757620033a662002d6a565b5b8360020a915084821115620033c157620033c062002d6a565b5b5062003431565b5060208310610133831016604e8410600b8410161715620034025782820a905083811115620033fc57620033fb62002d6a565b5b62003431565b620034118484846001620032f1565b925090508184048111156200342b576200342a62002d6a565b5b81810290505b9392505050565b600062003445826200230a565b915062003452836200230a565b9250620034817fffffffffffffffffffffffffffffffffffffffffffffffffffffffffffffffff84846200334c565b90509291505056fe60806040523480156200001157600080fd5b50604051620029e7380380620029e78339818101604052810190620000379190620001fa565b818181600090816200004a9190620004ca565b5080600190816200005c9190620004ca565b5050505050620005b1565b6000604051905090565b600080fd5b600080fd5b600080fd5b600080fd5b6000601f19601f8301169050919050565b7f4e487b7100000000000000000000000000000000000000000000000000000000600052604160045260246000fd5b620000d08262000085565b810181811067ffffffffffffffff82111715620000f257620000f162000096565b5b80604052505050565b60006200010762000067565b9050620001158282620000c5565b919050565b600067ffffffffffffffff82111562000138576200013762000096565b5b620001438262000085565b9050602081019050919050565b60005b838110156200017057808201518184015260208101905062000153565b60008484015250505050565b6000620001936200018d846200011a565b620000fb565b905082815260208101848484011115620001b257620001b162000080565b5b620001bf84828562000150565b509392505050565b600082601f830112620001df57620001de6200007b565b5b8151620001f18482602086016200017c565b91505092915050565b6000806040838503121562000214576200021362000071565b5b600083015167ffffffffffffffff81111562000235576200023462000076565b5b6200024385828601620001c7565b925050602083015167ffffffffffffffff81111562000267576200026662000076565b5b6200027585828601620001c7565b9150509250929050565b600081519050919050565b7f4e487b7100000000000000000000000000000000000000000000000000000000600052602260045260246000fd5b60006002820490506001821680620002d257607f821691505b602082108103620002e857620002e76200028a565b5b50919050565b60008190508160005260206000209050919050565b60006020601f8301049050919050565b600082821b905092915050565b600060088302620003527fffffffffffffffffffffffffffffffffffffffffffffffffffffffffffffffff8262000313565b6200035e868362000313565b95508019841693508086168417925050509392505050565b6000819050919050565b6000819050919050565b6000620003ab620003a56200039f8462000376565b62000380565b62000376565b9050919050565b6000819050919050565b620003c7836200038a565b620003df620003d682620003b2565b84845462000320565b825550505050565b600090565b620003f6620003e7565b62000403818484620003bc565b505050565b5b818110156200042b576200041f600082620003ec565b60018101905062000409565b5050565b601f8211156200047a576200044481620002ee565b6200044f8462000303565b810160208510156200045f578190505b620004776200046e8562000303565b83018262000408565b50505b505050565b600082821c905092915050565b60006200049f600019846008026200047f565b1980831691505092915050565b6000620004ba83836200048c565b9150826002028217905092915050565b620004d5826200027f565b67ffffffffffffffff811115620004f157620004f062000096565b5b620004fd8254620002b9565b6200050a8282856200042f565b600060209050601f8311600181146200054257600084156200052d578287015190505b620005398582620004ac565b865550620005a9565b601f1984166200055286620002ee565b60005b828110156200057c5784890151825560018201915060208501945060208101905062000555565b868310156200059c578489015162000598601f8916826200048c565b8355505b6001600288020188555050505b505050505050565b61242680620005c16000396000f3fe608060405234801561001057600080fd5b50600436106100f55760003560e01c806370a0823111610097578063c754584911610066578063c754584914610282578063c87b56dd1461029e578063d082e381146102ce578063e985e9c5146102ec576100f5565b806370a08231146101fc57806395d89b411461022c578063a22cb4651461024a578063b88d4fde14610266576100f5565b8063095ea7b3116100d3578063095ea7b31461017857806323b872dd1461019457806342842e0e146101b05780636352211e146101cc576100f5565b806301ffc9a7146100fa57806306fdde031461012a578063081812fc14610148575b600080fd5b610114600480360381019061010f9190611867565b61031c565b60405161012191906118af565b60405180910390f35b61013261037d565b60405161013f919061195a565b60405180910390f35b610162600480360381019061015d91906119b2565b61040f565b60405161016f9190611a20565b60405180910390f35b610192600480360381019061018d9190611a67565b61042b565b005b6101ae60048036038101906101a99190611aa7565b610441565b005b6101ca60048036038101906101c59190611aa7565b610543565b005b6101e660048036038101906101e191906119b2565b610563565b6040516101f39190611a20565b60405180910390f35b61021660048036038101906102119190611afa565b610575565b6040516102239190611b36565b60405180910390f35b61023461062f565b604051610241919061195a565b60405180910390f35b610264600480360381019061025f9190611b7d565b6106c1565b005b610280600480360381019061027b9190611cf2565b6106d7565b005b61029c60048036038101906102979190611e16565b6106f4565b005b6102b860048036038101906102b391906119b2565b610766565b6040516102c5919061195a565b60405180910390f35b6102d6610879565b6040516102e39190611b36565b60405180910390f35b61030660048036038101906103019190611e5f565b61087f565b60405161031391906118af565b60405180910390f35b6000634906490660e01b7bffffffffffffffffffffffffffffffffffffffffffffffffffffffff1916827bffffffffffffffffffffffffffffffffffffffffffffffffffffffff19161480610376575061037582610913565b5b9050919050565b60606000805461038c90611ece565b80601f01602080910402602001604051908101604052809291908181526020018280546103b890611ece565b80156104055780601f106103da57610100808354040283529160200191610405565b820191906000526020600020905b8154815290600101906020018083116103e857829003601f168201915b5050505050905090565b600061041a826109f5565b5061042482610a7d565b9050919050565b61043d8282610438610aba565b610ac2565b5050565b600073ffffffffffffffffffffffffffffffffffffffff168273ffffffffffffffffffffffffffffffffffffffff16036104b35760006040517f64a0ae920000000000000000000000000000000000000000000000000000000081526004016104aa9190611a20565b60405180910390fd5b60006104c783836104c2610aba565b610ad4565b90508373ffffffffffffffffffffffffffffffffffffffff168173ffffffffffffffffffffffffffffffffffffffff161461053d578382826040517f64283d7b00000000000000000000000000000000000000000000000000000000815260040161053493929190611eff565b60405180910390fd5b50505050565b61055e838383604051806020016040528060008152506106d7565b505050565b600061056e826109f5565b9050919050565b60008073ffffffffffffffffffffffffffffffffffffffff168273ffffffffffffffffffffffffffffffffffffffff16036105e85760006040517f89c62b640000000000000000000000000000000000000000000000000000000081526004016105df9190611a20565b60405180910390fd5b600360008373ffffffffffffffffffffffffffffffffffffffff1673ffffffffffffffffffffffffffffffffffffffff168152602001908152602001600020549050919050565b60606001805461063e90611ece565b80601f016020809104026020016040519081016040528092919081815260200182805461066a90611ece565b80156106b75780601f1061068c576101008083540402835291602001916106b7565b820191906000526020600020905b81548152906001019060200180831161069a57829003601f168201915b5050505050905090565b6106d36106cc610aba565b8383610cee565b5050565b6106e2848484610441565b6106ee84848484610e5d565b50505050565b61070033600754611014565b61070c6007548261110d565b7f899b99f6c26ce7a463fc72a3a36ae78b414dae9cfa6e88e8580ec708e70f30b0336007548360405161074193929190611f36565b60405180910390a160016007600082825461075c9190611fa3565b9250508190555050565b6060610771826109f5565b50600060066000848152602001908152602001600020805461079290611ece565b80601f01602080910402602001604051908101604052809291908181526020018280546107be90611ece565b801561080b5780601f106107e05761010080835404028352916020019161080b565b820191906000526020600020905b8154815290600101906020018083116107ee57829003601f168201915b50505050509050600061081c611169565b90506000815103610831578192505050610874565b60008251111561086657808260405160200161084e929190612013565b60405160208183030381529060405292505050610874565b61086f84611180565b925050505b919050565b60075481565b6000600560008473ffffffffffffffffffffffffffffffffffffffff1673ffffffffffffffffffffffffffffffffffffffff16815260200190815260200160002060008373ffffffffffffffffffffffffffffffffffffffff1673ffffffffffffffffffffffffffffffffffffffff16815260200190815260200160002060009054906101000a900460ff16905092915050565b60007f80ac58cd000000000000000000000000000000000000000000000000000000007bffffffffffffffffffffffffffffffffffffffffffffffffffffffff1916827bffffffffffffffffffffffffffffffffffffffffffffffffffffffff191614806109de57507f5b5e139f000000000000000000000000000000000000000000000000000000007bffffffffffffffffffffffffffffffffffffffffffffffffffffffff1916827bffffffffffffffffffffffffffffffffffffffffffffffffffffffff1916145b806109ee57506109ed826111e9565b5b9050919050565b600080610a0183611253565b9050600073ffffffffffffffffffffffffffffffffffffffff168173ffffffffffffffffffffffffffffffffffffffff1603610a7457826040517f7e273289000000000000000000000000000000000000000000000000000000008152600401610a6b9190611b36565b60405180910390fd5b80915050919050565b60006004600083815260200190815260200160002060009054906101000a900473ffffffffffffffffffffffffffffffffffffffff169050919050565b600033905090565b610acf8383836001611290565b505050565b600080610ae084611253565b9050600073ffffffffffffffffffffffffffffffffffffffff168373ffffffffffffffffffffffffffffffffffffffff1614610b2257610b21818486611455565b5b600073ffffffffffffffffffffffffffffffffffffffff168173ffffffffffffffffffffffffffffffffffffffff1614610bb357610b64600085600080611290565b6001600360008373ffffffffffffffffffffffffffffffffffffffff1673ffffffffffffffffffffffffffffffffffffffff168152602001908152602001600020600082825403925050819055505b600073ffffffffffffffffffffffffffffffffffffffff168573ffffffffffffffffffffffffffffffffffffffff1614610c36576001600360008773ffffffffffffffffffffffffffffffffffffffff1673ffffffffffffffffffffffffffffffffffffffff168152602001908152602001600020600082825401925050819055505b846002600086815260200190815260200160002060006101000a81548173ffffffffffffffffffffffffffffffffffffffff021916908373ffffffffffffffffffffffffffffffffffffffff160217905550838573ffffffffffffffffffffffffffffffffffffffff168273ffffffffffffffffffffffffffffffffffffffff167fddf252ad1be2c89b69c2b068fc378daa952ba7f163c4a11628f55a4df523b3ef60405160405180910390a4809150509392505050565b600073ffffffffffffffffffffffffffffffffffffffff168273ffffffffffffffffffffffffffffffffffffffff1603610d5f57816040517f5b08ba18000000000000000000000000000000000000000000000000000000008152600401610d569190611a20565b60405180910390fd5b80600560008573ffffffffffffffffffffffffffffffffffffffff1673ffffffffffffffffffffffffffffffffffffffff16815260200190815260200160002060008473ffffffffffffffffffffffffffffffffffffffff1673ffffffffffffffffffffffffffffffffffffffff16815260200190815260200160002060006101000a81548160ff0219169083151502179055508173ffffffffffffffffffffffffffffffffffffffff168373ffffffffffffffffffffffffffffffffffffffff167f17307eab39ab6107e8899845ad3d59bd9653f200f220920489ca2b5937696c3183604051610e5091906118af565b60405180910390a3505050565b60008373ffffffffffffffffffffffffffffffffffffffff163b111561100e578273ffffffffffffffffffffffffffffffffffffffff1663150b7a02610ea1610aba565b8685856040518563ffffffff1660e01b8152600401610ec3949392919061208c565b6020604051808303816000875af1925050508015610eff57506040513d601f19601f82011682018060405250810190610efc91906120ed565b60015b610f83573d8060008114610f2f576040519150601f19603f3d011682016040523d82523d6000602084013e610f34565b606091505b506000815103610f7b57836040517f64a0ae92000000000000000000000000000000000000000000000000000000008152600401610f729190611a20565b60405180910390fd5b805181602001fd5b63150b7a0260e01b7bffffffffffffffffffffffffffffffffffffffffffffffffffffffff1916817bffffffffffffffffffffffffffffffffffffffffffffffffffffffff19161461100c57836040517f64a0ae920000000000000000000000000000000000000000000000000000000081526004016110039190611a20565b60405180910390fd5b505b50505050565b600073ffffffffffffffffffffffffffffffffffffffff168273ffffffffffffffffffffffffffffffffffffffff16036110865760006040517f64a0ae9200000000000000000000000000000000000000000000000000000000815260040161107d9190611a20565b60405180910390fd5b600061109483836000610ad4565b9050600073ffffffffffffffffffffffffffffffffffffffff168173ffffffffffffffffffffffffffffffffffffffff16146111085760006040517f73c6ac6e0000000000000000000000000000000000000000000000000000000081526004016110ff9190611a20565b60405180910390fd5b505050565b8060066000848152602001908152602001600020908161112d91906122c6565b507ff8e1a15aba9398e019f0b49df1a4fde98ee17ae345cb5f6b5e2c27f5033e8ce78260405161115d9190611b36565b60405180910390a15050565b606060405180602001604052806000815250905090565b606061118b826109f5565b506000611196611169565b905060008151116111b657604051806020016040528060008152506111e1565b806111c084611519565b6040516020016111d1929190612013565b6040516020818303038152906040525b915050919050565b60007f01ffc9a7000000000000000000000000000000000000000000000000000000007bffffffffffffffffffffffffffffffffffffffffffffffffffffffff1916827bffffffffffffffffffffffffffffffffffffffffffffffffffffffff1916149050919050565b60006002600083815260200190815260200160002060009054906101000a900473ffffffffffffffffffffffffffffffffffffffff169050919050565b80806112c95750600073ffffffffffffffffffffffffffffffffffffffff168273ffffffffffffffffffffffffffffffffffffffff1614155b156113fd5760006112d9846109f5565b9050600073ffffffffffffffffffffffffffffffffffffffff168373ffffffffffffffffffffffffffffffffffffffff161415801561134457508273ffffffffffffffffffffffffffffffffffffffff168173ffffffffffffffffffffffffffffffffffffffff1614155b80156113575750611355818461087f565b155b1561139957826040517fa9fbf51f0000000000000000000000000000000000000000000000000000000081526004016113909190611a20565b60405180910390fd5b81156113fb57838573ffffffffffffffffffffffffffffffffffffffff168273ffffffffffffffffffffffffffffffffffffffff167f8c5be1e5ebec7d5bd14f71427d1e84f3dd0314c0f7b2291e5b200ac8c7c3b92560405160405180910390a45b505b836004600085815260200190815260200160002060006101000a81548173ffffffffffffffffffffffffffffffffffffffff021916908373ffffffffffffffffffffffffffffffffffffffff16021790555050505050565b6114608383836115e7565b61151457600073ffffffffffffffffffffffffffffffffffffffff168373ffffffffffffffffffffffffffffffffffffffff16036114d557806040517f7e2732890000000000000000000000000000000000000000000000000000000081526004016114cc9190611b36565b60405180910390fd5b81816040517f177e802f00000000000000000000000000000000000000000000000000000000815260040161150b929190612398565b60405180910390fd5b505050565b606060006001611528846116a8565b01905060008167ffffffffffffffff81111561154757611546611bc7565b5b6040519080825280601f01601f1916602001820160405280156115795781602001600182028036833780820191505090505b509050600082602001820190505b6001156115dc578080600190039150507f3031323334353637383961626364656600000000000000000000000000000000600a86061a8153600a85816115d0576115cf6123c1565b5b04945060008503611587575b819350505050919050565b60008073ffffffffffffffffffffffffffffffffffffffff168373ffffffffffffffffffffffffffffffffffffffff161415801561169f57508273ffffffffffffffffffffffffffffffffffffffff168473ffffffffffffffffffffffffffffffffffffffff161480611660575061165f848461087f565b5b8061169e57508273ffffffffffffffffffffffffffffffffffffffff1661168683610a7d565b73ffffffffffffffffffffffffffffffffffffffff16145b5b90509392505050565b600080600090507a184f03e93ff9f4daa797ed6e38ed64bf6a1f0100000000000000008310611706577a184f03e93ff9f4daa797ed6e38ed64bf6a1f01000000000000000083816116fc576116fb6123c1565b5b0492506040810190505b6d04ee2d6d415b85acef81000000008310611743576d04ee2d6d415b85acef81000000008381611739576117386123c1565b5b0492506020810190505b662386f26fc10000831061177257662386f26fc100008381611768576117676123c1565b5b0492506010810190505b6305f5e100831061179b576305f5e1008381611791576117906123c1565b5b0492506008810190505b61271083106117c05761271083816117b6576117b56123c1565b5b0492506004810190505b606483106117e357606483816117d9576117d86123c1565b5b0492506002810190505b600a83106117f2576001810190505b80915050919050565b6000604051905090565b600080fd5b600080fd5b60007fffffffff0000000000000000000000000000000000000000000000000000000082169050919050565b6118448161180f565b811461184f57600080fd5b50565b6000813590506118618161183b565b92915050565b60006020828403121561187d5761187c611805565b5b600061188b84828501611852565b91505092915050565b60008115159050919050565b6118a981611894565b82525050565b60006020820190506118c460008301846118a0565b92915050565b600081519050919050565b600082825260208201905092915050565b60005b838110156119045780820151818401526020810190506118e9565b60008484015250505050565b6000601f19601f8301169050919050565b600061192c826118ca565b61193681856118d5565b93506119468185602086016118e6565b61194f81611910565b840191505092915050565b600060208201905081810360008301526119748184611921565b905092915050565b6000819050919050565b61198f8161197c565b811461199a57600080fd5b50565b6000813590506119ac81611986565b92915050565b6000602082840312156119c8576119c7611805565b5b60006119d68482850161199d565b91505092915050565b600073ffffffffffffffffffffffffffffffffffffffff82169050919050565b6000611a0a826119df565b9050919050565b611a1a816119ff565b82525050565b6000602082019050611a356000830184611a11565b92915050565b611a44816119ff565b8114611a4f57600080fd5b50565b600081359050611a6181611a3b565b92915050565b60008060408385031215611a7e57611a7d611805565b5b6000611a8c85828601611a52565b9250506020611a9d8582860161199d565b9150509250929050565b600080600060608486031215611ac057611abf611805565b5b6000611ace86828701611a52565b9350506020611adf86828701611a52565b9250506040611af08682870161199d565b9150509250925092565b600060208284031215611b1057611b0f611805565b5b6000611b1e84828501611a52565b91505092915050565b611b308161197c565b82525050565b6000602082019050611b4b6000830184611b27565b92915050565b611b5a81611894565b8114611b6557600080fd5b50565b600081359050611b7781611b51565b92915050565b60008060408385031215611b9457611b93611805565b5b6000611ba285828601611a52565b9250506020611bb385828601611b68565b9150509250929050565b600080fd5b600080fd5b7f4e487b7100000000000000000000000000000000000000000000000000000000600052604160045260246000fd5b611bff82611910565b810181811067ffffffffffffffff82111715611c1e57611c1d611bc7565b5b80604052505050565b6000611c316117fb565b9050611c3d8282611bf6565b919050565b600067ffffffffffffffff821115611c5d57611c5c611bc7565b5b611c6682611910565b9050602081019050919050565b82818337600083830152505050565b6000611c95611c9084611c42565b611c27565b905082815260208101848484011115611cb157611cb0611bc2565b5b611cbc848285611c73565b509392505050565b600082601f830112611cd957611cd8611bbd565b5b8135611ce9848260208601611c82565b91505092915050565b60008060008060808587031215611d0c57611d0b611805565b5b6000611d1a87828801611a52565b9450506020611d2b87828801611a52565b9350506040611d3c8782880161199d565b925050606085013567ffffffffffffffff811115611d5d57611d5c61180a565b5b611d6987828801611cc4565b91505092959194509250565b600067ffffffffffffffff821115611d9057611d8f611bc7565b5b611d9982611910565b9050602081019050919050565b6000611db9611db484611d75565b611c27565b905082815260208101848484011115611dd557611dd4611bc2565b5b611de0848285611c73565b509392505050565b600082601f830112611dfd57611dfc611bbd565b5b8135611e0d848260208601611da6565b91505092915050565b600060208284031215611e2c57611e2b611805565b5b600082013567ffffffffffffffff811115611e4a57611e4961180a565b5b611e5684828501611de8565b91505092915050565b60008060408385031215611e7657611e75611805565b5b6000611e8485828601611a52565b9250506020611e9585828601611a52565b9150509250929050565b7f4e487b7100000000000000000000000000000000000000000000000000000000600052602260045260246000fd5b60006002820490506001821680611ee657607f821691505b602082108103611ef957611ef8611e9f565b5b50919050565b6000606082019050611f146000830186611a11565b611f216020830185611b27565b611f2e6040830184611a11565b949350505050565b6000606082019050611f4b6000830186611a11565b611f586020830185611b27565b8181036040830152611f6a8184611921565b9050949350505050565b7f4e487b7100000000000000000000000000000000000000000000000000000000600052601160045260246000fd5b6000611fae8261197c565b9150611fb98361197c565b9250828201905080821115611fd157611fd0611f74565b5b92915050565b600081905092915050565b6000611fed826118ca565b611ff78185611fd7565b93506120078185602086016118e6565b80840191505092915050565b600061201f8285611fe2565b915061202b8284611fe2565b91508190509392505050565b600081519050919050565b600082825260208201905092915050565b600061205e82612037565b6120688185612042565b93506120788185602086016118e6565b61208181611910565b840191505092915050565b60006080820190506120a16000830187611a11565b6120ae6020830186611a11565b6120bb6040830185611b27565b81810360608301526120cd8184612053565b905095945050505050565b6000815190506120e78161183b565b92915050565b60006020828403121561210357612102611805565b5b6000612111848285016120d8565b91505092915050565b60008190508160005260206000209050919050565b60006020601f8301049050919050565b600082821b905092915050565b60006008830261217c7fffffffffffffffffffffffffffffffffffffffffffffffffffffffffffffffff8261213f565b612186868361213f565b95508019841693508086168417925050509392505050565b6000819050919050565b60006121c36121be6121b98461197c565b61219e565b61197c565b9050919050565b6000819050919050565b6121dd836121a8565b6121f16121e9826121ca565b84845461214c565b825550505050565b600090565b6122066121f9565b6122118184846121d4565b505050565b5b818110156122355761222a6000826121fe565b600181019050612217565b5050565b601f82111561227a5761224b8161211a565b6122548461212f565b81016020851015612263578190505b61227761226f8561212f565b830182612216565b50505b505050565b600082821c905092915050565b600061229d6000198460080261227f565b1980831691505092915050565b60006122b6838361228c565b9150826002028217905092915050565b6122cf826118ca565b67ffffffffffffffff8111156122e8576122e7611bc7565b5b6122f28254611ece565b6122fd828285612239565b600060209050601f831160018114612330576000841561231e578287015190505b61232885826122aa565b865550612390565b601f19841661233e8661211a565b60005b8281101561236657848901518255600182019150602085019450602081019050612341565b86831015612383578489015161237f601f89168261228c565b8355505b6001600288020188555050505b505050505050565b60006040820190506123ad6000830185611a11565b6123ba6020830184611b27565b9392505050565b7f4e487b7100000000000000000000000000000000000000000000000000000000600052601260045260246000fdfea26469706673582212206260469a8e2a795a89578acf337355ee79b8d811df1a870d8b3e6261c830e09964736f6c6343000818003368747470733a2f2f6170692e6f70656e2d6d6574656f2e636f6d2f76312f666f7265636173743f6c617469747564653d33302e35383333266c6f6e6769747564653d3131342e323636372663757272656e745f776561746865723d74727565a2646970667358221220d711705507d3bfa20b511dd459392cb1c92ac741ca455efd42a1f411d0552afb64736f6c63430008180033",
  "linkReferences": {},
  "deployedLinkReferences": {}
}